:020000040800F2
:10000000E80F002001010008FD1F0008FF1F000885
:1000100003200008072000080B2000080000000053
:100020000000000000000000000000000F20000899
:10003000112000080000000013200008152000080F
:100040001B0100081B0100081B0100081B01000820
:100050001B0100081B0100081B0100081B01000810
:100060001B0100081B010008192000081B010008E3
:100070001B0100081B0100081B0100081B010008F0
:100080001B0100081B0100081B0100081B010008E0
:100090001B0100081B0100081B0100087520000857
:1000A0001B0100081B0100081B0100081B010008C0
:1000B0001B0100081B0100081B0100081B010008B0
:1000C0001B0100081B0100081B0100081B010008A0
:1000D0001B0100087720000807210008DB21000829
:1000E000172000081B0100081B010008DFF80CD0D6
:1000F00004F068FF00480047E11F0008E80F0020F7
:100100000648804706480047FEE7FEE7FEE7FEE7B1
:10011000FEE7FEE7FEE7FEE7FEE7FEE7DF1E00087C
:10012000ED00000831490143314A1160704770B554
:10013000002100230F22C47804B32D4C246804F45A
:10014000E064C4F5E064210AC1F10403CA404478C4
:1001500004FA03F18478144021430901254C067800
:10016000A155047804F01F050124AC4005786D11F9
:10017000AD0005F1E025C5F8004109E0047804F080
:100180001F050124AC401C4D0678761145F8264029
:1001900070BD1A4A0A400243154B1B1F1A60704774
:1001A00039B1134A121D12680243114B1B1D1A600C
:1001B00006E00F4A121D126882430D4B1B1D1A6088
:1001C0007047042808D14FF0E021096941F004018B
:1001D0004FF0E022116107E04FF0E021096921F0C2
:1001E00004014FF0E0221161704700000000FA05A1
:1001F0000CED00E000E400E080E100E080FFFF1F84
:1002000010B50446FA48844208D10121401501F096
:10021000C1F80021601501F0BDF817E0F5488442EF
:1002200008D10121001501F0B5F80021201501F0D9
:10023000B1F80BE0F048844208D10121C80301F075
:10024000A9F800214FF4004001F0A4F810BD30B52A
:100250000246002000235068E84C20400D790C68CD
:1002600044EA0524204350609068E54C2040D1E9E1
:1002700002542C434D7944EA450420439060D06AEF
:1002800020F470000C7C641EE4B2234340EA035067
:10029000D06230BD00210160017141718160C16097
:1002A00001210174704721B1826842F0010282602D
:1002B00003E0826822F001028260704721B1826807
:1002C00042F48072826003E0826822F4807282606D
:1002D000704710B50023CBB21AB144681C43446088
:1002E00002E044689C43446010BD816841F008010D
:1002F00081607047014600208A6802F008020AB156
:10030000012000E000207047816841F00401816015
:100310007047014600208A6802F004020AB10120F9
:1003200000E00020704721B1826842F4A0028260A0
:1003300003E0826822F4A002826070470146002038
:100340008A6802F480020AB1012000E000207047B0
:1003500010B50A4600210023416821F46041531E74
:1003600041EA4331416010BD21B1426842F400626C
:10037000426003E0426822F4006242607047F0B5D8
:1003800004460D4600200021092D11DDE068A5F18D
:100390000A0606EB4607072606FA07F18843A5F189
:1003A0000A0606EB460603FA06F10843E0600CE095
:1003B000206905EB4507072606FA07F1884305EB98
:1003C000450603FA06F108432061072A0FDA606B3D
:1003D000561E06EB86071F2606FA07F18843561EAF
:1003E00006EB860605FA06F10843606322E00D2A53
:1003F0000FDA206BD61F06EB86071F2606FA07F1D9
:100400008843D61F06EB860605FA06F108432063EB
:1004100010E0E06AA2F10D0606EB86071F2606FA39
:1004200007F18843A2F10D0606EB860605FA06F1F0
:100430000843E062F0BD21B1826842F4801282601C
:1004400003E0826822F48012826070470146C86C23
:1004500080B2704766484C300068704721B14268EE
:1004600042F48062426003E0426822F480624260AB
:10047000704721B1426842F48052426003E0426812
:1004800022F48052426070470A460021816821F4BC
:10049000E04111438160704721B1826842F400421B
:1004A000826003E0826822F400428260704721B1DA
:1004B000826842F40212826003E0826822F402122F
:1004C00082607047014600208A6802F400120AB177
:1004D000012000E000207047F0B5044615460020DA
:1004E00000220026092911DDE068A1F10A0707EBC7
:1004F000470C072707FA0CF29043A1F10A0707EB14
:10050000470703FA07F21043E0600CE0206901EBB3
:10051000410C072707FA0CF2904301EB410703FA5D
:1005200007F210432061A06BC0F30156EF1C06F1E7
:10053000010CA7EB0C0707EB870C1F2707FA0CF23F
:100540009043EF1C06F1010CA7EB0C0707EB8707A4
:1005500001FA07F21043A063F0BD10B50A4600216E
:100560000023816B21F44011531E41EA0351816342
:1005700010BD08B5002300930090009B0B4400932E
:10058000009B1A6008BD08B502460020009000924A
:1005900001F12800009B184400900098006880B288
:1005A00008BD0A4600214168164B194011434160BD
:1005B00070474162826270470A460021416821F01B
:1005C0001F0111434160704740B109490831096872
:1005D00041F40001064A0832116007E0044908317D
:1005E000096821F40001024A0832116070470000D6
:1005F0000024014000280140003C0140FFFEF0FFC4
:10060000FDF7F1FFFFFD3FFF0246002013680B409E
:100610000BB1012000E000207047CA430260704720
:1006200070B502460020002300240B125568CEB29C
:1006300005EA060415681D4015B10CB1012000E063
:10064000002070BD00220A12D343036070470000EF
:10065000002044490860091D0860091D0860091D43
:10066000086041483F4914310860704700213D4906
:100670008279002A3AD00A46126803689A430B46E8
:100680001A600A1D126803689A430B1D1A600279EA
:1006900011440A6803681A430A60324A0832126831
:1006A00003689A432F4B08331A601A1D12680368B7
:1006B0009A432C4B0C331A604279102A0ED11A1F20
:1006C000126803681A43274B08331A601A1D126810
:1006D00003681A43234B0C331A600DE02149427919
:1006E00011440A6803681A430A6005E0027911445C
:1006F0000A6803689A430A6070470021016001712B
:100700000C2141710021817170471649103109682F
:100710000143144A10321160704701460020114A0B
:10072000143212680A400AB1012000E0002070472C
:100730000C49143108607047014600200022094B23
:100740001B6803EA0102074B14331B680B4013B10B
:100750000AB1012000E0002070470249143108600E
:100760007047000000040140FFFF0F000146002019
:10077000FE4A106800F03800084310607047FB49DB
:10078000096821F00801F94A11601146096801431E
:1007900011607047F549096821F01001F34A1160B2
:1007A00011460968014311607047F148EF494860FC
:1007B000F04848607047EE48EC494860ED484860B2
:1007C0007047EA48006940F08000E84908617047D6
:1007D000E648006940F08000E44908617047042061
:1007E000E249C96801F0010109B101200EE0DF49C9
:1007F000C96801F0040109B1022007E0DB49C968BA
:1008000001F0100109B1032000E00420704700B599
:1008100002460423FFF7E3FF034603E0FFF7DFFF91
:100820000346521E012B01D1002AF7D102B905233C
:10083000184600BD30B5044604254FF43020FFF7BC
:10084000E6FF0546042D17D1C848006940F00200B4
:10085000C649086108464461006940F040000861EB
:100860004FF43020FFF7D3FF0546C048006941F63A
:10087000FD710840BD490861284630BD10B504240B
:100880004FF43020FFF7C3FF0446042C16D1B748BD
:10089000006940F00400B54908610846006940F06D
:1008A000400008614FF43020FFF7B1FF0446AF4825
:1008B000006941F6FB710840AC490861204610BD53
:1008C00000B502460423FFF78AFF034603E0FFF763
:1008D00086FF0346521E012B01D1002AF7D102B92F
:1008E0000523184600BD10B504244FF43020FFF74F
:1008F000E7FF0446042C16D19C48006940F0040030
:100900009A4908610846006940F0400008614FF4C8
:100910003020FFF7D5FF04469448006941F6FB718B
:10092000084092490861204610BD00208F49C969DE
:1009300001F0020109B1012000E00020704730B54C
:10094000A5250424FFF7F1FF00B100254FF4302066
:10095000FFF75DFF0446042C3AD18548834988603F
:10096000844888600846006940F020000861084615
:10097000006940F0400008614FF43020FFF747FF66
:100980000446042C1BD17948006941F6DF71084008
:10099000764908610846006940F010000861764811
:1009A0000580E002FFF733FF0446052C10D06F48A6
:1009B000006941F6EF7108406C49086108E0052CB8
:1009C00006D06A48006941F6EF710840674908613E
:1009D000204630BD78B506460C4604250020009020
:1009E000E802FFF714FF0546042D24D15F48006993
:1009F00040F001005D4908613480E802FFF707FF1D
:100A00000546042D10D1B01C0090200C00990880E0
:100A1000E802FFF7FCFE05465448006941F6FE7106
:100A200008405249086106E05048006941F6FE71ED
:100A300008404E490861284678BD70B504460D4609
:100A40000426F002FFF7E3FE0646042E11D14748C4
:100A5000006940F00100454908612580F002FFF778
:100A6000D6FE06464148006941F6FE7108403F49FE
:100A70000861304670BD70B505460E460424E0029C
:100A8000FFF7C5FE0446042C17D139483749886062
:100A9000384888600846006940F0100008612E80E0
:100AA000E002FFF7B4FE0446052C06D02F4800698B
:100AB00041F6EF7108402D490861204670BD2DE9CF
:100AC000F04304464FF6FF763746B046B14604255C
:100AD000E443E6B2C4F30727C4F307484FEA1469B6
:100AE000E802FFF794FE0546042D49D120481F492E
:100AF0008860204888600846006940F0100008615E
:100B0000FF2E06D01C4808300680E802FFF77FFE63
:100B10000546042D08D1FF2F06D017480A3007805C
:100B2000E802FFF774FE0546042D0AD1B8F1FF0F65
:100B300007D011480C30A0F80080E802FFF767FEEC
:100B40000546042D0AD1B9F1FF0F07D00A480E302F
:100B5000A0F80090E802FFF75AFE0546052D0FD0D9
:100B60000248006941F6EF71084007E000200240AA
:100B700023016745AB89EFCD00F8FF1F6649086187
:100B80002846BDE8F08330B5054604244FF43020F4
:100B9000FFF73DFE0446042C41D160485E49886061
:100BA0005F4888600846006940F0200008610846F8
:100BB000006940F0400008614FF43020FFF727FE45
:100BC0000446042C22D15448006941F6DF710840E4
:100BD000514908610846006940F0100008611DB1E4
:100BE00000205049088002E0A5204E4908804FF4BB
:100BF0003020FFF70CFE0446052C10D04648006953
:100C000041F6EF7108404449086108E0052C06D020
:100C10004148006941F6DF7108403F4908612046BC
:100C200030BDF0B505460E46174604243B483A4908
:100C300088603B488860E002FFF7E9FD0446042C29
:100C400019D13548006940F010003349086147F078
:100C5000F800304328433349891C0880E002FFF73D
:100C6000D6FD0446052C06D02B48006941F6EF71ED
:100C70000840294908612046F0BD2748C06980081E
:100C800070472548006A704700202349096801F031
:100C9000200109B1012000E00020704729B11E4A5F
:100CA000126902431C4B1A6104E01B4A1269824319
:100CB000194B1A61704701460020012908D1164AD4
:100CC000D26902F001020AB1012008E0002006E02A
:100CD000114AD2680A400AB1012000E000207047A2
:100CE0000D49C860704704200B49C96801F0010133
:100CF00009B101200EE00849C96801F0040109B1F9
:100D0000022007E00449C96801F0100109B103207D
:100D100000E00420704700000020024023016745E6
:100D2000AB89EFCD00F8FF1F10B50446CC488442D4
:100D300008D10121042000F02DFB0021042000F047
:100D400029FB46E0C748844208D10121082000F071
:100D500021FB0021082000F01DFB3AE0C24884423C
:100D600008D10121102000F015FB0021102000F017
:100D700011FB2EE0BD48844208D10121202000F063
:100D800009FB0021202000F005FB22E0B848844246
:100D900008D10121402000F0FDFA0021402000F0A0
:100DA000F9FA16E0B348844208D10121802000F00E
:100DB000F1FA0021802000F0EDFA0AE0AE4884420A
:100DC00007D10121801500F0E5FA0021A01500F0FF
:100DD000E1FA10BD10B50121084600F0DBFA002150
:100DE000012000F0D7FA10BD2DE9F04102460025A0
:100DF0000026002000230024002791F803C00CF0F7
:100E00000F0591F803C00CF0100CBCF1000F03D0DB
:100E100091F802C04CEA050591F800C0BCF1000F42
:100E200031D0146800202BE04FF0010C0CFA00F3D5
:100E3000B1F800C00CEA03069E4220D183004FF0B7
:100E40000F0C0CFA03F7BC4305FA03FC4CEA04044C
:100E500091F803C0BCF1280F06D14FF0010C0CFA39
:100E600000FCC2F814C00AE091F803C0BCF1480FBE
:100E700005D14FF0010C0CFA00FCC2F810C0401C68
:100E80000828D1D31460B1F800C0BCF1FF0F34DDE5
:100E9000546800202EE000F1080C4FF0010808FA19
:100EA0000CF3B1F800C00CEA03069E4221D1830086
:100EB0004FF00F0C0CFA03F7BC4305FA03FC4CEAA5
:100EC000040491F803C0BCF1280F05D100F1080C0F
:100ED00008FA0CF8C2F8148091F803C0BCF1480F6E
:100EE00007D100F1080C4FF0010808FA0CF8C2F81D
:100EF0001080401C0828CED35460BDE8F0814FF626
:100F0000FF710180022181700421C1707047024687
:100F1000002093680B400BB1012000E000207047D7
:100F20000146886880B2704702460020D3680B40B3
:100F30000BB1012000E0002070470146C86880B274
:100F4000704701617047416170470AB1016100E07B
:100F500041617047C16070474FF480320A4382613B
:100F60008161826182698269704702460020434B39
:100F700018684FF68073184040EA021008433F4B50
:100F8000186070473E49C8617047F0B50A460023B3
:100F900000240021002500F00046B6F1004F02D1E8
:100FA000364EF16901E0354E7168C0F3034583B2F6
:100FB00000F44016B6F5401F08D121F070612F4EA5
:100FC000766826F070662D4F7E6012E000F4801681
:100FD000B6F5801F06D1032606FA05F4A14341F0B9
:100FE000706106E0460D360103FA06F6B14341F0A2
:100FF000706122B1460D360103FA06F6314300F066
:101000000046B6F1004F02D11C4EF16101E01B4ECB
:101010007160F0BD30B500228B071C0F0F2303FA5F
:1010200004F2164B08338C1053F824309343134CBE
:1010300008348D1044F8253023468C1053F82430A2
:101040008C07240F00FA04F423430C4C08348D1051
:1010500044F8253030BD0A49DC3108607047000093
:1010600000080140000C0140001001400014014044
:1010700000180140001C0140002001400000014018
:1010800000002042DF48006840F00100DD490860B0
:1010900008464068DC490840DA494860084600686C
:1010A000DA490840D74908600846006820F48020E3
:1010B00008600846406820F4FE0048604FF41F00B6
:1010C00088607047CF49096821F48031CD4A1160AA
:1010D0001146096821F480211160B0F5803F03D0EA
:1010E000B0F5802F0ED106E0C649096841F4803181
:1010F000C44A116007E0C349096841F4A021C14A0C
:10110000116000E000BF00BF704710B5014600222B
:10111000002300204A11012A02D1BA4C236806E0BC
:10112000022A02D1B74C236A01E0B64C636A01F08F
:101130001F02012494401C400CB1012000E000205B
:1011400010BD38B5002000900024002500BF3120DC
:10115000FFF7DBFF05460098401C00900098B0F5B3
:10116000A06F01D0002DF2D03120FFF7CEFF08B1E3
:10117000012400E00024204638BD01460020A14A99
:10118000106820F0F80040EAC10010607047A049E4
:1011900008607047024600209A4B586820F47C1083
:1011A00042EA01031843974B586070479849086614
:1011B000704701460020934A506820F0030008431E
:1011C000506070478F48406800F00C00704701463F
:1011D00000208C4A506820F0F000084350607047AF
:1011E00001460020874A506820F4E06008435060C0
:1011F000704701460020834A506820F4605040EA5E
:10120000C1005060704729B17E4A527A02437D4B3B
:101210005A7204E07B4A527A82437A4B5A72704780
:101220007B49D8310860704701460020754A5068F4
:1012300020F440400843506070470021714A20323A
:101240001170704A82F82010012802D004280AD1B7
:1012500004E001216B4A2032117005E00521694A42
:101260002032117000E000BF00BF7047694908607C
:1012700070476449096A0143624A116270476549CF
:1012800044390860704730B5002100220024002353
:101290005C4D6D6805F00C0121B1042905D00829C9
:1012A00023D105E05C4D056022E05B4D05601FE049
:1012B000544D6D6805F47012524D6D6805F480341C
:1012C000022505EB92421CB9544D554305600BE0D5
:1012D0004C4D6D6805F400351DB1504D554305600A
:1012E00002E04D4D5543056002E04B4D056000BFE7
:1012F00000BF444D6D6805F0F0010909484D6B5C75
:101300000568DD4045603F4D6D6805F4E061090A00
:10131000434D6B5C4568DD4085603A4D6D6805F472
:101320006051C90A3E4D6B5C4568DD40C560354D76
:101330006D6805F44041890B3A4D6B5CC568B5FB9F
:10134000F3F5056130BD29B12E4A526902432D4B98
:101350005A6104E02B4A526982432A4B5A61704712
:1013600029B1284A92690243264B9A6104E0254A32
:1013700092698243234B9A61704729B1214AD2690D
:101380000243204BDA6104E01E4AD26982431D4BBE
:10139000DA61704729B11B4AD2680243194BDA60FF
:1013A00004E0184AD2688243164BDA60704729B1CC
:1013B000144A12690243134B1A6104E0114A12697C
:1013C0008243104B1A6170471249403908607047D8
:1013D0000F49C86470470B49C87170470948406A93
:1013E00040F0807007494862704701460020054A76
:1013F00092680A400AB1012000E0002070470149CC
:1014000088727047001002400000FFF8FFFFF6FEF0
:10141000000042428004424200127A0000093D006E
:10142000000000201000002010B50446F748844258
:1014300009D101218803FFF7ADFF00214FF480405F
:10144000FFF7A8FF32E0F248844209D101214804A5
:10145000FFF7ADFF00214FF40030FFF7A8FF25E0B4
:10146000EC48844209D101218804FFF7A0FF002144
:101470004FF48020FFF79BFF18E0E748844209D132
:101480000121C804FFF793FF00214FF40020FFF76C
:101490008EFF0BE0E148844208D101210805FFF7E7
:1014A00086FF00214FF48010FFF781FF10BD2DE96A
:1014B000F04786B005460E460024A24600BFA1466E
:1014C0000027B08900B100BF2F462C8A4CF6FF7070
:1014D0000440F08804432C82AC894EF6F31004409B
:1014E000B08831890843718908430443AC81AC8AD0
:1014F0004FF6FF400440B0890443AC8201A8FFF7D7
:10150000C2FEC248874202D1DDF810A001E0DDF83A
:101510000CA0A88900F4004040B10AEBCA0000EB1F
:101520000A1031684900B0FBF1F807E00AEBCA0085
:1015300000EB0A1031688900B0FBF1F86420B8FBB9
:10154000F0F004012009642101FB1089A88900F44E
:10155000004040B1322000EBC900B0FBF1F000F0D8
:101560000700044308E0322000EB09106421B0FBBF
:10157000F1F000F00F0004432C8106B0BDE8F087C5
:101580004FF41651016000218180C18001810C213E
:10159000418100218181704710B502460020108AE8
:1015A0004FF2FF0318400B884C8823438C88234359
:1015B000CC8823431843108210BD00210180418054
:1015C0008180C180704721B1828942F400528281BA
:1015D00004E082894DF6FF731A4082817047F0B5AE
:1015E0000346002400260025002040F66A17B94271
:1015F00000D100BF1846C1F3421401F01F060127B5
:1016000007FA06F5012C01D10C3004E0022C01D1BF
:10161000103000E014301AB107682F43076002E071
:101620000768AF430760F0BD1AB1838A0B4383821A
:1016300002E0838A8B4383827047028A4FF6F073FD
:101640001A400282028A0A430282704782894FF25C
:10165000FF731A40828182890A438281704721B1D7
:10166000828942F00202828104E082894FF6FD7392
:101670001A4082817047028A4FF6DF731A40028255
:10168000028A0A430282704721B1028A42F48042F0
:10169000028204E0028A4BF6FF731A40028270470E
:1016A00002460020B1F5007F00D100BF13880B4037
:1016B0000BB1012000E00020704770B504460D46D4
:1016C000574EC5F30800A08000E0761E802120461A
:1016D000FFF7E6FF08B9002EF7D170BD10B504463C
:1016E00000BF20212046FFF7DBFF0028F9D0A088AB
:1016F000C0F3080010BD818941F00101818170476C
:10170000028BD2B20283028B42EA0122028370472B
:10171000028B02F47F420283028B0A4302837047EA
:1017200021B1828A42F02002828204E0828A4FF64E
:10173000DF731A408282704721B1828A42F0100220
:10174000828204E0828A4FF6EF731A4082827047E9
:1017500021B1828A42F00802828204E0828A4FF636
:10176000F7731A408282704721B1828942F40042A5
:10177000828103E08289C2F30E028281704721B127
:10178000828A42F40062828204E0828A4FF2FF730E
:101790001A4082827047828A4FF6FB731A40828217
:1017A000828A0A438282704721B1828A42F0020211
:1017B000828204E0828A4FF6FD731A40828270476B
:1017C00001F40072B2F5007F00D100BFCA4302806D
:1017D000704770B50246002400230025002040F623
:1017E0006A16B14200D100BFC1F3421501F01F03D8
:1017F000012606FA03F3012D02D19689334013E046
:10180000022D0FD1168A33400EE00000003801404F
:101810000044004000480040004C004000500040A0
:10182000FFFF4F00968A33400C12012606FA04F49B
:101830001688344013B10CB1012000E0002070BDC7
:1018400010B50022002340F66A14A14200D100BF67
:101850000A1201249440A3B2DC43048010BD0000AE
:1018600001684FF6FE721140016000210160416085
:101870008160C1608D49884208D18C490839496826
:1018800041F00F01894A083A51608AE087491431D2
:10189000884208D185490839496841F0F001834AF6
:1018A000083A51607DE081492831884208D17F495A
:1018B0000839496841F470617C4A083A516070E027
:1018C0007A493C31884208D178490839496841F45D
:1018D0007041764A083A516063E074495031884259
:1018E00008D172490839496841F470216F4A083AB1
:1018F000516056E06D496431884208D16B4908391E
:10190000496841F47001694A083A516049E0674901
:101910007831884208D165490839496841F07061D9
:10192000624A083A51603CE06149884206D1011F91
:10193000096841F00F01021F116032E05C49143167
:10194000884208D15A49091F096841F0F001584AF4
:10195000121F116025E056492831884208D15449A8
:10196000091F096841F47061514A121F116018E0A3
:101970004F493C31884208D14D49091F096841F45B
:1019800070414B4A121F11600BE0494950318842A7
:1019900007D14749091F096841F47021444A121FC1
:1019A0001160704710B50022026847F6F0739A4341
:1019B0000C6A8B6823430C6923434C6923438C696D
:1019C0002343CC6923434C6A23438C6A23431A4341
:1019D0000260CB6843600B6883604B68C36010BDD6
:1019E0000021016041608160C160016141618161EC
:1019F000C161016241628162704721B1026842F0B7
:101A00000102026004E002684FF6FE731A400260B1
:101A100070471AB103680B43036002E003688B430D
:101A200003607047416070470146486880B2704764
:101A300001460020002201F080531BB11C4B083BE3
:101A40001A6802E0194B083B1A6802EA01030BB15D
:101A5000012000E00020704700F0805119B11449C6
:101A6000091F086002E011490839486070470146C3
:101A70000020002201F080531BB10D4B083B1A6877
:101A800002E00A4B083B1A6802EA01030BB101208D
:101A900000E00020704700F0805119B10449091F8F
:101AA000086002E0014908394860704708000240B8
:101AB000080402400E49086070470D4948607047AD
:101AC0000B49886070474AF6AA20094908607047A8
:101AD0004CF6CC4006490860704701460020044A95
:101AE000D2680A400AB1012000E0002070470000DF
:101AF0000030004010B50446BE48844208D10121A0
:101B00008014FFF747FC0021A014FFF743FC16E008
:101B1000B948844208D101210014FFF748FC002194
:101B20002014FFF744FC0AE0B448844207D10121A5
:101B3000C013FFF73CFC0021E013FFF738FC10BD99
:101B400010B50022028802F441520B884C882343CE
:101B50008C882343CC8823430C8923434C8923431B
:101B60008C892343CC8923431A430280838B4FF211
:101B7000FF74234083830B8A038210BD2DE9F04F4D
:101B800085B005460C464FF0000902274FF00008CB
:101B90004FF0010B0026B246A88B4FF240010840DF
:101BA000A88302202884B5F81C90A068022801D1DF
:101BB00000BF38E0A08810B94FF0010B01E04FF0F2
:101BC000020B8D48854200D100E000BF6846FFF758
:101BD0005AFBDDF800A0E088B0F5007F0AD14FEA9B
:101BE0001A2000EB80004000A168B0FBF1F0401D1E
:101BF00086B20BE04FEA4B10BAFBF0F000EB80002E
:101C00004000A168B0FBF1F0401D86B20A20B6FB8F
:101C1000F0F606F00108A6EB0800C0F34F074FF6F8
:101C2000FF7000EA0828022F01DBFF2F02DD0227E8
:101C30004FF00008E08840EA080038432884A08874
:101C4000A1890843618808432188084340F4006063
:101C500040EA0909A5F81C9005B0BDE8F08F002105
:101C6000018041808180C180018141818181C18168
:101C70000721018270470021018041808180C1805D
:101C80000221816000218181704721B1028842F0E8
:101C90004002028004E002884FF6BF731A400280BF
:101CA000704721B1828B42F48062828304E0828B90
:101CB0004FF6FF331A408283704730B5002400236B
:101CC0000C110125A540ABB21AB185881D43858052
:101CD00002E085889D43858030BD1AB183880B431F
:101CE000838002E083888B438380704781817047C3
:101CF0000146888970474FF6FF62914204D00288FE
:101D000042F48072028004E002884FF6FF631A40BA
:101D10000280704721B1828842F00402828004E090
:101D200082884FF6FB731A408280704702884FF218
:101D3000FF731A40028002880A43028070470188BC
:101D400041F480510180704721B1028842F4005271
:101D5000028004E002884DF6FF731A40028070474B
:101D600002460020012901D0108B00E0908A7047C4
:101D70000146088A7047B1F5804F04D1028842F4C9
:101D80008042028004E002884BF6FF731A40028012
:101D900070470246002013890B400BB1012000E080
:101DA00000207047CA4302817047F0B50246002008
:101DB00000240023002501F00F070126BE40B4B225
:101DC0000B1101269E40B3B2968806EA03051689D8
:101DD000264016B10DB1012000E00020F0BD10B585
:101DE000002201F00F040123A3409AB2D3430381E0
:101DF00010BD00000030014000380040003C0040B1
:101E00000CB50020019000906C48006840F48030D0
:101E10006A49086000BF6948006800F4003000901B
:101E20000198401C0190009818B90198B0F5A06F76
:101E3000F1D16248006800F4003010B10120009038
:101E400001E0002000900098012843D15C48006820
:101E500040F010005A4908600846006820F003006E
:101E600008600846006840F0020008605348406877
:101E7000524948600846406848600846406840F457
:101E8000806048600846406820F47C10486008463E
:101E9000406840F4E81048600846006840F08070F0
:101EA000086000BF4548006800F000700028F9D0C5
:101EB0004248406820F003004049486008464068B6
:101EC00040F00200486000BF3C48406800F00C0051
:101ED0000828F9D10CBD10B5FFF792FF10BD10B561
:101EE0003648006840F00100344908600846406800
:101EF0003449084031494860084600683249084082
:101F00002E4908600846006820F4802008600846D2
:101F1000406820F4FE0048604FF41F008860FFF71F
:101F2000DAFF4FF000602949086010BD10B50021AC
:101F300000200022214B5B6803F00C0121B1042931
:101F400006D0082928D107E0214B224C236027E046
:101F50001F4B204C236023E0184B5B6803F4701088
:101F6000164B5B6803F48032022303EB904022B9E6
:101F7000194B4343174C23600DE0104B5B6803F48F
:101F8000003323B1144B4343124C236003E0104B46
:101F90004343104C236003E00D4B0E4C236000BF05
:101FA00000BF064B5B68C3F303130C4CE15C094BA9
:101FB0001B68CB40074C236010BD0000001002409E
:101FC000002002400000FFF8FFFFF6FE08ED00E0F1
:101FD00000127A001400002000093D0018000020C3
:101FE00000F03BFC00200449087000F0D7FB01E042
:101FF00000F0B9FCFCE7000028000020704700BF9B
:10200000FEE700BFFEE700BFFEE700BFFEE7704748
:10201000704770477047704710B54FF4805000F01C
:1020200062FD6E4802F039FE6C48C07800F008008E
:1020300020B114214FF4805000F02DFD6748C07886
:1020400000F0100028B132214FF4804000F023FD51
:1020500009E06248C07800F0200020B114214FF45C
:10206000805000F018FD5D4802F017FE1020FEF7CA
:1020700074FB10BD704710B540F225515848FFF76A
:10208000A8FBC8B100205749087003214FF4006035
:1020900000F001FD5248FFF721FB5349534A1278E3
:1020A000885452480078401C5049087040F225512D
:1020B0004B48FFF7C5FB25E040F227714848FFF782
:1020C00088FB01281ED14A4802780078401C484B02
:1020D00018704848815C4248FFF7EFFA444800789E
:1020E0004549097888420DD1002240F227713C48C9
:1020F000FFF775FA00203E4908703F49087001203B
:102100003E49087010BD10B540F225513C48FFF71C
:1021100060FBC8B100203B4908703948FFF7DEFA80
:10212000C1B23948394A1278815438480078401C85
:102130003649087040F225513148FFF781FB1E21D6
:10214000042000F0A8FC47E040F227712C48FFF77C
:1021500040FB10B32E4802780078401C2C4B1870BE
:102160002C48815C2648FFF7A8FA294800782A49BC
:102170000978884230DB002240F227712048FFF7BF
:102180002EFA40F227711E48FFF75AFB012240F257
:1021900026611B48FFF723FA1EE040F2266118482B
:1021A000FFF717FBC0B1002240F226611448FFF789
:1021B00016FA40F226611248FFF742FB0221174847
:1021C000FEF7C1FE00201249087013490870012073
:1021D000134908700B49087010BD7047FC040020BB
:1021E000003801402B000020FC0200202F000020BE
:1021F00033000020FC030020320000202D000020CE
:10220000004400402A0000207C0200202E00002014
:10221000310000207C030020300000200008014035
:102220002C00002010B5FEF72DFF4FF48030FEF794
:1022300049FFFEF786FFFD4908700846007801282F
:1022400026D10020FEF7C3FF0020FEF7D2FF4FF497
:102250008060FEF7C5FF0220FEF788FA1020FEF727
:1022600099FA4FF4E0114FF48030FEF793FF01200C
:10227000FEF79CFF00BF3920FEF747FF0028FAD089
:102280000220FEF796FF00BFFEF79CFF0828FBD157
:102290004FF44040FEF7C8FF01210846FFF760F801
:1022A00010BD08B501213D20FFF75AF84FF48050CA
:1022B000ADF8000010208DF8030003208DF8020017
:1022C0006946DB48FEF790FD2020ADF800001020A5
:1022D0008DF8030003208DF802006946D448FEF70C
:1022E00083FD0120ADF8000048208DF80300694609
:1022F000D048FEF779FD0420ADF800006946CC48CF
:10230000FEF772FD4FF47060ADF800006946CA48F0
:10231000FEF76AFD0121C948FEF737FEC84840684C
:1023200020F02000C64948600420ADF80000482095
:102330008DF803006946C348FEF756FD7820ADF8D6
:10234000000048208DF803006946BB48FEF74CFDAD
:102350000820ADF8000010208DF8030003208DF850
:1023600002006946B248FEF73FFD0821B048FEF77B
:10237000E8FD4FF4E040ADF8000010208DF80300B8
:1023800003208DF802006946AB48FEF72DFD4FF49F
:102390008051A948FEF7D5FD4FF40051A648FEF73D
:1023A000D0FD4FF48041A448FEF7CBFD0320ADF8EB
:1023B000000000208DF8030069469D48FEF714FDDB
:1023C0000320ADF8000000208DF8030069469A480C
:1023D000FEF70AFD1020ADF800008DF80300032081
:1023E0008DF8020069469348FEF7FEFC10219148E3
:1023F000FEF7A7FD1020ADF8000048208DF803007F
:1024000069468B48FEF7F0FC4020ADF80000102034
:102410008DF8030003208DF8020069468448FEF71A
:10242000E3FC0420ADF8000018208DF80300032021
:102430008DF8020069467F48FEF7D6FC0820ADF80B
:10244000000004208DF8030069467A48FEF7CCFCB2
:102450000220ADF8000010208DF8030003208DF855
:10246000020069467348FEF7BFFC4FF40070ADF8F8
:10247000000018208DF8030003208DF80200694643
:102480006C48FEF7B1FC4FF48060ADF8000004200A
:102490008DF8030069466748FEF7A6FC08BD1CB529
:1024A0001020FEF75AF904210220FEF7B3FD102098
:1024B000009000208DF804000C208DF8050001200C
:1024C0008DF806006846FEF7D1F81CBD08B54FF43C
:1024D000A060FDF727FE25208DF8000002208DF872
:1024E000010000208DF8020001208DF803006846ED
:1024F000FDF71DFE26208DF8000001208DF801005B
:1025000000208DF8020001208DF803006846FDF7D9
:102510000EFE0A208DF8000000208DF801008DF8D5
:10252000020001208DF803006846FDF700FE00213F
:102530004FF00060FDF72DFE08BD00B591B0012100
:102540000846FEF700FF01214802FEF709FF3E485A
:10255000FFF786F93D4806903D4807900020089017
:102560000420099000200A9080200B9040000C90DD
:1025700080000D9020200E9000020F9000201090FF
:1025800006A93148FFF70EFA0020019001208DF8CE
:1025900008008DF809004FF460200390002004909B
:1025A00004208DF8140001A928484C38FDF74FFE8F
:1025B000072301220A2125484C38FDF7E0FE0723B6
:1025C0000222082121484C38FDF7D9FE07230322B7
:1025D0000B211E484C38FDF7D2FE072304220921A7
:1025E0001A484C38FDF7CBFE012118484C38FDF74E
:1025F00065FE012115484C38FDF755FE13484C384F
:10260000FDF773FE00BF11484C38FDF773FE00283C
:10261000F9D10E484C38FDF777FE00BF0B484C3817
:10262000FDF777FE0028F9D111B000BD3900002078
:102630000010014000080140000C01400002300081
:10264000002004E000140140080002404C24014036
:102650003A00002000B587B001218803FEF780FE14
:102660000020ADF80400ADF806004FF40070ADF89E
:1026700008000020ADF80A0001A98948FEF78CFF88
:102680004FF4165003900020ADF81000ADF8120082
:10269000ADF81400ADF818000C20ADF8160003A931
:1026A0007F48FEF704FF40F225517D48FFF788F888
:1026B000012240F225517A48FEF791FF0121784826
:1026C000FEF781FF07B000BD1FB501214804FEF7EA
:1026D00054FE4FF4165000900020ADF80400ADF801
:1026E0000600ADF80800ADF80C000C20ADF80A00AB
:1026F00069466C48FEF7DBFE40F225516948FFF75A
:102700005FF8012240F225516648FEF768FF01217B
:102710006448FEF758FF1FBD1FB501218804FEF76E
:102720002CFE4FF4165000900020ADF80400ADF8D8
:102730000600ADF80800ADF80C000C20ADF80A005A
:1027400069465948FEF7B3FE40F225515648FFF757
:1027500037F8012240F225515348FEF740FF01218E
:102760005148FEF730FF1FBD10B50120FEF77EFD7A
:1027700000BF6120FEF7C9FC0028FAD045F2555091
:10278000FFF798F90320FFF798F94FF4FA60FFF785
:1027900097F9FFF798F9FFF79BF910BD00B587B0DF
:1027A000012141F20500FEF7DBFD40480078B8B199
:1027B000A020ADF8040010208DF8070003208DF84C
:1027C000060001A93A48FEF70FFB4020ADF80400CF
:1027D00004208DF8070001A93548FEF705FB37E016
:1027E00000213448FFF751FAE020ADF8040018202A
:1027F0008DF8070003208DF8060001A92C48FEF78C
:10280000F3FA0020ADF808004FF48270ADF80A002A
:102810000020ADF80C00ADF80E000120ADF810005E
:102820004002ADF812003820ADF814000020ADF8D9
:1028300016000720ADF8180002A91E48FFF780F91E
:1028400001211C48FFF721FA01211A48FFF762FA1B
:10285000642002F077FA07B000BD10B5FFF7E2FC84
:10286000FFF71FFDFFF71BFEFFF730FEFFF765FECA
:10287000FFF7F0FEFFF728FFFFF790FFFFF774FF69
:102880000D484FF0E0214861002088610520086173
:1028900000F0C3F841F28831012000F0FCF810BDCF
:1028A000003801400044004000480040380000204B
:1028B0000008014000300140FEFFFF0010B5AA48AB
:1028C000006818B1A848006801F037FF02F094F8DA
:1028D00010BDA54909680143A34A116070472DE95D
:1028E000F0410746012000F03CF9A04800680028AC
:1028F00034D09E48046800262EE00025A088B84207
:1029000002D80020A08002E0A088C01BA080A08880
:1029100040B9E08830B1206820B12068FFF7D9FFC6
:10292000E088A080A08808B1206848B91EB98F4906
:10293000A068086001E0A068B0602546A46801E0D6
:102940002646A4683DB1A88810B92868FFF7C1FFE2
:10295000284602F083FB00BF002CCED1002000F0FF
:1029600000F9BDE8F08170B500240025012000F0D9
:10297000F8F84FF0E02084697D48B4FBF0F47D481E
:102980000068844208D27B480068051B7A480068CA
:1029900028447949086015E076480068844211D9D6
:1029A00040F2654060436FF07F41A1EB80107049B9
:1029B000B0FBF1F06F49096845186F48006828447A
:1029C0006D490860002000F0CCF815B12846FFF7EB
:1029D00086FF012000F0C5F866480460664800687C
:1029E0006649884209D364480068401A6249086011
:1029F00063480068401C62490860002000F0B1F89C
:102A0000FFF75CFF00205849086070BD5C4A1268FF
:102A10000260594A12680A607047002053490860F2
:102A200070470146514A106804E002688A4200D1AA
:102A300002E080680028F8D100BF70472DE9F0411E
:102A400007460E463846FFF7ECFF04461CB1A68049
:102A50002046BDE8F0810C2002F028FB0446A4B11A
:102A60002760A6800020E080A0604048006810B980
:102A70003E48046007E03D48056800E0AD68A8688E
:102A80000028FBD1AC602046E3E70020E1E708B175
:102A900000210160704770B504460D46012000F02A
:102AA00060F829462046FFF7C9FF0646002000F0DF
:102AB00058F80EB1012070BD0020FCE770B5064645
:102AC0000D46012000F04DF829463046FFF7B6FFCD
:102AD000044604B1E580002000F043F80CB1012069
:102AE00070BD0020FCE770B50546012000F039F804
:102AF0002846FFF796FF044614B12046FFF7C7FFAC
:102B0000002000F02EF80CB1012070BD0020FCE781
:102B100070B505460026012000F023F82846FFF78F
:102B200080FF044604B1A688002000F01AF8304661
:102B300070BD70B50025012000F013F80B48046843
:102B400002E0681CC5B2A468002CFAD1002000F095
:102B500008F8284670BD044909688143024A11609B
:102B6000704780F310887047480000204400002020
:102B7000401901005400002050000020005C260590
:102B80004C00002038B50020009002226946FE4823
:102B900001F0B2FF9DF80000FF2803D19DF801006D
:102BA000FF2804D02422F949F74801F0A5FF0222AA
:102BB0006946F74801F0A0FF9DF80000FF2803D107
:102BC0009DF80100FF2804D01822F249F04801F0D6
:102BD00093FF002445E0062094FBF0F1EE4AED4817
:102BE000035D0546601C285C43EA002022F81100C2
:102BF000062094FBF0F1E94A2B46A01C1B5CE01C6C
:102C0000285C43EA002022F81100062094FBF0F033
:102C1000114631F8100000EB80004000062194FBC3
:102C2000F1F1DF4A42F82100062094FBF0F2DD4981
:102C30002B46201D1B5C601D285C43EA002021F808
:102C40001200062094FBF0F031F8100000EB800039
:102C50004000062194FBF1F1D34A42F82100A01D67
:102C6000C4B2182CB7DB0222D049D14801F044FF8E
:102C7000CE480078CF490870CC484078FF2803D16F
:102C80000020CD49087003E0C8484078CA49087060
:102C900038BD2DE9F04106460F4690461D46022EEE
:102CA0001AD1002406E008EB0400385CC34908553B
:102CB000601CC4B2AC42F6DBC14805700221C148B9
:102CC000FEF73FF90120C0490870012240F2277148
:102CD000BE48FEF784FC1AE0012E16D1002406E05F
:102CE00008EB0400385CBA490855601CC4B2AC4219
:102CF000F6DBB84805700020B7490870012240F2A1
:102D00002771B648FEF76BFC01E0BDE8F08100BF1B
:102D1000FBE7F0B502460B46FF24FF25002600BF67
:102D20000BE012F8010B80EA0401AD48405C80EA38
:102D30000504AC48455C701CC6B29E42F1DB44EA17
:102D40000520F0BD2DE9F04107460C462078994951
:102D5000097888427ED139462046FFF7DAFF0028FD
:102D6000F8D16078032843D1E078A17840EA0126C1
:102D70006079217940EA01209B49088020789B49AD
:102D8000087003204870984800784006000E88704C
:102D900008468278964800EB46019448C01C02F031
:102DA000EDF891480088032202EB400081B28F4881
:102DB000FFF7AFFF05468C480088032202EB400076
:102DC0008A4A1554290A88480088042202EB4000E8
:102DD000864A115484480078052202EB4000C1B2B3
:102DE000002375480278814802F031F8BDE8F0818F
:102DF0006078062819D1A07850B9E078032807DC5C
:102E00002079617940EA0120E1787A4A22F81100BC
:102E10007648216801606168416000236648027855
:102E20000821724802F013F8E0E7607810284BD1CF
:102E30006E4821680160A18881800621FFF769FF43
:102E400005466A498D71280AC87100235A480278DC
:102E5000082100E039E0654801F0F9FFE078042836
:102E600001DB012000E00020E178102901DA0121D6
:102E700000E00021084060B1A279E11D454802F060
:102E80007DF818224349424801F0E9FDFFF77AFE38
:102E9000ACE7E078102801DB012000E00020E178B9
:102EA000222901DA012100E00021084060B1A27965
:102EB000E11D364802F062F824223449324801F01C
:102EC000CEFDFFF75FFE91E700BF2078F02859D1D3
:102ED0006078102856D1E078222853D13946204610
:102EE000FFF717FF00284DD1E079412811D0424863
:102EF00021680160A18881800621FFF70AFF05464D
:102F00003D498D71280AC871082300220220FFF76D
:102F1000C0FE26480078FF280DD02448007850B124
:102F200022480078E179884208D1E079402805DC20
:102F3000607AFF2802D0207A1C490870607AFF2846
:102F40000AD1E079412804D018480078E179884214
:102F500002D1A07A1549487002221449144801F0A0
:102F60007EFDFFF70FFE2548007860B1607AFF28EC
:102F70004ED1E079412804D00C480078E1798842AC
:102F800046D13DE045E043E000C0010808060020CE
:102F900000C401085A000020B6000020BE00002036
:102FA000AC060020C6000020D0000020ED0000206C
:102FB00000C8010874000020780000207C03002075
:102FC00030000020000801402C0000200044004098
:102FD000FC030020320000202D00002000380140BA
:102FE0001852000818510008760000202C06002016
:102FF000084C0020004C002008050020EC000020B8
:1030000001F0BEFE4FF4FA614FF48050FFF743FD2C
:1030100000BF00BFEAE610B50346002000BF02E093
:103020001A54441CE0B28842FADB10BD2DE9F0418D
:1030300007460C462078FE49097888427ED13946F9
:103040002046FFF766FE0028F8D16078032843D1B8
:10305000E078A17840EA01266079217940EA0120F0
:10306000F4490880F2480078F3490870032048705A
:10307000F04800784006000E887008468278EF48D5
:1030800000EB4601EC48C01C01F078FFE9480088DD
:10309000032202EB400081B2E748FFF73AFE054603
:1030A000E4480088032202EB4000E34A1554290A51
:1030B000E0480088042202EB4000DF4A1154DD485A
:1030C0000078052101EB4000C3B20022DA4902205A
:1030D000FFF7DFFDBDE8F0816078062818D1A07801
:1030E00050B9E078032807DC2079617940EA0120B3
:1030F000E178D34A22F81100CF4821680160616865
:1031000041600823002201460220FFF7C2FDE1E7EB
:103110006078102839D1C84821680160A188818071
:103120000621FFF7F6FD0546C3498D71280AC871CF
:10313000082300220220FFF7ACFD00E026E0E07843
:1031400004280FDBE07810280CDAA279E11DBD48D5
:1031500001F014FF1822BB49BB4801F080FCFFF7C7
:1031600011FDB7E7E07810280FDBE07822280CDAB1
:10317000A279E11DB54801F001FF2422B349B4480A
:1031800001F06DFCFFF7FEFCA4E700BF2078F028FB
:1031900061D1607810285ED1E07822285BD1394671
:1031A0002046FFF7B6FD002855D1E079412811D01F
:1031B000A14821680160A18881800621FFF7A9FD4F
:1031C00005469D498D71280AC871082300220220F6
:1031D000FFF75FFD9F480078FF280DD09D480078DD
:1031E00050B19C480078E179884208D1E0794028C4
:1031F00005DC607AFF2802D0207A96490870607A50
:10320000FF280AD1E079412804D092480078E1797A
:10321000884202D1A07A8F49487002228D498E4897
:1032200001F01DFCFFF7AEFC8C48007890B1607A8D
:10323000FF280FD1E079412804D086480078E17951
:10324000884207D101F09CFD4FF4FA614FF48050A1
:10325000FFF721FC00BF00BF3CE7F0B504461D4668
:10326000002604EBC40000EB04107D4F07EBC00008
:1032700020F8152000230BE004EBC40000EB041041
:10328000774F07EBC00030F813000644581CC3B258
:103290008B42F1DBB6FBF1F082B21046F0BD30B5E7
:1032A00003460C4600210AE003EBC30000EB0310C9
:1032B0006B4D05EBC00020F81120481CC1B2A142A3
:1032C000F2DB104630BD2DE9F041B2B005460B46A9
:1032D0001446002700210FE0DFF888C13CF81500F4
:1032E000984200DA1846A04200DD20462DF8110071
:1032F00001F1010C0CF0FF016429EDDB00211CE061
:1033000001F1010C0CF0FF0211E03DF811C03DF895
:103310001280C44507DB3DF811603DF812C02DF85E
:1033200011C02DF8126002F1010C0CF0FF02642AAA
:10333000EBDB01F1010C0CF0FF016429E0DB28213B
:1033400006E03DF811C0674401F1010C0CF0FF01EB
:103350003C29F6DB4FF0140CB7FBFCFC1FFA8CF099
:1033600032B0BDE8F08130B53F48007800285DD12B
:103370003E48007800285AD13C4840780028FAD1CD
:10338000002440F219524FF483712046FFF79BFF4F
:1033900005463748005D40B92A4664212046FFF7BC
:1033A0007EFF05460120324908553248035D324808
:1033B000015D2A462046FFF750FF054601202C49B3
:1033C00008552C48005D401C2A4908550846005DF8
:1033D0002949095D884202DB002026490855274813
:1033E0000580012440F219524FF483712046FFF703
:1033F0006AFF05461E48005D40B92A466421204602
:10340000FFF74DFF05460120194908551948035D8E
:103410001948015D2A462046FFF71FFF0546012097
:10342000134908551348005D401C29E02CE182E057
:10343000740000208C00002008050020084C0020AB
:10344000004C00205A00002000C40108080600209B
:1034500000C00108ED00002000C80108EC000020B9
:10346000BC0600203A00002073000020E400002089
:10347000F7000020F3000020EF0000207C00002077
:10348000FE4908550846005DFD49095D884202DB9A
:103490000020FA490855FB480580FB480088FB4995
:1034A0000988884203DAF9480088F7490880F64815
:1034B0004088F4490988884203DAF2480088F249D2
:1034C0004880F3480088B0F57F4F08DAF04800885C
:1034D000ED490988884202DA0020EE490880EC486C
:1034E0004088B0F57F4F08DAE9480088E649498806
:1034F000884202DA0020E7494880E4480078E6493B
:103500000870E2480088000A4870DF480078887038
:10351000DD480088000AC870DA4800780871D94888
:103520000088000A4871D84880788871D648408859
:10353000000AC871A7E0002440F29C5200212046F6
:10354000FFF7C1FE0546D548005D40B92A46642113
:103550002046FFF7A4FE05460120D0490855C7487C
:10356000035DC748015D2A462046FFF776FE054603
:103570000120CA490855C148005D401CBF49085593
:103580000846005DBE49095D884202DB0020BB4958
:103590000855BE4805800088642802DA0020BB492F
:1035A0000880B9480088B9490988884203DAB748D1
:1035B0000088B5490880B5480088B2490880B248FB
:1035C00040880988884203DAAE480088AE494880BE
:1035D000B348007848B90020AF4908704870887037
:1035E000C870087148718871C871AD4800780128A9
:1035F00022D1A7480088B0F57F4F09DAA448008897
:10360000A1490988884203DA0820A2490880488035
:103610009E480078A04908709C480088000A4870BD
:1036200099480078887098480088000AC87000207F
:10363000087148718871C87199480078022822D1B0
:1036400093484088B0F57F4F09DA914840888E4909
:103650004988884203DA08208E4908804880002083
:103660008D49087048708870C87086480078087165
:1036700084480088000A48718348807888718248AD
:103680004088000AC87100BF8648007801287DD1B3
:103690008548807800287AD18348C0780028FAD1FC
:1036A000022440F219524FF483712046FFF70BFEBB
:1036B00005467A48005D40B92A4664212046FFF756
:1036C000EEFD05460120754908556C48035D6C48C0
:1036D000015D2A462046FFF7C0FD054601206F49DF
:1036E00008556648005D401C644908550846005D61
:1036F0006349095D884202DB0020604908556B4838
:103700000580032440F219524FF483712046FFF7DD
:10371000DAFD05466148005D40B92A46642120462D
:10372000FFF7BDFD054601205C4908555348035D80
:103730005348015D2A462046FFF78FFD05460120CC
:10374000564908554D48005D401C4C4908550846EF
:10375000005D4B49095D884202DB0020474908555E
:10376000534805804848808850490988884203DAD0
:103770004E480088444988804348C0884C4909889D
:10378000884206DA4A4800883F4901E001E13AE010
:10379000C8803F488088B0F57F4F08DA3C48808871
:1037A00039498988884202DA00203A4988803848B5
:1037B000C088B0F57F4F08DA3548C0883249C988DB
:1037C000884202DA00203349C880384800783249FC
:1037D000087236480088000A48722B4800798872BF
:1037E00029488088000AC872314800780873304838
:1037F0000088000A48732448807988732248C0886A
:10380000000AC873C4E0022440F29C520021204602
:10381000FFF759FD05462148005D40B92A4664215D
:103820002046FFF73CFD054601201C49085513487A
:10383000035D1348015D2A462046FFF70EFD05464D
:103840000120164908550D48005D401C0B490855DC
:103850000846005D0A49095D884202DB00200749ED
:103860000855124805800088642802DA00200F49B4
:103870000880054880880D4909881BE0F300002076
:10388000EF0000207E000020800000207C0000204F
:10389000B6000020004C0020084C0020F70000205B
:1038A0007900002073000020E40000208800002040
:1038B0008A000020884203DAFE480088FE4988809A
:1038C000FC480088FD490880FB48C0880988884278
:1038D00003DAFA480088F849C880F948007848B9FE
:1038E0000020F849087248728872C87208734873D9
:1038F0008873C873F2480078012822D1F248808882
:10390000B0F57F4F09DAF0488088EB498988884212
:1039100003DA0820ED498880C880E6480078E94944
:103920000872E4480088000A4872E3480079887207
:10393000E1488088000AC8720020087348738873C1
:10394000C873DF480078022822D1DF48C088B0F56C
:103950007F4F09DADC48C088D749C988884203DA32
:103960000820DA498880C8800020D6490872487249
:103970008872C872D14800780873D0480088000A5D
:103980004873CD4880798873CB48C088000AC873D3
:1039900000BFCF480078012803DB0020CC49087025
:1039A00004E0CB480078401CC949087030BD10B510
:1039B0000024FDE3C54830F814000C287ED2DFE86F
:1039C00010F00C004300BC0040028303BB031B0447
:1039D0001C041D0468047D0071050020BD490855C4
:1039E000BD48005D30BB1CB90821BC48FDF7A9FAF1
:1039F000012C03D12103BA48FDF7A3FA022C03D10D
:103A00006103B748FDF79DFA032C04D14FF4005130
:103A1000B348FDF796FAB34830F8140030B11E20D1
:103A2000B14908550020AF4921F814000120AA49E6
:103A3000085508E0AC48005D012804DBAA48005D99
:103A4000401EA94908553EE30020A2490855A64852
:103A5000005D002867D1A54850F8240030B1A34884
:103A600050F82400401EA14941F824009F4850F816
:103A70002400E8BB1CB908219848FDF764FA012C22
:103A800003D121039648FDF75EFA022C03D16103AE
:103A90009348FDF758FA032C04D14FF40051904895
:103AA000FDF751FA924850F8240070B1904850F850
:103AB00024009049884208D88D4800E0FEE350F881
:103AC0002400401E8A4941F82400894850F8240007
:103AD00070B900207D4921F81400874830F814009F
:103AE00000EB80004000824941F82400834800E058
:103AF00007E030F8140000EB800040007B4941F8FB
:103B00002400784830F81400012809D001207549B4
:103B100021F814000020684921F81400784908555C
:103B200000206D4908557048005D012804DB6E488F
:103B3000005D401E6C49085585E701206549085520
:103B4000002C6CD16F48005D022868D06E48007868
:103B5000002874D16549601C51F8200000285FD10D
:103B600000BF08215D48FDF7ECF94FF480515C4837
:103B7000FDF7E9F900BF0120634948700020614961
:103B8000085562480078022804D000204A4948803D
:103B90005B49487002205D4908705549601C51F826
:103BA000200070B1601C51F820005249884208D8AA
:103BB0004F49601C51F82000401E0A46611C42F823
:103BC00021004B49601C51F8200000285DD14E496E
:103BD000487002204B4908554749601C31F81000D5
:103BE00000EB80004100424A601C42F8201043492B
:103BF00031F8100000EB800041003C4A601C42F8A4
:103C0000201000BF08213548FDF79BF94FF4805183
:103C10003348FDF796F900BF00203C49087034E0B6
:103C20003249601C51F8200078B3601C51F8200024
:103C3000401E0A46611C42F8210026E0FFE70020F2
:103C40003149087001202F4908552B4830F81400DD
:103C500000EB80004000264941F82400274830F856
:103C6000140000EB80004000204941F8240000BF10
:103C700008211A48FDF765F94FF480511848FDF7FF
:103C800060F900BF002021490870022C7DD11D4839
:103C9000005D022879D01C488078002876D113492D
:103CA000601C51F82000002871D100BF61030C484E
:103CB0002EE0000088000020800000208A00002004
:103CC0007A000020084C0020B6000020004C0020A4
:103CD00073000020E400002092000020001001404A
:103CE000000C0140A60000208E000020AC06002041
:103CF000D000002000F60900C6000020BE00002011
:103D0000F7000020E0000020E800002079000020FB
:103D1000FDF717F92103FA48FDF715F900BF012057
:103D2000F849C8700020F8490855F848007802287A
:103D300004D00020F649C880F649C8700220F34933
:103D40000870F549601C51F8200070B1601C51F8F2
:103D50002000F249884208D8EF49601C51F8200041
:103D6000401E0A46611C42F82100EB49601C51F8D4
:103D7000200050B90020E349C8700220E2490855EC
:103D8000E749601C31F8100002E057E02FE020E026
:103D900000EB80004100E04A601C42F82010E1493D
:103DA00031F8100000EB80004100DF4A601C42F84F
:103DB000201000BF4FF48041D148FDF7C2F84FF406
:103DC0000051CF48FDF7BDF800BF0020CF49087073
:103DD00034E0D549601C51F8200078B3601C51F8DC
:103DE0002000401E0A46611C42F8210026E0002007
:103DF000C44988700120C4490855C94830F81400E6
:103E000000EB80004000C44941F82400C54830F868
:103E1000140000EB80004000C34941F8240000BFBB
:103E20004FF48041B648FDF78CF84FF40051B44888
:103E3000FDF787F800BF0020B4490870601CC4B2C9
:103E400001E60120B9490855002C65D1AE48005D56
:103E5000012861D0AB484078E8BBB34850F8240053
:103E6000D0BB00BF0821B248FDF76DF84FF4805178
:103E7000A348FDF766F800BF0120A24908700020A2
:103E8000A1490855AB480078012804D00020A0497A
:103E90000880A04908700120A64908709E4850F883
:103EA000240060B19C4850F824009C49884206D800
:103EB000994850F82400401E974941F8240096483C
:103EC00050F8240040BB00208E49087001208E4924
:103ED0000855934801E02CE01FE030F8140000EB97
:103EE000800040008C4941F824008E4830F81400CE
:103EF00000EB800040008C4941F8240000BF0821FD
:103F00008B48FDF71EF84FF480517D48FDF719F8F6
:103F100000BF00208749087034E0834850F824002F
:103F200080B3814850F82400401E7F4941F82400A6
:103F300028E00020734948700220734908557849E9
:103F4000601C31F8100000EB80004100724A601CD8
:103F500042F82010734931F8100000EB8000410056
:103F6000714A601C42F8201000BF08217048FCF71D
:103F7000E8FF4FF480516248FCF7E3FF00BF0020E8
:103F80006C490870022C65D15F48005D012861D042
:103F90005C48C078F0BB644850F82400D8BB00BF30
:103FA00061035748FCF7CFFF21035548FCF7C9FFD1
:103FB00000BF0120534988700020534908555348D9
:103FC0000078012804D00020514988805149887028
:103FD00001204E490870504850F8240060B14E4806
:103FE00050F824004D49884206D84B4850F8240028
:103FF000401E494941F82400474850F8240048BB76
:1040000000204049887001203F490855444830F855
:10401000140001E02BE01EE000EB800040003E4970
:1040200041F824003F4830F8140000EB80004000C5
:104030003D4941F8240000BF4FF480413048FCF76F
:1040400080FF4FF400512E48FCF77BFF00BF00209B
:104050002E49087035E0344850F8240088B33248BF
:1040600050F82400401E304941F8240029E0002087
:104070002449C8700220244908552949601C31F898
:10408000100000EB80004100234A601C42F8201021
:10409000244931F8100000EB80004100224A601CE6
:1040A00042F8201000BF4FF480411548FCF749FF4B
:1040B0004FF400511248FCF744FF00BF00201349A1
:1040C0000870601CC4B227E30020184908551CB9C9
:1040D00008211748FCF735FF012C03D121030848BC
:1040E000FCF72FFF022C03D161030548FCF729FFE1
:1040F000032C04D14FF400510148FCF722FF0BE3DD
:10410000000C0140E8000020E00000207A000020C0
:1041100080000020F7000020D000002000F60900F9
:10412000C6000020BE000020AC060020E4000020F5
:1041300000100140790000200020FE490855FE488B
:1041400050F8240060B1FC4850F82400401EFA49A1
:1041500041F824000020F94921F81400F8490855D5
:10416000F54850F82400E8BB1CB90821F548FCF7D5
:10417000EAFE012C03D12103F348FCF7E4FE022CF4
:1041800003D16103F048FCF7DEFE032C04D14FF4A9
:104190000051ED48FCF7D7FEEC4850F8240070B110
:1041A000EA4850F82400EA49884208D8E74800E085
:1041B000B5E250F82400401EE44941F82400E348E9
:1041C00050F8240070B90420E24921F81400E248B4
:1041D00030F8140000EB80004000DC4941F8240076
:1041E000DE4800E007E030F8140000EB80004000FB
:1041F000D14941F824008FE28EE28DE20120CD49C1
:104200000855D748005DB8BB6CB900BF0821CD4840
:10421000FCF797FE4FF48051CB48FCF792FE00BFAD
:104220000020D0490870022C0CD100BF6103C648A1
:10423000FCF787FE2103C448FCF783FE00BF002083
:10424000C9490870C34830F81400C84931F814103F
:10425000884208D01E20C6490855BE4830F81400D0
:10426000C24921F814000120BD4908550020C14968
:104270000855C149085509E0FFE7BD48005D012820
:1042800004DBBB48005D401EB9490855601CC4B240
:1042900042E20120A7490855B44830F814000B2821
:1042A00026D17CB900BF0821A648FCF74AFE4FF48E
:1042B0008051A548FCF745FE00BF00E02BE200203E
:1042C000A8490870022C0CD100BF61039E48FCF77E
:1042D00038FE21039C48FCF734FE00BF0020A249B1
:1042E00008703220A24908550920A04921F814007D
:1042F0009F48005D00287DD19F48005D18B19D4812
:10430000005D022876D1E4BB9C48005D012850D0B6
:1043100000BF08218B48FCF716FE4FF480518A48F5
:10432000FCF70FFE00BF914830F81400092803D0B5
:1043300009208E4921F814008A480078012804D009
:1043400000207E4908807E49087001208549087058
:104350007E4850F8240060B17C4850F824007C4925
:10436000884206D8794850F82400401E774941F821
:104370002400764850F8240018B900BF082171487D
:1043800000E016E0FCF7DDFD4FF480516E48FCF7CD
:10439000D8FD00BF002073490870012077490855F7
:1043A0006D4830F8140000EB80004000674941F888
:1043B0002400022C54D17148005D012850D000BF68
:1043C00061036148FCF7BFFD21035F48FCF7B9FDBD
:1043D00000BF664830F81400092803D0092063495B
:1043E00021F8140060480078012806D000205349C5
:1043F000888000E03DE05249887001205A490870E9
:10440000524850F8240060B1504850F824005049F8
:10441000884206D84D4850F82400401E4B4941F8C8
:1044200024004A4850F82400D0B900BF4FF480411E
:104430004548FCF786FD4FF400514348FCF781FDE9
:1044400000BF00204849087001204C4908554248E7
:1044500030F8140000EB800040003C4941F8240093
:1044600000203F4908550220424908551E20424974
:1044700008553F48005D012804DB3D48005D401EB3
:104480003B4908553B48005D022808D03A48005D8A
:10449000012804DB3848005D401E37490855601C80
:1044A000C4B239E1012023490855304830F81400DE
:1044B000092824D16CB900BF08212248FCF741FD2E
:1044C0004FF480512048FCF73CFD00BF00202549F7
:1044D0000870022C0CD100BF61031B48FCF731FDB2
:1044E00021031948FCF72DFD00BF00201E4908706C
:1044F00032201F4908550B201C4921F814001C4884
:10450000005D00287ED11C48005D18B11948005D8F
:10451000012877D1A4BB1948005D02287ED000BFD6
:1045200008210848FCF70DFD4FF480510648FCF7C0
:104530000AFD26E0E4000020AC06002080000020F8
:10454000F700002000100140000C0140D0000020C6
:1045500000F60900004C0020C6000020BE0000202C
:104560009A000020790000207A000020AE00002090
:1045700096000020A20000209E000020E000002005
:104580004CE000BFFC4830F814000B2803D00B208F
:10459000F94921F81400F9480078022804D00020D5
:1045A000F7494880F74948700220F4490870F649F5
:1045B000601C51F8200070B1601C51F82000F349D4
:1045C000884208D8F049601C51F82000401E0A4675
:1045D000611C42F82100EC49601C51F82000E8B948
:1045E00000BF0821EA48FCF7ACFC4FF48051E948D1
:1045F000FCF7A7FC00BF0020E04908700220E64954
:10460000085500E06EE0E549601C31F8100000EB51
:1046100080004100DC4A601C42F82010022C58D176
:10462000DD48005D022854D000BF6103D948FCF783
:1046300088FC2103D748FCF786FC00BFCE4830F841
:1046400014000B2803D00B20CB4921F81400D448C8
:104650000078022804D00020C949C880C949C87020
:104660000220CF490870C849601C51F8200070B181
:10467000601C51F82000C549884208D8C249601C16
:1046800051F82000401E0A46611C42F82100BE4934
:10469000601C51F82000E0B900BF4FF48041BD48D4
:1046A000FCF74FFC4FF40051BA48FCF74AFC00BF3E
:1046B0000020BB4908700220B7490855B749601C63
:1046C00031F8100000EB80004100AF4A601C42F856
:1046D00020100020B34908550120B34908551E2079
:1046E000B2490855B248005D012804DBB048005DBE
:1046F000401EAF490855AC48005D012808D0AB48C2
:10470000005D012804DBA948005D401EA74908554B
:10471000601CC4B200E000BF00BF601CC4B2032C28
:104720007FF748A910BD10B50121A248FDF765F932
:104730000121A148FBF7F7FD10BD7CB5044604F04C
:10474000010000284CD002219C48FCF7FCFB2021F2
:104750008F48FCF7F8FBFEF715FAFFF7E4FF7B2024
:10476000FCF7D3FCF0B100BF08218948FCF7E9FB56
:104770004FF480518748FCF7E4FB00BF00BF4FF4C3
:1047800080418448FCF7DDFB4FF400518148FCF781
:10479000D8FB00BF8A480021016041601021894890
:1047A00000F005FCFCF71AFE8748007838B100F0ED
:1047B000E7FA4FF4FA614FF48050FEF76CF94FF4CA
:1047C000FA614FF48070FEF766F94FF47A711020A9
:1047D000FEF761F942F210714FF40040FEF75BF909
:1047E00020216B48FCF7A0FBC0F10100C5B22A46AE
:1047F00020216748FCF7A9FB04F0100028B1FFF75F
:10480000D6F864211020FEF746F904F48070C8B190
:1048100000206E490870FEF7A6FD4FF496714FF424
:104820008070FEF738F96A480078FA2805DC684895
:104830000078401C6649087004E0012000F0E0F8B0
:1048400000F0E3F804F0020038B10120614908707B
:10485000614962480078FEF7E9FB04F00400A8B162
:104860005F480078401E5F49087001205C4908706D
:104870005C480078594908705A480278411C5648EB
:1048800000F07CFB03210220FEF705F904F48050C0
:10489000E0B100205449087000225448017854487F
:1048A000FEF7B9FB002141F20D2000F072FA012160
:1048B00041F20E2000F06DFA032000900823002240
:1048C000114601904B48007800F0FCFA04F4804057
:1048D000E0B14FF480512E48FCF726FBC0F10100F7
:1048E000C5B22A464FF480512948FCF72EFB4048B8
:1048F00000F01EFB3D4908703D493C480078FEF73A
:1049000021FA32214FF48050FEF7C5F804F400403C
:1049100088B300202E4908702C480078322805DC26
:104920002A480078401C2949087004E0012000F062
:1049300067F800F06AF82C480078B42805DC2A48AB
:104940000078401C284908700FE001201E490870BB
:10495000002025490870FEF715F900F011FA4FF410
:10496000FA614FF48050FEF796F842F210714FF45E
:104970000040FEF790F87CBDAE00002079000020DA
:1049800080000020F7000020D000002000F6090081
:1049900000100140000C0140E0000020C600002093
:1049A0007A0000209A000020A20000209E00002033
:1049B0009600002008000240002401400008014049
:1049C000004C0020084C0020EC000020FB000020E0
:1049D000FC0000202A00002088050020590000204B
:1049E0002E0000207C020020FD000020340000206A
:1049F0007C0400207800002010B5FDF764F810BD9D
:104A000000F0010181F3138870470648006800F444
:104A1000E06005490843001D02490860BFF3408F6C
:104A200000BFFEE70CED00E00000FA05F8B5064611
:104A30000C46154604200090002708E021883046E7
:104A4000FBF7FBFF0090B81C87B2B61CA41CAF425A
:104A500003DA9DF800000428F0D02846F8BD2DE9BF
:104A6000F04FA1B00646894614460025A84604200A
:104A70000090FBF7A0FE4FEA962A4FEA8A2AC6F377
:104A8000090BCBF58067BC4202D84FF001080AE061
:104A9000E51BC5F3090018B9012000EB952802E0D9
:104AA000022000EB9528002505E00AEB8520FBF7A6
:104AB000C1FE00906D1C4545F7D39DF80000042809
:104AC00004D04FF0FF3021B0BDE8F08F22464946B8
:104AD00001A800F053FA04F0010010B104F101083C
:104AE00000E0A0461FFA88F201A93046FFF79EFFBA
:104AF000FBF76EFE2046E6E710B50346002003E014
:104B000013F8014B0C54401C9042F9DB10BD00001F
:104B1000704700EB8002910000E0491E0029FCD1A3
:104B2000704770B50446FA48007850B30025002657
:104B300023E004F0800020B18021F648FCF701FA60
:104B400003E08021F348FCF7FEF96006040E6806D6
:104B5000050E2021EF48FCF7F4F91420FFF7D9FFE8
:104B60004021EC48FCF7D3F908B145F001052021BC
:104B7000E848FCF7E8F9701CC6B2082ED9DB2846D5
:104B800070BD00BF0221E448FDF703F90028F9D009
:104B90002146E148FDF7AAF800BF0121DE48FDF7F4
:104BA000F8F80028F9D0DC48FDF7A2F8C0B2E7E732
:104BB00010B54FF47A70D949086000BF1021D5486C
:104BC000FCF7C1F94420FFF7ACFF0020FFF7A9FF75
:104BD00004461021CF48FCF7B4F9FCF774FFCF4826
:104BE0000068401ECD490860FF2C03D008460068CD
:104BF0000028E3D1C948006810B90020C8490870EE
:104C000010BD70B504460D46FFF7D2FF1021C14814
:104C1000FCF799F94420FFF784FF04E00020FFF738
:104C200080FF04F8010B2800A5F10101CDB2F5D1F8
:104C30001021B848FCF785F970BD70B504460D46E3
:104C4000FFF7B6FF1021B348FCF77DF903E014F835
:104C5000010BFFF766FF2800A5F10101CDB2F6D1E7
:104C60001021AC48FCF76DF970BD08B534208DF803
:104C7000000002208DF8010002216846FFF7DDFFE9
:104C800008BD08B534208DF8000008208DF801001B
:104C900002216846FFF7D1FF08BD38B50446202041
:104CA0008DF8000000208DF801008DF802008DF8CD
:104CB000030004216846FFF7C0FF09212046FFF7E3
:104CC000A0FF38BD2DE9FE4F04460D4616461F468F
:104CD000DDE90D9ADDF8308013208DF800008DF8A5
:104CE00001408DF802508DF803608DF804708DF846
:104CF00005808DF806908DF807A008216846FFF71B
:104D00009CFF08216846FFF77CFFBDE8FE8F3EB59B
:104D1000002408E0601C84B2824908192946FFF784
:104D20008CFF601984B27F48055D002DF2D1002010
:104D30006722CDE900206023612201460290FFF73F
:104D4000C1FF3EBD01464FF4FA5201FB02F000E004
:104D5000401E0028FCD1704710B540217248FCF776
:104D6000F0F80A20FFF7D5FE40216F48FCF7EBF87A
:104D700010216848FCF7E5F80A20FFF7E3FF10BDB3
:104D800010B5FFF7E9FFFFF7C2FF6848FFF785FF9F
:104D900010BD7CB504460D4611208DF80000201290
:104DA0008DF8010001208DF80200E0B28DF80300BB
:104DB0008DF8045005216846FFF73FFF7CBD38B5EC
:104DC000044612208DF800008DF8010002208DF8B5
:104DD00002000D208DF8030004216846FFF72DFF27
:104DE00003212046FFF70DFF38BD08B515208DF8CB
:104DF000000002208DF8010002216846FFF71DFF28
:104E000008BD08B515208DF8000001208DF80100BF
:104E100002216846FFF711FF08BD38B5044601209E
:104E2000009001216846FFF708FF08212046FFF7A0
:104E3000E8FE38BD38B504463320009001216846AD
:104E4000FFF7FBFE03212046FFF7DBFE38BD2DE90F
:104E5000FC4105460C4616461F46A046FFF7C5FF17
:104E6000FFF7CFFFFFF701FF10212A48FCF76BF88F
:104E70006620FFF756FE08F1010000F0FF0820460B
:104E8000FFF74FFE03E015F8010BFFF74AFE200085
:104E9000A4F10101CCB2F6D110211E48FCF751F863
:104EA00031208DF800008DF801608DF8027000202F
:104EB0008DF803008DF8048005216846FFF7BDFEDC
:104EC000BDE8FC812DE9FC4705460F4614461E4609
:104ED000DDE90A89FFF789FFFFF793FF32208DF89C
:104EE00000008DF801508DF8027020128DF803003B
:104EF000E0B28DF804008DF805608DF806808DF81D
:104F0000079008216846FFF798FEBDE8FC8700007F
:104F10000001002000080140003001407002002024
:104F2000EC0000200101002000100140DC090020FD
:104F300070B50446FFF799FEFFF73AFE10210E48C0
:104F4000FCF701F87720FFF7ECFD0020FFF7E9FD03
:104F500005462E4604E00020FFF7E3FD04F8010BB0
:104F60002800A5F10101CDB2F5D110210248FBF7CF
:104F7000E8FF304670BD00000008014040EA010330
:104F80009B0703D009E008C9121F08C0042AFAD2FF
:104F900003E011F8013B00F8013B521EF9D27047C3
:104FA000D2B201E000F8012B491EFBD2704700226B
:104FB000F6E710B513460A4604461946FFF7F0FF18
:104FC000204610BD064C074D06E0E06840F00103A6
:104FD00094E8070098471034AC42F6D3FBF78AF800
:104FE0001C5300083C53000870B58C1810F8015B86
:104FF00015F0070301D110F8013B2A1106D110F872
:10500000012B03E010F8016B01F8016B5B1EF9D175
:105010002B0705D40023521E0DD401F8013BFAE7FB
:1050200010F8013BCB1A921C03E013F8015B01F866
:10503000015B521EF9D5A142D8D3002070BD02E019
:1050400008C8121F08C1002AFAD170477047002013
:1050500001E001C1121F002AFBD1704710B50028E2
:1050600021D0114B0022001F196803E0814203D8B0
:105070000A4649680029F9D152B11368841A9C4242
:1050800004D1006818441060104602E0506000E04F
:10509000186039B102680B1A934203D10B681A44A5
:1050A00002604968416010BD74020020F0B50B3009
:1050B000154D20F007010024144A0FE003688B42CD
:1050C0000BD38B4205D95E1A43184768C3E90067C2
:1050D00000E04368136002C004E0021D106800286D
:1050E000ECD12046002802D1286808B10020F0BD8C
:1050F000064A07481060074A121A22F00702C0E960
:10510000002401202860D7E77802002074020020E4
:10511000EC090020E80B002000C0C101C30302C25B
:10512000C60607C705C5C404CC0C0DCD0FCFCE0EE7
:105130000ACACB0BC90908C8D81819D91BDBDA1A57
:105140001EDEDF1FDD1D1CDC14D4D515D71716D6C7
:10515000D21213D311D1D010F03031F133F3F23237
:1051600036F6F737F53534F43CFCFD3DFF3F3EFEA7
:10517000FA3A3BFB39F9F83828E8E929EB2B2AEA17
:10518000EE2E2FEF2DEDEC2CE42425E527E7E62687
:1051900022E2E323E12120E0A06061A163A3A262F7
:1051A00066A6A767A56564A46CACAD6DAF6F6EAE67
:1051B000AA6A6BAB69A9A86878B8B979BB7B7ABAD7
:1051C000BE7E7FBF7DBDBC7CB47475B577B7B67647
:1051D00072B2B373B17170B05090915193535292B7
:1051E00096565797559594549C5C5D9D5F9F9E5E27
:1051F0005A9A9B5B99595898884849894B8B8A4A97
:105200004E8E8F4F8D4D4C8C448485458747468606
:10521000824243834181804000C1814001C080417E
:1052200001C0804100C1814001C0804100C1814076
:1052300000C1814001C0804101C0804100C1814066
:1052400000C1814001C0804100C1814001C0804156
:1052500001C0804100C1814001C0804100C1814046
:1052600000C1814001C0804100C1814001C0804136
:1052700001C0804100C1814000C1814001C0804126
:1052800001C0804100C1814001C0804100C1814016
:1052900000C1814001C0804101C0804100C1814006
:1052A00000C1814001C0804100C1814001C08041F6
:1052B00001C0804100C1814000C1814001C08041E6
:1052C00001C0804100C1814001C0804100C18140D6
:1052D00000C1814001C0804100C1814001C08041C6
:1052E00001C0804100C1814001C0804100C18140B6
:1052F00000C1814001C0804101C0804100C18140A6
:1053000000C1814001C0804100C1814001C0804195
:1053100001C0804100C18140046400003C5300088A
:10532000000000207C020000E84F0008A0540008A4
:105330007C0200206C0D00004E500008412D01023F
:105340000304041009060708090204060884A24A97
:105350000469185A01017918011F120123FFFF1A6D
:10536000FF01E906013C5A0802294C4950618910A5
:10537000BCF0FF0F04B9941CFFFF3201C9141407DD
:1053800002012701C9C38008132461606713061155
:1053900012021252130511100801036006110102D6
:1053A00017013808110204230A09150D11100913F9
:1053B0000814430F311509111105100A03053E0B9E
:1053C0001A0B1112071C8401088310090210111214
:1053D0000C080A01133030140106823A3F11B3144D
:1053E000222911C2209E0D1112092C1F13200C120C
:1053F000031E07061A80059A1110120505112001D7
:105400000C760C112008180180080380100D202054
:105410000D112009220177015D862810AF02C20B11
:105420001120072C0436801D1004802D2B35E2201E
:1054300015381152521A1A932A2A0E1642A402D66D
:10544000832DAD0180FF222B4C03062B4E40061707
:10545000510A1011210C280DA28126AF3FEEC8C7BA
:10546000DBF20208115F0C070315FC0F1729114A24
:10547000181C4917150811220413087F163D0B113B
:105480002307D00C2C0E0B040C73031011300C15D9
:105490000C114008000910380DDDDD444420FE00E9
:04000005080000ED02
:00000001FF
