:020000040800F2
:100000003813002001010008FD1F0008FF1F000831
:1000100003200008072000080B2000080000000053
:100020000000000000000000000000000F20000899
:10003000112000080000000013200008152000080F
:100040001B0100081B0100081B0100081B01000820
:100050001B0100081B0100081B0100081B01000810
:100060001B0100081B010008192000081B010008E3
:100070001B0100081B0100081B0100081B010008F0
:100080001B0100081B0100081B0100081B010008E0
:100090001B0100081B0100081B0100087520000857
:1000A0001B0100081B0100081B0100081B010008C0
:1000B0001B0100081B0100081B0100081B010008B0
:1000C0001B0100081B0100081B0100081B010008A0
:1000D0001B0100087720000807210008E52100081F
:1000E000172000081B0100081B010008DFF80CD0D6
:1000F00005F016FF00480047E11F000838130020F4
:100100000648804706480047FEE7FEE7FEE7FEE7B1
:10011000FEE7FEE7FEE7FEE7FEE7FEE7DF1E00087C
:10012000ED00000831490143314A1160704770B554
:10013000002100230F22C47804B32D4C246804F45A
:10014000E064C4F5E064210AC1F10403CA404478C4
:1001500004FA03F18478144021430901254C067800
:10016000A155047804F01F050124AC4005786D11F9
:10017000AD0005F1E025C5F8004109E0047804F080
:100180001F050124AC401C4D0678761145F8264029
:1001900070BD1A4A0A400243154B1B1F1A60704774
:1001A00039B1134A121D12680243114B1B1D1A600C
:1001B00006E00F4A121D126882430D4B1B1D1A6088
:1001C0007047042808D14FF0E021096941F004018B
:1001D0004FF0E022116107E04FF0E021096921F0C2
:1001E00004014FF0E0221161704700000000FA05A1
:1001F0000CED00E000E400E080E100E080FFFF1F84
:1002000010B50446FA48844208D10121401501F096
:10021000C1F80021601501F0BDF817E0F5488442EF
:1002200008D10121001501F0B5F80021201501F0D9
:10023000B1F80BE0F048844208D10121C80301F075
:10024000A9F800214FF4004001F0A4F810BD30B52A
:100250000246002000235068E84C20400D790C68CD
:1002600044EA0524204350609068E54C2040D1E9E1
:1002700002542C434D7944EA450420439060D06AEF
:1002800020F470000C7C641EE4B2234340EA035067
:10029000D06230BD00210160017141718160C16097
:1002A00001210174704721B1826842F0010282602D
:1002B00003E0826822F001028260704721B1826807
:1002C00042F48072826003E0826822F4807282606D
:1002D000704710B50023CBB21AB144681C43446088
:1002E00002E044689C43446010BD816841F008010D
:1002F00081607047014600208A6802F008020AB156
:10030000012000E000207047816841F00401816015
:100310007047014600208A6802F004020AB10120F9
:1003200000E00020704721B1826842F4A0028260A0
:1003300003E0826822F4A002826070470146002038
:100340008A6802F480020AB1012000E000207047B0
:1003500010B50A4600210023416821F46041531E74
:1003600041EA4331416010BD21B1426842F400626C
:10037000426003E0426822F4006242607047F0B5D8
:1003800004460D4600200021092D11DDE068A5F18D
:100390000A0606EB4607072606FA07F18843A5F189
:1003A0000A0606EB460603FA06F10843E0600CE095
:1003B000206905EB4507072606FA07F1884305EB98
:1003C000450603FA06F108432061072A0FDA606B3D
:1003D000561E06EB86071F2606FA07F18843561EAF
:1003E00006EB860605FA06F10843606322E00D2A53
:1003F0000FDA206BD61F06EB86071F2606FA07F1D9
:100400008843D61F06EB860605FA06F108432063EB
:1004100010E0E06AA2F10D0606EB86071F2606FA39
:1004200007F18843A2F10D0606EB860605FA06F1F0
:100430000843E062F0BD21B1826842F4801282601C
:1004400003E0826822F48012826070470146C86C23
:1004500080B2704766484C300068704721B14268EE
:1004600042F48062426003E0426822F480624260AB
:10047000704721B1426842F48052426003E0426812
:1004800022F48052426070470A460021816821F4BC
:10049000E04111438160704721B1826842F400421B
:1004A000826003E0826822F400428260704721B1DA
:1004B000826842F40212826003E0826822F402122F
:1004C00082607047014600208A6802F400120AB177
:1004D000012000E000207047F0B5044615460020DA
:1004E00000220026092911DDE068A1F10A0707EBC7
:1004F000470C072707FA0CF29043A1F10A0707EB14
:10050000470703FA07F21043E0600CE0206901EBB3
:10051000410C072707FA0CF2904301EB410703FA5D
:1005200007F210432061A06BC0F30156EF1C06F1E7
:10053000010CA7EB0C0707EB870C1F2707FA0CF23F
:100540009043EF1C06F1010CA7EB0C0707EB8707A4
:1005500001FA07F21043A063F0BD10B50A4600216E
:100560000023816B21F44011531E41EA0351816342
:1005700010BD08B5002300930090009B0B4400932E
:10058000009B1A6008BD08B502460020009000924A
:1005900001F12800009B184400900098006880B288
:1005A00008BD0A4600214168164B194011434160BD
:1005B00070474162826270470A460021416821F01B
:1005C0001F0111434160704740B109490831096872
:1005D00041F40001064A0832116007E0044908317D
:1005E000096821F40001024A0832116070470000D6
:1005F0000024014000280140003C0140FFFEF0FFC4
:10060000FDF7F1FFFFFD3FFF0246002013680B409E
:100610000BB1012000E000207047CA430260704720
:1006200070B502460020002300240B125568CEB29C
:1006300005EA060415681D4015B10CB1012000E063
:10064000002070BD00220A12D343036070470000EF
:10065000002044490860091D0860091D0860091D43
:10066000086041483F4914310860704700213D4906
:100670008279002A3AD00A46126803689A430B46E8
:100680001A600A1D126803689A430B1D1A600279EA
:1006900011440A6803681A430A60324A0832126831
:1006A00003689A432F4B08331A601A1D12680368B7
:1006B0009A432C4B0C331A604279102A0ED11A1F20
:1006C000126803681A43274B08331A601A1D126810
:1006D00003681A43234B0C331A600DE02149427919
:1006E00011440A6803681A430A6005E0027911445C
:1006F0000A6803689A430A6070470021016001712B
:100700000C2141710021817170471649103109682F
:100710000143144A10321160704701460020114A0B
:10072000143212680A400AB1012000E0002070472C
:100730000C49143108607047014600200022094B23
:100740001B6803EA0102074B14331B680B4013B10B
:100750000AB1012000E0002070470249143108600E
:100760007047000000040140FFFF0F000146002019
:10077000FE4A106800F03800084310607047FB49DB
:10078000096821F00801F94A11601146096801431E
:1007900011607047F549096821F01001F34A1160B2
:1007A00011460968014311607047F148EF494860FC
:1007B000F04848607047EE48EC494860ED484860B2
:1007C0007047EA48006940F08000E84908617047D6
:1007D000E648006940F08000E44908617047042061
:1007E000E249C96801F0010109B101200EE0DF49C9
:1007F000C96801F0040109B1022007E0DB49C968BA
:1008000001F0100109B1032000E00420704700B599
:1008100002460423FFF7E3FF034603E0FFF7DFFF91
:100820000346521E012B01D1002AF7D102B905233C
:10083000184600BD30B5044604254FF43020FFF7BC
:10084000E6FF0546042D17D1C848006940F00200B4
:10085000C649086108464461006940F040000861EB
:100860004FF43020FFF7D3FF0546C048006941F63A
:10087000FD710840BD490861284630BD10B504240B
:100880004FF43020FFF7C3FF0446042C16D1B748BD
:10089000006940F00400B54908610846006940F06D
:1008A000400008614FF43020FFF7B1FF0446AF4825
:1008B000006941F6FB710840AC490861204610BD53
:1008C00000B502460423FFF78AFF034603E0FFF763
:1008D00086FF0346521E012B01D1002AF7D102B92F
:1008E0000523184600BD10B504244FF43020FFF74F
:1008F000E7FF0446042C16D19C48006940F0040030
:100900009A4908610846006940F0400008614FF4C8
:100910003020FFF7D5FF04469448006941F6FB718B
:10092000084092490861204610BD00208F49C969DE
:1009300001F0020109B1012000E00020704730B54C
:10094000A5250424FFF7F1FF00B100254FF4302066
:10095000FFF75DFF0446042C3AD18548834988603F
:10096000844888600846006940F020000861084615
:10097000006940F0400008614FF43020FFF747FF66
:100980000446042C1BD17948006941F6DF71084008
:10099000764908610846006940F010000861764811
:1009A0000580E002FFF733FF0446052C10D06F48A6
:1009B000006941F6EF7108406C49086108E0052CB8
:1009C00006D06A48006941F6EF710840674908613E
:1009D000204630BD78B506460C4604250020009020
:1009E000E802FFF714FF0546042D24D15F48006993
:1009F00040F001005D4908613480E802FFF707FF1D
:100A00000546042D10D1B01C0090200C00990880E0
:100A1000E802FFF7FCFE05465448006941F6FE7106
:100A200008405249086106E05048006941F6FE71ED
:100A300008404E490861284678BD70B504460D4609
:100A40000426F002FFF7E3FE0646042E11D14748C4
:100A5000006940F00100454908612580F002FFF778
:100A6000D6FE06464148006941F6FE7108403F49FE
:100A70000861304670BD70B505460E460424E0029C
:100A8000FFF7C5FE0446042C17D139483749886062
:100A9000384888600846006940F0100008612E80E0
:100AA000E002FFF7B4FE0446052C06D02F4800698B
:100AB00041F6EF7108402D490861204670BD2DE9CF
:100AC000F04304464FF6FF763746B046B14604255C
:100AD000E443E6B2C4F30727C4F307484FEA1469B6
:100AE000E802FFF794FE0546042D49D120481F492E
:100AF0008860204888600846006940F0100008615E
:100B0000FF2E06D01C4808300680E802FFF77FFE63
:100B10000546042D08D1FF2F06D017480A3007805C
:100B2000E802FFF774FE0546042D0AD1B8F1FF0F65
:100B300007D011480C30A0F80080E802FFF767FEEC
:100B40000546042D0AD1B9F1FF0F07D00A480E302F
:100B5000A0F80090E802FFF75AFE0546052D0FD0D9
:100B60000248006941F6EF71084007E000200240AA
:100B700023016745AB89EFCD00F8FF1F6649086187
:100B80002846BDE8F08330B5054604244FF43020F4
:100B9000FFF73DFE0446042C41D160485E49886061
:100BA0005F4888600846006940F0200008610846F8
:100BB000006940F0400008614FF43020FFF727FE45
:100BC0000446042C22D15448006941F6DF710840E4
:100BD000514908610846006940F0100008611DB1E4
:100BE00000205049088002E0A5204E4908804FF4BB
:100BF0003020FFF70CFE0446052C10D04648006953
:100C000041F6EF7108404449086108E0052C06D020
:100C10004148006941F6DF7108403F4908612046BC
:100C200030BDF0B505460E46174604243B483A4908
:100C300088603B488860E002FFF7E9FD0446042C29
:100C400019D13548006940F010003349086147F078
:100C5000F800304328433349891C0880E002FFF73D
:100C6000D6FD0446052C06D02B48006941F6EF71ED
:100C70000840294908612046F0BD2748C06980081E
:100C800070472548006A704700202349096801F031
:100C9000200109B1012000E00020704729B11E4A5F
:100CA000126902431C4B1A6104E01B4A1269824319
:100CB000194B1A61704701460020012908D1164AD4
:100CC000D26902F001020AB1012008E0002006E02A
:100CD000114AD2680A400AB1012000E000207047A2
:100CE0000D49C860704704200B49C96801F0010133
:100CF00009B101200EE00849C96801F0040109B1F9
:100D0000022007E00449C96801F0100109B103207D
:100D100000E00420704700000020024023016745E6
:100D2000AB89EFCD00F8FF1F10B50446CC488442D4
:100D300008D10121042000F02DFB0021042000F047
:100D400029FB46E0C748844208D10121082000F071
:100D500021FB0021082000F01DFB3AE0C24884423C
:100D600008D10121102000F015FB0021102000F017
:100D700011FB2EE0BD48844208D10121202000F063
:100D800009FB0021202000F005FB22E0B848844246
:100D900008D10121402000F0FDFA0021402000F0A0
:100DA000F9FA16E0B348844208D10121802000F00E
:100DB000F1FA0021802000F0EDFA0AE0AE4884420A
:100DC00007D10121801500F0E5FA0021A01500F0FF
:100DD000E1FA10BD10B50121084600F0DBFA002150
:100DE000012000F0D7FA10BD2DE9F04102460025A0
:100DF0000026002000230024002791F803C00CF0F7
:100E00000F0591F803C00CF0100CBCF1000F03D0DB
:100E100091F802C04CEA050591F800C0BCF1000F42
:100E200031D0146800202BE04FF0010C0CFA00F3D5
:100E3000B1F800C00CEA03069E4220D183004FF0B7
:100E40000F0C0CFA03F7BC4305FA03FC4CEA04044C
:100E500091F803C0BCF1280F06D14FF0010C0CFA39
:100E600000FCC2F814C00AE091F803C0BCF1480FBE
:100E700005D14FF0010C0CFA00FCC2F810C0401C68
:100E80000828D1D31460B1F800C0BCF1FF0F34DDE5
:100E9000546800202EE000F1080C4FF0010808FA19
:100EA0000CF3B1F800C00CEA03069E4221D1830086
:100EB0004FF00F0C0CFA03F7BC4305FA03FC4CEAA5
:100EC000040491F803C0BCF1280F05D100F1080C0F
:100ED00008FA0CF8C2F8148091F803C0BCF1480F6E
:100EE00007D100F1080C4FF0010808FA0CF8C2F81D
:100EF0001080401C0828CED35460BDE8F0814FF626
:100F0000FF710180022181700421C1707047024687
:100F1000002093680B400BB1012000E000207047D7
:100F20000146886880B2704702460020D3680B40B3
:100F30000BB1012000E0002070470146C86880B274
:100F4000704701617047416170470AB1016100E07B
:100F500041617047C16070474FF480320A4382613B
:100F60008161826182698269704702460020434B39
:100F700018684FF68073184040EA021008433F4B50
:100F8000186070473E49C8617047F0B50A460023B3
:100F900000240021002500F00046B6F1004F02D1E8
:100FA000364EF16901E0354E7168C0F3034583B2F6
:100FB00000F44016B6F5401F08D121F070612F4EA5
:100FC000766826F070662D4F7E6012E000F4801681
:100FD000B6F5801F06D1032606FA05F4A14341F0B9
:100FE000706106E0460D360103FA06F6B14341F0A2
:100FF000706122B1460D360103FA06F6314300F066
:101000000046B6F1004F02D11C4EF16101E01B4ECB
:101010007160F0BD30B500228B071C0F0F2303FA5F
:1010200004F2164B08338C1053F824309343134CBE
:1010300008348D1044F8253023468C1053F82430A2
:101040008C07240F00FA04F423430C4C08348D1051
:1010500044F8253030BD0A49DC3108607047000093
:1010600000080140000C0140001001400014014044
:1010700000180140001C0140002001400000014018
:1010800000002042DF48006840F00100DD490860B0
:1010900008464068DC490840DA494860084600686C
:1010A000DA490840D74908600846006820F48020E3
:1010B00008600846406820F4FE0048604FF41F00B6
:1010C00088607047CF49096821F48031CD4A1160AA
:1010D0001146096821F480211160B0F5803F03D0EA
:1010E000B0F5802F0ED106E0C649096841F4803181
:1010F000C44A116007E0C349096841F4A021C14A0C
:10110000116000E000BF00BF704710B5014600222B
:10111000002300204A11012A02D1BA4C236806E0BC
:10112000022A02D1B74C236A01E0B64C636A01F08F
:101130001F02012494401C400CB1012000E000205B
:1011400010BD38B5002000900024002500BF3120DC
:10115000FFF7DBFF05460098401C00900098B0F5B3
:10116000A06F01D0002DF2D03120FFF7CEFF08B1E3
:10117000012400E00024204638BD01460020A14A99
:10118000106820F0F80040EAC10010607047A049E4
:1011900008607047024600209A4B586820F47C1083
:1011A00042EA01031843974B586070479849086614
:1011B000704701460020934A506820F0030008431E
:1011C000506070478F48406800F00C00704701463F
:1011D00000208C4A506820F0F000084350607047AF
:1011E00001460020874A506820F4E06008435060C0
:1011F000704701460020834A506820F4605040EA5E
:10120000C1005060704729B17E4A527A02437D4B3B
:101210005A7204E07B4A527A82437A4B5A72704780
:101220007B49D8310860704701460020754A5068F4
:1012300020F440400843506070470021714A20323A
:101240001170704A82F82010012802D004280AD1B7
:1012500004E001216B4A2032117005E00521694A42
:101260002032117000E000BF00BF7047694908607C
:1012700070476449096A0143624A116270476549CF
:1012800044390860704730B5002100220024002353
:101290005C4D6D6805F00C0121B1042905D00829C9
:1012A00023D105E05C4D056022E05B4D05601FE049
:1012B000544D6D6805F47012524D6D6805F480341C
:1012C000022505EB92421CB9544D554305600BE0D5
:1012D0004C4D6D6805F400351DB1504D554305600A
:1012E00002E04D4D5543056002E04B4D056000BFE7
:1012F00000BF444D6D6805F0F0010909484D6B5C75
:101300000568DD4045603F4D6D6805F4E061090A00
:10131000434D6B5C4568DD4085603A4D6D6805F472
:101320006051C90A3E4D6B5C4568DD40C560354D76
:101330006D6805F44041890B3A4D6B5CC568B5FB9F
:10134000F3F5056130BD29B12E4A526902432D4B98
:101350005A6104E02B4A526982432A4B5A61704712
:1013600029B1284A92690243264B9A6104E0254A32
:1013700092698243234B9A61704729B1214AD2690D
:101380000243204BDA6104E01E4AD26982431D4BBE
:10139000DA61704729B11B4AD2680243194BDA60FF
:1013A00004E0184AD2688243164BDA60704729B1CC
:1013B000144A12690243134B1A6104E0114A12697C
:1013C0008243104B1A6170471249403908607047D8
:1013D0000F49C86470470B49C87170470948406A93
:1013E00040F0807007494862704701460020054A76
:1013F00092680A400AB1012000E0002070470149CC
:1014000088727047001002400000FFF8FFFFF6FEF0
:10141000000042428004424200127A0000093D006E
:10142000000000201000002010B50446F748844258
:1014300009D101218803FFF7ADFF00214FF480405F
:10144000FFF7A8FF32E0F248844209D101214804A5
:10145000FFF7ADFF00214FF40030FFF7A8FF25E0B4
:10146000EC48844209D101218804FFF7A0FF002144
:101470004FF48020FFF79BFF18E0E748844209D132
:101480000121C804FFF793FF00214FF40020FFF76C
:101490008EFF0BE0E148844208D101210805FFF7E7
:1014A00086FF00214FF48010FFF781FF10BD2DE96A
:1014B000F04786B005460E460024A24600BFA1466E
:1014C0000027B08900B100BF2F462C8A4CF6FF7070
:1014D0000440F08804432C82AC894EF6F31004409B
:1014E000B08831890843718908430443AC81AC8AD0
:1014F0004FF6FF400440B0890443AC8201A8FFF7D7
:10150000C2FEC248874202D1DDF810A001E0DDF83A
:101510000CA0A88900F4004040B10AEBCA0000EB1F
:101520000A1031684900B0FBF1F807E00AEBCA0085
:1015300000EB0A1031688900B0FBF1F86420B8FBB9
:10154000F0F004012009642101FB1089A88900F44E
:10155000004040B1322000EBC900B0FBF1F000F0D8
:101560000700044308E0322000EB09106421B0FBBF
:10157000F1F000F00F0004432C8106B0BDE8F087C5
:101580004FF41651016000218180C18001810C213E
:10159000418100218181704710B502460020108AE8
:1015A0004FF2FF0318400B884C8823438C88234359
:1015B000CC8823431843108210BD00210180418054
:1015C0008180C180704721B1828942F400528281BA
:1015D00004E082894DF6FF731A4082817047F0B5AE
:1015E0000346002400260025002040F66A17B94271
:1015F00000D100BF1846C1F3421401F01F060127B5
:1016000007FA06F5012C01D10C3004E0022C01D1BF
:10161000103000E014301AB107682F43076002E071
:101620000768AF430760F0BD1AB1838A0B4383821A
:1016300002E0838A8B4383827047028A4FF6F073FD
:101640001A400282028A0A430282704782894FF25C
:10165000FF731A40828182890A438281704721B1D7
:10166000828942F00202828104E082894FF6FD7392
:101670001A4082817047028A4FF6DF731A40028255
:10168000028A0A430282704721B1028A42F48042F0
:10169000028204E0028A4BF6FF731A40028270470E
:1016A00002460020B1F5007F00D100BF13880B4037
:1016B0000BB1012000E00020704770B504460D46D4
:1016C000574EC5F30800A08000E0761E802120461A
:1016D000FFF7E6FF08B9002EF7D170BD10B504463C
:1016E00000BF20212046FFF7DBFF0028F9D0A088AB
:1016F000C0F3080010BD818941F00101818170476C
:10170000028BD2B20283028B42EA0122028370472B
:10171000028B02F47F420283028B0A4302837047EA
:1017200021B1828A42F02002828204E0828A4FF64E
:10173000DF731A408282704721B1828A42F0100220
:10174000828204E0828A4FF6EF731A4082827047E9
:1017500021B1828A42F00802828204E0828A4FF636
:10176000F7731A408282704721B1828942F40042A5
:10177000828103E08289C2F30E028281704721B127
:10178000828A42F40062828204E0828A4FF2FF730E
:101790001A4082827047828A4FF6FB731A40828217
:1017A000828A0A438282704721B1828A42F0020211
:1017B000828204E0828A4FF6FD731A40828270476B
:1017C00001F40072B2F5007F00D100BFCA4302806D
:1017D000704770B50246002400230025002040F623
:1017E0006A16B14200D100BFC1F3421501F01F03D8
:1017F000012606FA03F3012D02D19689334013E046
:10180000022D0FD1168A33400EE00000003801404F
:101810000044004000480040004C004000500040A0
:10182000FFFF4F00968A33400C12012606FA04F49B
:101830001688344013B10CB1012000E0002070BDC7
:1018400010B50022002340F66A14A14200D100BF67
:101850000A1201249440A3B2DC43048010BD0000AE
:1018600001684FF6FE721140016000210160416085
:101870008160C1608D49884208D18C490839496826
:1018800041F00F01894A083A51608AE087491431D2
:10189000884208D185490839496841F0F001834AF6
:1018A000083A51607DE081492831884208D17F495A
:1018B0000839496841F470617C4A083A516070E027
:1018C0007A493C31884208D178490839496841F45D
:1018D0007041764A083A516063E074495031884259
:1018E00008D172490839496841F470216F4A083AB1
:1018F000516056E06D496431884208D16B4908391E
:10190000496841F47001694A083A516049E0674901
:101910007831884208D165490839496841F07061D9
:10192000624A083A51603CE06149884206D1011F91
:10193000096841F00F01021F116032E05C49143167
:10194000884208D15A49091F096841F0F001584AF4
:10195000121F116025E056492831884208D15449A8
:10196000091F096841F47061514A121F116018E0A3
:101970004F493C31884208D14D49091F096841F45B
:1019800070414B4A121F11600BE0494950318842A7
:1019900007D14749091F096841F47021444A121FC1
:1019A0001160704710B50022026847F6F0739A4341
:1019B0000C6A8B6823430C6923434C6923438C696D
:1019C0002343CC6923434C6A23438C6A23431A4341
:1019D0000260CB6843600B6883604B68C36010BDD6
:1019E0000021016041608160C160016141618161EC
:1019F000C161016241628162704721B1026842F0B7
:101A00000102026004E002684FF6FE731A400260B1
:101A100070471AB103680B43036002E003688B430D
:101A200003607047416070470146486880B2704764
:101A300001460020002201F080531BB11C4B083BE3
:101A40001A6802E0194B083B1A6802EA01030BB15D
:101A5000012000E00020704700F0805119B11449C6
:101A6000091F086002E011490839486070470146C3
:101A70000020002201F080531BB10D4B083B1A6877
:101A800002E00A4B083B1A6802EA01030BB101208D
:101A900000E00020704700F0805119B10449091F8F
:101AA000086002E0014908394860704708000240B8
:101AB000080402400E49086070470D4948607047AD
:101AC0000B49886070474AF6AA20094908607047A8
:101AD0004CF6CC4006490860704701460020044A95
:101AE000D2680A400AB1012000E0002070470000DF
:101AF0000030004010B50446BE48844208D10121A0
:101B00008014FFF747FC0021A014FFF743FC16E008
:101B1000B948844208D101210014FFF748FC002194
:101B20002014FFF744FC0AE0B448844207D10121A5
:101B3000C013FFF73CFC0021E013FFF738FC10BD99
:101B400010B50022028802F441520B884C882343CE
:101B50008C882343CC8823430C8923434C8923431B
:101B60008C892343CC8923431A430280838B4FF211
:101B7000FF74234083830B8A038210BD2DE9F04F4D
:101B800085B005460C464FF0000902274FF00008CB
:101B90004FF0010B0026B246A88B4FF240010840DF
:101BA000A88302202884B5F81C90A068022801D1DF
:101BB00000BF38E0A08810B94FF0010B01E04FF0F2
:101BC000020B8D48854200D100E000BF6846FFF758
:101BD0005AFBDDF800A0E088B0F5007F0AD14FEA9B
:101BE0001A2000EB80004000A168B0FBF1F0401D1E
:101BF00086B20BE04FEA4B10BAFBF0F000EB80002E
:101C00004000A168B0FBF1F0401D86B20A20B6FB8F
:101C1000F0F606F00108A6EB0800C0F34F074FF6F8
:101C2000FF7000EA0828022F01DBFF2F02DD0227E8
:101C30004FF00008E08840EA080038432884A08874
:101C4000A1890843618808432188084340F4006063
:101C500040EA0909A5F81C9005B0BDE8F08F002105
:101C6000018041808180C180018141818181C18168
:101C70000721018270470021018041808180C1805D
:101C80000221816000218181704721B1028842F0E8
:101C90004002028004E002884FF6BF731A400280BF
:101CA000704721B1828B42F48062828304E0828B90
:101CB0004FF6FF331A408283704730B5002400236B
:101CC0000C110125A540ABB21AB185881D43858052
:101CD00002E085889D43858030BD1AB183880B431F
:101CE000838002E083888B438380704781817047C3
:101CF0000146888970474FF6FF62914204D00288FE
:101D000042F48072028004E002884FF6FF631A40BA
:101D10000280704721B1828842F00402828004E090
:101D200082884FF6FB731A408280704702884FF218
:101D3000FF731A40028002880A43028070470188BC
:101D400041F480510180704721B1028842F4005271
:101D5000028004E002884DF6FF731A40028070474B
:101D600002460020012901D0108B00E0908A7047C4
:101D70000146088A7047B1F5804F04D1028842F4C9
:101D80008042028004E002884BF6FF731A40028012
:101D900070470246002013890B400BB1012000E080
:101DA00000207047CA4302817047F0B50246002008
:101DB00000240023002501F00F070126BE40B4B225
:101DC0000B1101269E40B3B2968806EA03051689D8
:101DD000264016B10DB1012000E00020F0BD10B585
:101DE000002201F00F040123A3409AB2D3430381E0
:101DF00010BD00000030014000380040003C0040B1
:101E00000CB50020019000906C48006840F48030D0
:101E10006A49086000BF6948006800F4003000901B
:101E20000198401C0190009818B90198B0F5A06F76
:101E3000F1D16248006800F4003010B10120009038
:101E400001E0002000900098012843D15C48006820
:101E500040F010005A4908600846006820F003006E
:101E600008600846006840F0020008605348406877
:101E7000524948600846406848600846406840F457
:101E8000806048600846406820F47C10486008463E
:101E9000406840F4E81048600846006840F08070F0
:101EA000086000BF4548006800F000700028F9D0C5
:101EB0004248406820F003004049486008464068B6
:101EC00040F00200486000BF3C48406800F00C0051
:101ED0000828F9D10CBD10B5FFF792FF10BD10B561
:101EE0003648006840F00100344908600846406800
:101EF0003449084031494860084600683249084082
:101F00002E4908600846006820F4802008600846D2
:101F1000406820F4FE0048604FF41F008860FFF71F
:101F2000DAFF4FF000602949086010BD10B50021AC
:101F300000200022214B5B6803F00C0121B1042931
:101F400006D0082928D107E0214B224C236027E046
:101F50001F4B204C236023E0184B5B6803F4701088
:101F6000164B5B6803F48032022303EB904022B9E6
:101F7000194B4343174C23600DE0104B5B6803F48F
:101F8000003323B1144B4343124C236003E0104B46
:101F90004343104C236003E00D4B0E4C236000BF05
:101FA00000BF064B5B68C3F303130C4CE15C094BA9
:101FB0001B68CB40074C236010BD0000001002409E
:101FC000002002400000FFF8FFFFF6FE08ED00E0F1
:101FD00000127A001400002000093D0018000020C3
:101FE00000F0F8FC00200449087000F094FC01E0C7
:101FF00000F079FDFCE7000028000020704700BFDA
:10200000FEE700BFFEE700BFFEE700BFFEE7704748
:10201000704770477047704710B54FF4006000F08C
:1020200022FEA84803F0EBFCA648C07800F00800A8
:1020300020B114214FF4006000F0EDFDA148C078FC
:1020400000F0100028B132214FF4805000F0E3FD81
:1020500009E09C48C07800F0200020B114214FF422
:10206000006000F0D8FD974803F0C9FC1020FEF78F
:1020700074FB10BD704710B540F225519248FFF730
:10208000A8FBC8B100209149087003214FF480607B
:1020900000F0C1FD8C48FFF721FB8D498D4A127875
:1020A00088548C480078401C8A49087040F22551B9
:1020B0008548FFF7C5FB25E040F227718248FFF70E
:1020C00088FB01281ED1844802780078401C824B8E
:1020D00018708248815C7C48FFF7EFFA7E480078F0
:1020E0007F49097888420DD1002240F22771764855
:1020F000FFF775FA002078490870794908700120C7
:102100007849087010BD10B540F225517648FFF7A8
:1021100060FBC8B10020754908707348FFF7DEFA0C
:10212000C1B27348734A1278815472480078401CD7
:102130007049087040F225516B48FFF781FB1E2162
:10214000042000F068FD4CE040F227716648FFF77C
:1021500040FB38B3684802780078401C664B187022
:102160006648815C6048FFF7A8FA40F225515E4856
:10217000FFF766FB6048007861490978884230DBE8
:10218000002240F227715848FFF729FA40F22771E0
:102190005548FFF755FB012240F226615248FFF7F0
:1021A0001EFA1EE040F226614F48FFF712FBC0B155
:1021B000002240F226614C48FFF711FA40F22661F6
:1021C0004948FFF73DFB02214E48FEF7BCFE0020C8
:1021D000494908704A49087001204B490870434931
:1021E000087010BD10B540F225514848FFF7F1FACC
:1021F000D0B10020464908704448FFF76FFAC1B2D9
:102200004448454A1278815443480078401C42496A
:10221000087040F225513D48FFF712FB03214FF4AF
:10222000803000F0F8FC4CE040F227713748FFF7AF
:10223000D0FA012827D1394802780078401C374B62
:1022400018703748815C3148FFF737FA40F2255162
:102250002E48FFF7F5FA314800783249097888426C
:102260002FDB002240F227712848FFF7B8F940F22F
:1022700027712648FFF7E4FA012240F2266123483D
:10228000FFF7ADF91DE040F226612048FFF7A1FA03
:10229000B8B1002240F226611C48FFF7A0F940F2D5
:1022A00026611A48FFF7CCFA4FF400411548FEF7B3
:1022B0004AFE0020194908701A49087001201A497D
:1022C000087010BD60060020003801402C0000207E
:1022D000E0030020320000203800002060050020CC
:1022E000370000202F000020004400402B00002079
:1022F000600300203100002036000020E0040020B0
:1023000035000020000801402E0000200048004059
:102310002A000020E00200203000002034000020CD
:1023200060040020330000202D00002010B5FEF7CF
:10233000A9FE4FF48030FEF7C5FEFEF702FFFE490E
:10234000087008460078012826D10020FEF73FFFDC
:102350000020FEF74EFF4FF48060FEF741FF0220A1
:10236000FEF704FA1020FEF715FA4FF4E0114FF4CF
:102370008030FEF70FFF0120FEF718FF00BF392065
:10238000FEF7C3FE0028FAD00220FEF712FF00BFBE
:10239000FEF718FF0828FBD14FF44040FEF744FF3A
:1023A00001210846FEF7DCFF10BD08B501213D20E4
:1023B000FEF7D6FF0121E148FEF7E7FD0121E048E5
:1023C000FEF7E3FD4FF48050ADF8000010208DF8CB
:1023D000030003208DF802006946DA48FEF704FD89
:1023E0002020ADF8000010208DF8030003208DF8A8
:1023F00002006946D348FEF7F7FC0120ADF8000063
:1024000048208DF803006946CF48FEF7EDFC042014
:10241000ADF800006946CB48FEF7E6FC4FF470606B
:10242000ADF800006946C948FEF7DEFC0121C84846
:10243000FEF7ABFDC748406820F02000C549486062
:102440000420ADF8000048208DF803006946C2481A
:10245000FEF7CAFC7820ADF8000048208DF8030094
:102460006946BA48FEF7C0FC0820ADF8000010200D
:102470008DF8030003208DF802006946B148FEF78D
:10248000B3FC0821AF48FEF75CFD4FF4E040ADF827
:10249000000010208DF8030003208DF8020069462B
:1024A000AA48FEF7A1FC4FF48051A848FEF749FD69
:1024B0004FF40051A548FEF744FD4FF48041A34876
:1024C000FEF73FFD0320ADF8000000208DF803006B
:1024D00069469C48FEF788FC0320ADF80000002008
:1024E0008DF8030069469948FEF77EFC1020ADF890
:1024F00000008DF8030003208DF802006946924821
:10250000FEF772FC10219048FEF71BFD1020ADF87D
:10251000000048208DF8030069468A48FEF764FCF5
:102520004020ADF8000010208DF8030003208DF846
:10253000020069468348FEF757FC0420ADF800000E
:1025400018208DF8030003208DF8020069467E48AC
:10255000FEF74AFC0820ADF8000004208DF80300C7
:1025600069467948FEF740FC0220ADF800001020D3
:102570008DF8030003208DF8020069467248FEF7CB
:1025800033FC4FF40070ADF8000018208DF8030004
:1025900003208DF8020069466B48FEF725FC4FF4D6
:1025A0008060ADF8000004208DF80300694666489D
:1025B000FEF71AFC4FF48060ADF8000018208DF88B
:1025C000030003208DF8020069465E48FEF70CFC0C
:1025D0004FF40060ADF8000004208DF80300694658
:1025E0005848FEF701FC4FF40040ADF80000102001
:1025F0008DF8030003208DF8020069465248FEF76B
:10260000F3FB08BD1CB51020FEF7A7F8042102203B
:10261000FEF700FD1020009000208DF804000C2033
:102620008DF8050001208DF806006846FEF71EF8BB
:102630001CBD08B54FF4A060FDF774FD25208DF892
:10264000000002208DF8010000208DF8020001201A
:102650008DF803006846FDF76AFD26208DF800001E
:1026600001208DF8010000208DF8020001208DF876
:1026700003006846FDF75BFD27208DF8000002206F
:102680008DF8010000208DF8020001208DF8030074
:102690006846FDF74CFD0A208DF8000000208DF8FB
:1026A00001008DF8020001208DF803006846FDF757
:1026B0003EFD00214FF00060FDF76BFD08BD00B549
:1026C00091B001210846FEF73EFE01214802FEF7C7
:1026D00047FE2248FFF7C4F821480690214807909A
:1026E000002008900420099000200A9080200B9080
:1026F00040000C9080000D9020200E9000020F9062
:102700000020109006A91548FFF74CF90020019011
:1027100001208DF808008DF809004FF46020039027
:102720000020049004208DF8140001A90C484C38B6
:10273000FDF78DFD072317E03D0000201000140079
:10274000000430000010014000080140000C01406E
:1027500000023000002004E00014014008000240A4
:102760004C2401403E00002001220A21AB48FDF725
:1027700006FE072302220821A848FDF700FE0723D2
:1027800003220B21A548FDF7FAFD072304220921A6
:10279000A248FDF7F4FD0121A048FDF78FFD0121BE
:1027A0009E48FDF780FD9D48FDF79FFD00BF9B48BB
:1027B000FDF7A0FD0028FAD19848FDF7A5FD00BF60
:1027C0009648FDF7A6FD0028FAD111B000BD00B56E
:1027D00087B001218803FEF7C3FD0020ADF8040097
:1027E000ADF806004FF40070ADF808000020ADF819
:1027F0000A0001A98A48FEF7CFFE4FF41650039055
:102800000020ADF81000ADF81200ADF81400ADF8DE
:1028100018000C20ADF8160003A98148FEF747FE0A
:1028200040F225517E48FEF7CBFF012240F22551B0
:102830007B48FEF7D4FE01217948FEF7C4FE07B0BD
:1028400000BD1FB501214804FEF797FD4FF4165057
:1028500000900020ADF80400ADF80600ADF80800C7
:10286000ADF80C000C20ADF80A0069466D48FEF783
:102870001EFE40F225516B48FEF7A2FF012240F2F6
:1028800025516848FEF7ABFE01216648FEF79BFE26
:102890001FBD1FB501218804FEF76FFD4FF41650D0
:1028A00000900020ADF80400ADF80600ADF8080077
:1028B000ADF80C000C20ADF80A0069465A48FEF746
:1028C000F6FD40F225515848FEF77AFF012240F20A
:1028D00025515548FEF783FE01215348FEF773FE4C
:1028E0001FBD10B50120FEF7C1FC00BF6120FEF73F
:1028F0000CFC0028FAD045F25550FFF7DBF8032016
:10290000FFF7DBF84FF4FA60FFF7DAF8FFF7DBF8D0
:10291000FFF7DEF810BD00B587B0012141F20500D8
:10292000FEF71EFD41480078B8B1A020ADF80400C4
:1029300010208DF8070003208DF8060001A93C48FF
:10294000FEF752FA4020ADF8040004208DF807008D
:1029500001A93748FEF748FA37E000213548FFF76C
:1029600094F9E020ADF8040018208DF8070003204A
:102970008DF8060001A92E48FEF736FA0020ADF8C2
:1029800008004FF48270ADF80A000020ADF80C008A
:10299000ADF80E000120ADF810004002ADF81200B5
:1029A0003820ADF814000020ADF816000720ADF86F
:1029B000180002A91F48FFF7C3F801211D48FFF7BF
:1029C00064F901211B48FFF7A5F9642003F06CF8B6
:1029D00007B000BD10B5FFF7A9FCFFF7E6FCFFF755
:1029E00011FEFFF726FEFFF76AFEFFF7F0FEFFF786
:1029F00028FFFFF790FFFFF774FF0F484FF0E0212B
:102A00004861002088610520086100F0C6F841F2A5
:102A10008831012000F0FFF810BD000000240140C3
:102A20000038014000440040004800403C000020C5
:102A30000008014000300140FEFFFF0010B5AA4829
:102A4000006818B1A848006802F07EFC02F05CFE45
:102A500010BDA54909680143A34A116070472DE9DB
:102A6000F0410746012000F03CF9A048006800282A
:102A700034D09E48046800262EE00025A088B84285
:102A800002D80020A08002E0A088C01BA080A088FF
:102A900040B9E08830B1206820B12068FFF7D9FF45
:102AA000E088A080A08808B1206848B91EB98F4985
:102AB000A068086001E0A068B0602546A46801E055
:102AC0002646A4683DB1A88810B92868FFF7C1FF61
:102AD000284603F081FA00BF002CCED1002000F080
:102AE00000F9BDE8F08170B500240025012000F058
:102AF000F8F84FF0E02084697D48B4FBF0F47D489D
:102B00000068844208D27B480068051B7A48006848
:102B100028447949086015E076480068844211D954
:102B200040F2654060436FF07F41A1EB8010704937
:102B3000B0FBF1F06F49096845186F4800682844F8
:102B40006D490860002000F0CCF815B12846FFF769
:102B500086FF012000F0C5F86648046066480068FA
:102B60006649884209D364480068401A624908608F
:102B700063480068401C62490860002000F0B1F81A
:102B8000FFF75CFF00205849086070BD5C4A12687E
:102B90000260594A12680A60704700205349086071
:102BA00070470146514A106804E002688A4200D129
:102BB00002E080680028F8D100BF70472DE9F0419D
:102BC00007460E463846FFF7ECFF04461CB1A680C8
:102BD0002046BDE8F0810C2003F026FA0446A4B19B
:102BE0002760A6800020E080A0604048006810B9FF
:102BF0003E48046007E03D48056800E0AD68A8680D
:102C00000028FBD1AC602046E3E70020E1E708B1F3
:102C100000210160704770B504460D46012000F0A8
:102C200060F829462046FFF7C9FF0646002000F05D
:102C300058F80EB1012070BD0020FCE770B50646C3
:102C40000D46012000F04DF829463046FFF7B6FF4B
:102C5000044604B1E580002000F043F80CB10120E7
:102C600070BD0020FCE770B50546012000F039F882
:102C70002846FFF796FF044614B12046FFF7C7FF2A
:102C8000002000F02EF80CB1012070BD0020FCE700
:102C900070B505460026012000F023F82846FFF70E
:102CA00080FF044604B1A688002000F01AF83046E0
:102CB00070BD70B50025012000F013F80B480468C2
:102CC00002E0681CC5B2A468002CFAD1002000F014
:102CD00008F8284670BD044909688143024A11601A
:102CE000704780F3108870474C0000204800002097
:102CF000401901005800002054000020005C260507
:102D00005000002038B50020009002226946FE489D
:102D100002F0A4FD9DF80000FF2803D19DF80100FA
:102D2000FF2804D02422F949F74802F097FD022237
:102D30006946F74802F092FD9DF80000FF2803D194
:102D40009DF80100FF2804D01822F249F04802F053
:102D500085FD002445E0062094FBF0F1EE4AED48A5
:102D6000035D0546601C285C43EA002022F8110040
:102D7000062094FBF0F1E94A2B46A01C1B5CE01CEA
:102D8000285C43EA002022F81100062094FBF0F0B2
:102D9000114631F8100000EB80004000062194FB42
:102DA000F1F1DF4A42F82100062094FBF0F2DD4900
:102DB0002B46201D1B5C601D285C43EA002021F887
:102DC0001200062094FBF0F031F8100000EB8000B8
:102DD0004000062194FBF1F1D34A42F82100A01DE6
:102DE000C4B2182CB7DB0222D049D14802F036FD1C
:102DF000CE484078FF2803D10020CE49087003E078
:102E0000CA484078CB4908703822CB49CB4802F0F9
:102E100025FD38BDF0B502460B46FF24FF250026F0
:102E200000BF0BE012F8010B80EA0401C448405CCB
:102E300080EA0504C348455C701CC6B29E42F1DBC3
:102E400044EA0520F0BD70B505460C4629462046EB
:102E5000FFF7E0FFD0B9A078102816DCBA48007858
:102E6000012812D12078C0F1FE00C6B2072E08DC7E
:102E7000A27806EB4601B54B03EB4100E11C02F0E2
:102E80002FFF0020B049087070BD00BF1022AF496D
:102E9000AF4802F025FF00BFF6E72DE9F0410646F6
:102EA0000F4690461D46022E1AD1002406E008EB7C
:102EB0000400385CA7490855601CC4B2AC42F6DB7C
:102EC000A54805700221A548FEF73BF80120A4495A
:102ED0000870012240F22771A248FEF780FB1AE039
:102EE000012E16D1002406E008EB0400385C9E4950
:102EF0000855601CC4B2AC42F6DB9C48057000204B
:102F00009B490870012240F227719A48FEF767FB3F
:102F100001E0BDE8F08100BFFBE72DE9F047814605
:102F20000F4615461E46089C84F800906770280AD4
:102F3000A070E570300A2071667106212046FFF707
:102F400069FF804684F806804FEA1820E071082067
:102F5000BDE8F08738B588480078002835D16B483F
:102F6000807FFB2830DB6948807FFE282CDC83488B
:102F70000090664890F822300022032180480078B3
:102F8000FFF7CBFF0446234600227C490320FFF7CE
:102F900084FF7C480078401C7A4908705B4890F8B0
:102FA00020000978884205DD75480078401E744984
:102FB000087005E0FE207249087000207149087011
:102FC00001206149087000BF00BF00BF6A48007857
:102FD000401C6949087008460078012801DB002080
:102FE000087038BD2DE9F04107460C462078664947
:102FF000097888427ED139462046FFF70BFF00282A
:10300000F8D16078032843D1E078A17840EA01261E
:103010006079217940EA01205C49088020785C4988
:10302000087003204870594800784006000E8870E8
:1030300008468278574800EB46015548C01C02F00C
:103040004FFE52480088032202EB400081B25048F4
:10305000FFF7E0FE05464D480088032202EB4000E2
:103060004B4A1554290A49480088042202EB4000C3
:10307000474A115445480078052202EB4000C1B28E
:1030800000232C480278424802F093FDBDE8F0810D
:103090006078062819D1A07850B9E078032807DCB9
:1030A0002079617940EA0120E1783B4A22F8110059
:1030B0003748216801606168416000231D4802783B
:1030C0000821334802F075FDE0E7607810281AD136
:1030D0002F4821680160A18881800621FFF79AFEB0
:1030E00005462B498D71280AC871002311480278C2
:1030F000082100E0BCE0264802F05BFDE0780428EF
:103100004CDB01204BE07AE000C001087700002092
:1031100000C401085F000020DE000020E60000205F
:10312000EC080020EE000020F8000020150100202F
:1031300000C80108A0000020BC0C002000C101084C
:103140009461000894600008260100201C0C0020F7
:10315000184C0020E0040020350000200008014049
:103160002E000020004400406005002037000020B1
:103170002F00002000380140230100206C070020B0
:1031800024010020250100209D0000209E00002039
:103190006C080020084C0020004C00200020E17842
:1031A000102901DA012100E00021084060B1A27974
:1031B000E11DFB4802F094FD1822F949F94802F09C
:1031C00000FBFFF79FFD61E7E078102801DB01209D
:1031D00000E00020E178222901DA012100E000214D
:1031E000084060B1A279E11DEF4802F079FD242288
:1031F000ED49EE4802F0E5FAFFF784FD46E70120CD
:10320000EB490870A279E1782839EA4B03EB810099
:10321000E11D02F065FDE1782839E64A52F8210007
:10322000E54902F081FD804602F0C1FDC0F30721AF
:10323000E0782838012202EB4000E04A1154E1789E
:103240002839DC4A52F82100DB4902F06DFD804646
:1032500002F0ADFDC1B2E0782838D84A02F810106B
:103260003822D649D64802F0ACFAFFF74BFD0DE7FD
:103270002078F02862D1607810285FD1E078222889
:103280005CD139462046FFF7C5FD002855D1E079CD
:10329000412811D0CB4821680160A1888180062196
:1032A000FFF7B8FD0546C7498D71280AC871082384
:1032B00000220220FFF7F1FDC3480078FF280DD05F
:1032C000C148007850B1C0480078E179884208D1FF
:1032D000E079402805DC607AFF2802D0207ABA49DC
:1032E0000870607AFF280AD1E079412804D0B648F6
:1032F0000078E179884202D1A07AB349487002226D
:10330000B149B24802F05DFAFFF7FCFCB048007822
:1033100090B1607AFF280FD1E079412804D0AA4803
:103320000078E179884207D102F0DCFB4FF4FA61C2
:103330004FF40060FFF76FFC00BFA7E69A48007EDD
:1033400020285BD12178A34800782038814255D1CC
:1033500039462046FFF75EFDE8BB607803284CD174
:10336000A078C8BBE078B8BB2079A8BBE078A1788A
:1033700040EA01256079217940EA012096490880D8
:103380009448007820389549087003204870924886
:1033900000784006000E887008468278904800EB5E
:1033A00045018E48C01C02F09BFC8B48008803221C
:1033B00002EB400081B28948FFF72CFD06468648A3
:1033C0000088032202EB4000844A1654310A8248E6
:1033D0000088042201E011E00FE002EB40007F4A88
:1033E00011547D480078052202EB4000C1B2002351
:1033F0007C480278794802F0DCFB00BF00BF45E65C
:1034000010B50346002000BF02E01A54441CE0B28D
:103410008842FADB10BD704770B573488088002879
:1034200067D0724800880A2863DD6F498988704A2E
:103430009288881A02F0AAFC21F00041054602F0A9
:10344000CFFC84B26848808869498988401A00287E
:1034500003DD01206749087002E002206549087019
:103460000020A04203DA64206349088022E00020A3
:10347000A04204DA614800885F4908801AE0002011
:10348000A04206DBA04204DA5D4800885A49088061
:1034900010E00020A04206DBA04204DA5948008870
:1034A0005549088006E00020A04203DB564800880A
:1034B000514908804F48007801280AD100BF0821EF
:1034C0005248FDF740FD4FF480515148FDF739FD5A
:1034D0000EE04848007802280AD100BF08214B4876
:1034E000FDF72FFD4FF480514948FDF72CFD00BF3B
:1034F00011E003203F49087000BF08214348FDF751
:1035000020FD4FF480514248FDF71DFD00BF4FF4F0
:10351000FA7039490880384801884FF48020FFF755
:103520007AFB70BD70B530484088002837D02F48EE
:1035300000880A2833DD2C4949882D4A5288881A88
:1035400002F024FC21F00041054602F049FC84B25F
:103550002548408826494988401A002803DD012073
:103560002C49087002E002202A4908700020A0427D
:1035700003DA64202849088061E00020A04204DAD0
:103580001E4800882449088059E00020A04245DBFD
:10359000A04243DA1A4800881F4908804FE06DE0D6
:1035A0005F00002000C401087700002000C001086F
:1035B000400100204C0C00200000C842F40C002008
:1035C00000C101086C0600201501002000C8010898
:1035D000140100209D0000209E0000206C080020A7
:1035E000184C0020A0000020480100203E010020CF
:1035F0003601002056010020520100205801002011
:103600005A0100205C0100205E01002000100140F2
:10361000000C014055010020500100200020A04274
:1036200006DBA04204DAFB480088FB49088006E07C
:103630000020A04203DBF9480088F7490880F848D9
:10364000007801280AD100BF8103F648FDF77BFC12
:103650004FF40051F348FDF774FC0EE0F048007899
:1036600002280AD100BF4103EE48FDF76AFC4FF47F
:103670000051EC48FDF767FC00BF12E00320E84969
:10368000087000BF4FF48041E648FDF75AFC4FF444
:103690000051E448FDF757FC00BF4FF4FA70DE49D3
:1036A0000880DD4801884FF40020FFF7B4FA70BDB0
:1036B00070B5DD480088002867D0DC4800880A28FB
:1036C00063DDD9490988DA4A1288881A02F05EFB5C
:1036D00021F00041054602F083FB84B2D248008805
:1036E000D3490988401A002803DD0120D149087018
:1036F00002E00220CF4908700020A04203DA6420D3
:10370000CD49088022E00020A04204DACB4800889E
:10371000C94908801AE00020A04206DBA04204DA72
:10372000C7480088C449088010E00020A04206DB9A
:10373000A04204DAB7480088BF49088006E00020AC
:10374000A04203DBB5480088BB490880B94800782F
:1037500001280AD100BF0821BA48FDF7F4FB4FF455
:103760008051B048FDF7EDFB0EE0B248007802282A
:103770000AD100BF0821B348FDF7E3FB4FF48051A5
:10378000A848FDF7E0FB00BF11E00320A94908703D
:1037900000BF0821AB48FDF7D4FB4FF48051A1488E
:1037A000FDF7D1FB00BF4FF4FA70A3490880A2488F
:1037B00001884FF48020FFF72EFA70BDA2480088E0
:1037C00010B3A14800884EF2BC31692202FB001000
:1037D0004FF47A7190FBF1F0954908809348008886
:1037E00000EB8000400099490988484397490988BF
:1037F000974AB2F9022002EB8202C1EB420190FB30
:10380000F1F08949088002E00020894908808E484B
:10381000408810B38C4840884EF2BC31692202FBCC
:1038200000104FF47A7190FBF1F0814948807F4895
:10383000008800EB80004000844949884843834960
:103840004988834AB2F9042002EB8202C1EB4201AB
:1038500090FBF1F07449488002E0002074494880F0
:103860007948808810B3784880884EF2BC3169224C
:1038700002FB00104FF47A7190FBF1F06C498880E4
:103880006A48008800EB80004000704989884843FE
:103890006E4989886E4AB2F9062002EB8202C1EBBA
:1038A000420190FBF1F06049888002E0002060490D
:1038B000888070472DE9F04781460C46207865499D
:1038C000097888427ED149462046FFF7A3FA0028AE
:1038D000F8D16078032843D1E078A17840EA012646
:1038E0006079217940EA01205B49088059480078D5
:1038F0005A49087003204870574800784006000E67
:10390000887008468278564800EB46015348C01C30
:1039100002F0E6F950480088032202EB400081B231
:103920004E48FFF777FA05464B480088032202EB22
:1039300040004A4A1554290A47480088042202EBED
:103940004000464A115444480078052101EB4000EC
:10395000C3B2002241490220FFF79FFABDE8F08779
:103960006078062818D1A07850B9E078032807DCE1
:103970002079617940EA0120E1783A4A22F8110081
:1039800036482168016061684160082300220146D1
:103990000220FFF782FAE1E76078102839D12F483A
:1039A00021680160A18881800621FFF733FA05466E
:1039B0002A498D71280AC871082300220220FFF7C6
:1039C0006CFA00E0EAE0E07804280FDBE0781028E9
:1039D0000CDAA279E11D244802F082F9182222496A
:1039E000224801F0EEFEFFF78DF9B7E7E0781028E6
:1039F00042DBE07822283FDAA279E11D1C4802F080
:103A00006FF924221A491B4801F0DBFEFFF77AF90F
:103A1000A4E7C2E05C010020500100205E0100200C
:103A200055010020000C0140480100203E0100200B
:103A300036010020540100204E01002058010020D2
:103A40005A010020001001402C01002042010020FA
:103A5000BC0C00209D000020B40000206C0600205B
:103A6000084C0020004C00205F00002000C401082A
:103A70007700002000C00108E07828283BDBE078D0
:103A8000442838DA0120FE490870A279E178283903
:103A9000FC4B03EB8100E11D02F022F9E1782839AB
:103AA000F84A52F82100F84902F03EF9074602F0C0
:103AB0007EF9C0F30721E0782838012202EB4000AC
:103AC000F24A1154E1782839EE4A52F82100EE49C1
:103AD00002F02AF9074602F06AF9C1B2E078283804
:103AE000EA4A02F810103822E849E94801F069FE74
:103AF000FFF708F932E7E07864284ED160790828AA
:103B00004BD10120DE490870E079217A40EA01209A
:103B1000E0490880607AA17A40EA0120DD494880C6
:103B2000E07A217B40EA0120DA498880607BA17B32
:103B300040EA0120D84908800988D84A1288881AA2
:103B400002F024F921F0004107460022D44B02F094
:103B500061F903D2D1480088CF490880CE48008857
:103B6000CE490880E07B217C40EA0120CD490880D5
:103B7000607CA17C40EA0120CA494880E07C217D2C
:103B800040EA0120C7498880607DC74908701E212E
:103B90004FF48010FFF73FF8E0E600BF2078F028F0
:103BA00062D1607810285FD1E07822285CD1494644
:103BB0002046FFF72FF9002855D1E079412811D090
:103BC000BA4821680160A18881800621FFF722F9A7
:103BD0000546B6498D71280AC871082300220220C3
:103BE000FFF75BF9B2480078FF280DD0B0480078A5
:103BF00050B1AF480078E179884208D1E079402897
:103C000005DC607AFF2802D0207AA9490870607A22
:103C1000FF280AD1E079412804D0A5480078E1794D
:103C2000884202D1A07AA24948700222A049A14844
:103C300001F0C7FDFFF766F89F48007890B1607A01
:103C4000FF280FD1E079412804D099480078E17924
:103C5000884207D101F046FF4FF4FA614FF400604B
:103C6000FEF7D9FF00BF79E69448007E202854D1A2
:103C7000217893480078203881424ED14946204629
:103C8000FFF7C8F8F0BB6078032844D1E078A1784A
:103C900040EA01256079217940EA012089490880BC
:103CA000874800782038814908700320487085488B
:103CB00000784006000E887008468278824800EB43
:103CC00045017A48C01C02F00BF87E4800880322A8
:103CD00002EB400081B27548FFF79CF80646794830
:103CE0000088032202EB4000704A1654310A7548DE
:103CF0000088042202EB40006C4A1154714800789D
:103D0000052100E008E001EB4000C3B20022674952
:103D10000220FFF7C2F800BF20E600BF1EE6F0B5A4
:103D200004461D46002604EBC40000EB0410674F58
:103D300007EBC00020F8152000230BE004EBC400C3
:103D400000EB0410614F07EBC00030F8130006448D
:103D5000581CC3B28B42F1DBB6FBF1F082B21046C5
:103D6000F0BD30B503460C4600210AE003EBC3006A
:103D700000EB0310554D05EBC00020F81120481C46
:103D8000C1B2A142F2DB104630BD2DE9F041B2B024
:103D900005460B461446002700210FE0DFF830C12E
:103DA0003CF81500984200DA1846A04200DD204693
:103DB0002DF8110001F1010C0CF0FF016429EDDB7D
:103DC00000211CE001F1010C0CF0FF0211E03DF8B4
:103DD00011C03DF81280C44507DB3DF811603DF885
:103DE00012C02DF811C02DF8126002F1010C0CF078
:103DF000FF02642AEBDB01F1010C0CF0FF016429E6
:103E0000E0DB282106E03DF811C0674401F1010C18
:103E10000CF0FF013C29F6DB4FF0140CB7FBFCFC67
:103E20001FFA8CF032B0BDE8F081F0B52948007877
:103E300020B101287ED002287DD116E326480078E3
:103E4000002879D1244840780028FAD1002440F293
:103E500019524FF483712046FFF797FF05461F481C
:103E6000005D40B92A4664212046FFF77AFF0546E7
:103E700001201A4908551A48035D1A48015D33E0CC
:103E8000400100204C0C00200000C842F40C00202F
:103E900000C101082C0100203E0100203401002057
:103EA0000000244042010020570100206C06002041
:103EB0001501002000C8010814010020770000202F
:103EC0009D000020B4000020184C0020FC080020B9
:103ED0003E0000209C0000200C0100201F0100205B
:103EE0001B010020170100202A462046FFF717FF7C
:103EF00005460120FB490855FB48005D401CFA4976
:103F000008550846005DF949095D884202DB00203A
:103F1000F5490855F6480580012440F219524FF43E
:103F200083712046FFF731FF0546EE48005D60B91A
:103F30002A4602E01CE197E271E064212046FFF787
:103F400010FF05460120E7490855E748035DE748AB
:103F5000015D2A462046FFF7E2FE05460120E149C1
:103F60000855E148005D401CDF4908550846005DE2
:103F7000DE49095D884202DB0020DB490855DD4847
:103F80000580DD480088DA490988884203DAD84884
:103F90000088D9490880D8484088D649098888428D
:103FA00003DAD4480088D4494880D4480088B0F562
:103FB0007F4F08DAD1480088CF490988884202DA61
:103FC0000020CF490880CD484088B0F57F4F08DAFF
:103FD000CA480088C8494988884202DA0020C8498E
:103FE0004880C3480078C7490870C1480088000A63
:103FF0004870C14800788870BF480088000AC870BF
:10400000BC4800780871BB480088000A4871BA486B
:1040100080788871B8484088000AC871A7E00024F9
:1040200040F29C5200212046FFF7AFFE0546AD4806
:10403000005D40B92A4664212046FFF792FE0546FE
:104040000120A8490855A848035DA848015D2A46F3
:104050002046FFF764FE05460120A2490855A24804
:10406000005D401CA04908550846005D9F49095D58
:10407000884202DB00209C4908559D480580008845
:10408000642802DA00209A4908809B4800889849F1
:104090000988884203DA964800889749088094483E
:1040A000008894490880944840880988884203DA47
:1040B00090480088904948809348007848B900208B
:1040C0009049087048708870C8700871487188718C
:1040D000C8718D480078012822D188480088B0F541
:1040E0007F4F09DA8548008883490988884203DAC6
:1040F00008208349088048807D48007881490870FD
:104100007B480088000A48707B48007888707A48AD
:104110000088000AC8700020087148718871C87151
:1041200079480078022822D174484088B0F57F4F42
:1041300009DA7248408870494988884203DA0820C1
:104140006F490880488000206E4908704870887068
:10415000C87068480078087166480088000A48718D
:1041600065488078887164484088000AC8710CE20C
:104170006648807800287CD16448C0780028FAD14D
:10418000022440F219524FF483712046FFF7FDFDDF
:1041900005465448005D40B92A4664212046FFF791
:1041A000E0FD054601204F4908554F48035D4F4843
:1041B000015D2A462046FFF7B2FD05460120494928
:1041C00008554948005D401C474908550846005DB0
:1041D0004649095D884202DB0020434908554C48A6
:1041E0000580032440F219524FF483712046FFF7F3
:1041F000CCFD05463B48005D40B92A466421204677
:10420000FFF7AFFD05460120364908553648035DE6
:104210003648015D2A462046FFF781FD054601200C
:10422000304908553048005D401C2F490855084664
:10423000005D2E49095D884202DB00202A490855AD
:10424000344805802C48808831490988884203DA3F
:104250002F480088284988802748C0882D49098828
:10426000884203DA2B4800882349C8802348808885
:1042700000E051E0B0F57F4F08DA204880881E4901
:104280008988884202DA00201D4988801B48C0883E
:10429000B0F57F4F08DA1948C0881749C9888842A5
:1042A00002DA00201649C8801948007815490872BA
:1042B00017480088000A48720F48007988720E4833
:1042C0008088000AC8721348007808731148008873
:1042D000000A48730848807988730748C088000A34
:1042E000C873C1E01F0100201B010020170100203E
:1042F000A4000020A6000020A8000020DE0000206E
:10430000004C0020084C0020A10000200C010020DF
:10431000B0000020B2000020022440F29C52002194
:104320002046FFF732FD0546FE48005D40B92A46AB
:1043300064212046FFF715FD05460120F94908557F
:10434000F948035DF948015D2A462046FFF7E7FC7E
:1043500005460120F3490855F348005D401CF24929
:1043600008550846005DF149095D884202DB0020DE
:10437000ED490855EE4805800088642802DA0020DF
:10438000EB490880EB488088E9490988884203DACC
:10439000E7480088E7498880E5480088E6490880C2
:1043A000E448C0880988884203DAE3480088E14984
:1043B000C880E248007848B90020E1490872487294
:1043C0008872C872087348738873C873DB480078B2
:1043D000012822D1DB488088B0F57F4F09DAD9481F
:1043E0008088D4498988884203DA0820D6498880A1
:1043F000C880CF480078D2490872CD480088000AAA
:104400004872CC4800798872CA488088000AC8720D
:104410000020087348738873C873C848007802285E
:1044200022D1C848C088B0F57F4F09DAC548C08896
:10443000C049C988884203DA0820C3498880C880F7
:104440000020BF49087248728872C872BA48007862
:104450000873B9480088000A4873B64880798873A1
:10446000B448C088000AC8738FE00020B7490870BC
:10447000B748807FFE287DD100207EE0B44A92F8C4
:104480002220002A1DDDB14A12780F2A19DA00EB2A
:104490004002B04B03EB42025378AC4A16781278D4
:1044A000521CAA4F3A70AC4A935500EB4002A94BFC
:1044B00013F812303A4616781278521C3A70A64A0F
:1044C0009355A34A92F82220012A29DDA04A92F8A6
:1044D0002220032A24DC9D4A12780F2A20DA00EBDE
:1044E00040029C4B03EB4202D27800EB4003994E12
:1044F00006EB43039B7842EA032202F5C87291B2AD
:10450000924A16781278521C904F3A70924A9155FE
:104510000E0A3A4613781278521C3A708E4AD654D4
:104520008B4A92F82220022A23DD894A92F822201F
:10453000032A1EDC854A12780F2A1ADA00EB4002A1
:10454000844B03EB42025379804A16781278521C4E
:104550007E4F3A70804A935500EB40027D4B03EB4F
:10456000420213793A4616781278521C3A707A4A07
:10457000935500E008E0421CD0B2754A92F8202022
:1045800082423FF77BAF00E000BF00BF7348007876
:10459000022803DB00207149087004E06F480078AE
:1045A000401C6E490870F0BD10B50024FEE366485B
:1045B00030F814000C287DD2DFE810F00C00430026
:1045C000F3004402A803C40324042504260472044F
:1045D0007C00A1050020624908556248005D30BB9F
:1045E0001CB908216048FCF7ACFC012C03D1210365
:1045F0005E48FCF7A6FC022C03D161035B48FCF784
:10460000A0FC032C04D14FF400515848FCF799FC4E
:10461000574830F8140030B11E2056490855002084
:10462000534921F8140001204E49085508E051482B
:10463000005D012804DB4F48005D401E4D490855D0
:1046400063E30020464908554A48005D002867D1C9
:10465000494850F8240030B1474850F82400401E23
:10466000454941F82400444850F82400E8BB1CB9EF
:1046700008213D48FCF767FC012C03D121033B488E
:10468000FCF761FC022C03D161033848FCF75BFCAA
:10469000032C04D14FF400513448FCF754FC374844
:1046A00050F8240070B1354850F82400344988424D
:1046B00008D800E0E7E3314850F82400401E2F49B5
:1046C00041F824002D4850F8240070B900201E49FC
:1046D00021F814002B4830F8140000EB8000400053
:1046E000264941F82400284800E007E030F814008B
:1046F00000EB80004000204941F824001C4830F8BD
:104700001400012809D00120194921F814000020C3
:10471000084921F81400034908550020114935E0E3
:1047200035E000001F0100201B01002017010020C0
:10473000B0000020A8000020B2000020A20000204D
:10474000084C0020DE000020004C00202701002043
:10475000770000201C0C0020184C00209C0000203A
:104760000C010020BA00002000100140000C0140A4
:10477000CE000020B6000020EC080020F800002049
:1047800000F60900EE000020E60000200855FE4873
:10479000005D012804DBFC48005D401EFA49085515
:1047A0004EE70120F9490855002C6CD1F848005D0E
:1047B000022868D0F7480078002874D1F649601CB8
:1047C00051F8200000285FD100BF0821F348FCF712
:1047D000B8FB4FF48051F248FCF7B5FB00BF012055
:1047E000EC4948700020EA490855EE480078022854
:1047F00004D00020EC494880EC4948700220E94987
:104800000870EB49601C51F8200070B1601C51F831
:104810002000E849884208D8E549601C51F820008A
:10482000401E0A46611C42F82100E149601C51F813
:10483000200000285DD1D74948700220D44908558E
:10484000DD49601C31F8100000EB80004100D84ABF
:10485000601C42F82010D94931F8100000EB8000AC
:104860004100CD4A601C42F8201000BF0821CB480F
:10487000FCF767FB4FF48051C948FCF762FB00BFAF
:104880000020C849087034E0C349601C51F820007A
:1048900078B3601C51F82000401E0A46611C42F8A3
:1048A000210026E0FFE70020BA4908700120B8493E
:1048B0000855C14830F8140000EB80004000BC49A6
:1048C00041F82400BD4830F8140000EB800040009F
:1048D000B14941F8240000BF0821B048FCF731FB82
:1048E0004FF48051AE48FCF72CFB00BF0020AD49CF
:1048F0000870022C6CD1A648005D022868D0A5483B
:104900008078002874D1A449601C51F82000002848
:104910005FD100BF6103A248FCF713FB2103A0484D
:10492000FCF711FB00BF01209A49C870002098498C
:104930000855A3480078022804D000209A49C8806E
:104940009A49C87002209E4908709949601C51F824
:10495000200070B1601C51F820009649884208D8A8
:104960009349601C51F82000401E0A46611C42F821
:1049700021008F49601C51F8200048BB0020854968
:10498000C8700220824908558B49601C31F810001C
:1049900000EB80004100864A601C42F820108749E5
:1049A00031F8100000EB800041007B4A601C42F8A7
:1049B000201000BF4FF480417948FCF7C2FA4FF451
:1049C00000517748FCF7BDFA00BF00207C49087011
:1049D00035E07149601C51F8200080B3601C51F82B
:1049E0002000401E0A46611C42F8210027E0FFE734
:1049F0000020684988700120654908556E4830F8E4
:104A0000140000EB80004000694941F824006B4825
:104A100030F8140000EB800040005F4941F82400AA
:104A200000BF4FF480415E48FCF78BFA4FF4005111
:104A30005B48FCF786FA00BF002061490870601CE3
:104A4000C4B2FDE5012051490855002C65D15048FC
:104A5000005D012861D04F484078E8BB4E4850F8CF
:104A60002400D0BB00BF08214C48FCF76CFA4FF47F
:104A700080514B48FCF765FA00BF0120454908709A
:104A800000204349085547480078012804D00020F9
:104A9000454908804549087001204249087044484A
:104AA00050F8240060B1424850F82400414988423F
:104AB00006D83F4850F82400401E3D4941F82400E4
:104AC0003B4850F8240040BB0020324908700120C8
:104AD0002F490855384801E02CE01FE030F8140059
:104AE00000EB80004000324941F82400334830F8A0
:104AF000140000EB80004000274941F8240000BF6B
:104B000008212648FCF71DFA4FF480512448FCF791
:104B100018FA00BF00202349087055E01E4850F8DD
:104B2000240078B31C4850F82400401E1A4941F86C
:104B3000240049E000201749487002201449085514
:104B40001D49601C31F8100000EB80004100184A3C
:104B5000601C42F82010194931F8100000EB800069
:104B600041000D4A601C42F8201000BF08210B488C
:104B7000FCF7E7F94FF480510948FCF7E2F900BF70
:104B800000201FE020E00000B60000200C01002003
:104B90000801002010010020EC0800200010014056
:104BA000000C0140A1000020A80000201F010020EF
:104BB000F800002000F60900EE000020E6000020CA
:104BC000A2000020FD490870022C65D1FC48005D60
:104BD000012861D0FB48C078F0BBFB4850F82400A6
:104BE000D8BB00BF6103F948FCF7ADF92103F748D2
:104BF000FCF7A7F900BF0120F24988700020F049B6
:104C00000855F3480078012804D00020F149888035
:104C1000F14988700120EE490870F04850F82400EE
:104C200060B1EE4850F82400ED49884206D8EB48C0
:104C300050F82400401EE94941F82400E74850F8A4
:104C4000240048BB0020DF4988700120DC4908555A
:104C5000E44830F8140001E02BE01EE000EB800097
:104C60004000DE4941F82400DF4830F8140000EB32
:104C700080004000D44941F8240000BF4FF4804137
:104C8000D248FCF75EF94FF40051D048FCF759F9CF
:104C900000BF0020CE49087035E0CB4850F8240012
:104CA00088B3C94850F82400401EC74941F8240081
:104CB00029E00020C349C8700220C1490855C949EC
:104CC000601C31F8100000EB80004100C34A601CFA
:104CD00042F82010C44931F8100000EB8000410078
:104CE000B94A601C42F8201000BF4FF48041B74819
:104CF000FCF727F94FF40051B448FCF722F900BF44
:104D00000020B3490870601CC4B20CE30020B7490E
:104D100008551CB90821B648FCF713F9012C03D13A
:104D20002103AA48FCF70DF9022C03D16103A7481F
:104D3000FCF707F9032C04D14FF40051A348FCF70A
:104D400000F9F0E20020A94908559F4850F82400D6
:104D500060B19D4850F82400401E9B4941F8240052
:104D600000209C4921F814009B490855964850F8AA
:104D70002400E8BB1CB908219D48FCF7E4F8012C8D
:104D800003D121039148FCF7DEF8022C03D1610323
:104D90008E48FCF7D8F8032C04D14FF400518B480F
:104DA000FCF7D1F88D4850F8240000E0BEE260B175
:104DB0008A4850F824008A49884206D8874850F823
:104DC0002400401E854941F82400844850F82400FE
:104DD00070B90420874921F81400824830F8140083
:104DE00000EB800040007D4941F824007E4800E04F
:104DF00007E030F8140000EB80004000724941F8F1
:104E0000240090E28FE28EE20120784908557A482A
:104E1000005DB8BB6CB900BF08217548FCF791F87C
:104E20004FF480516948FCF78CF800BF00206349BB
:104E30000870022C0CD100BF61036448FCF781F8B4
:104E400021036248FCF77DF800BF0020604908702C
:104E5000684830F81400694931F81410884208D0C5
:104E60001E2067490855634830F81400634921F84B
:104E70001400012060490855002062490855624924
:104E800008550AE000E04DE25D48005D012804DBC2
:104E90005B48005D401E5A490855601CC4B242E29E
:104EA000012052490855554830F814000B2824D1E8
:104EB0006CB900BF08214E48FCF743F84FF480510D
:104EC0004248FCF73EF800BF00203C490870022C25
:104ED0000CD100BF61033D48FCF733F821033B4888
:104EE000FCF72FF800BF00203949087032204449F0
:104EF00008550920414921F814004148005D002867
:104F00005BD14148005D18B13E48005D022854D194
:104F1000F4BB2B48005D01287AD000BF082134483B
:104F2000FCF711F84FF480512848FCF70AF800BF4D
:104F3000324830F81400092803D009202F4921F8FD
:104F400014001E480078012804D000202149088060
:104F500021490870012019490870204850F82400A0
:104F600060B11E4850F824001D49884206D81B48ED
:104F700050F82400401E194941F82400174850F801
:104F8000240028B900BF08211948FBF7DAFF00E028
:104F90003EE04FF480510D48FBF7D3FF00BF0020E7
:104FA000064908700120064908550E4830F81400DB
:104FB00000EB80004000094928E087E0A1000020C4
:104FC0000801002010010020EC080020000C014026
:104FD000A2000020A80000201F010020F8000020EF
:104FE00000F60900EE000020E60000200C01002081
:104FF00000100140004C0020C2000020D60000201C
:10500000BE000020CA000020C600002041F8240095
:10501000022C52D1FE48005D01284ED000BF610332
:10502000FC48FBF790FF2103FA48FBF78AFF00BF1B
:10503000F94830F81400092803D00920F64921F86E
:105040001400F6480078012804D00020F449888034
:10505000F44988700120F1490870F34850F82400A1
:1050600060B1F14850F82400F049884206D8EE4873
:1050700050F82400401EEC4941F82400EA4850F85A
:105080002400D0B900BF4FF48041E248FBF759FF3C
:105090004FF40051DF48FBF754FF00BF0020DF4909
:1050A00008700120DA490855E14830F8140000EB97
:1050B00080004000DC4941F824000020DD4908550B
:1050C0000220DD4908551E20DC490855DC48005DFA
:1050D000012804DBDA48005D401ED9490855D6484E
:1050E000005D022808D0D548005D012804DBD348C4
:1050F000005D401ED1490855601CC4B213E1012077
:10510000D0490855C44830F81400092824D16CB996
:1051100000BF0821CC48FBF714FF4FF48051BD4875
:10512000FBF70FFF00BF0020C8490870022C0CD10C
:1051300000BF6103B748FBF704FF2103B548FBF745
:1051400000FF00BF0020B54908703220BC49085557
:105150000B20B14921F81400B948005D00287DD129
:10516000B648005D18B1B448005D012876D1ECBBAB
:10517000A748005D022856D000BF0821B248FBF7BF
:10518000E0FE4FF48051A348FBF7DDFE00BFA248CC
:1051900030F814000B2803D00B209F4921F814008D
:1051A000AA480078022804D000209D4948809D49E3
:1051B00048700220A54908709B49601C51F82000E6
:1051C00070B1601C51F820009849884208D896496F
:1051D000601C51F82000401E0A46611C42F8210064
:1051E0009149601C51F8200000B900E01BE000BFAD
:1051F00008219548FBF7A5FE4FF480518548FBF741
:10520000A0FE00BF00209149087002208049085587
:105210008749601C31F8100000EB80004100824A91
:10522000601C42F82010022C5AD17948005D0228F7
:1052300056D000BF61037748FBF783FE2103754812
:10524000FBF781FE00BF744830F814000B2803D030
:105250000B20714921F81400704800E049E0007803
:10526000022804D000206E49C8806E49C870022010
:105270006A4908706C49601C51F8200070B1601CCC
:1052800051F820006949884208D86749601C51F8E4
:105290002000401E0A46611C42F821006249601C41
:1052A00051F82000E0B900BF4FF480415948FBF7A6
:1052B00048FE4FF400515748FBF743FE00BF002063
:1052C000564908700220524908555949601C31F866
:1052D000100000EB80004100534A601C42F820108F
:1052E0000020544908550120534908551E205349B0
:1052F00008555348005D012804DB5148005D401EFD
:105300004F4908554C48005D012808D04B48005DC6
:10531000012804DB4948005D401E48490855601CCF
:10532000C4B200E000BF00BF601CC4B2032C7FF712
:105330003EA910BD10B501214548FCF75EFB0121D7
:105340004448FAF7F0FF10BD7CB5044604F00100B4
:1053500000285AD002214048FBF7F5FD20213A48A9
:10536000FBF7F1FDFDF7CEFCFFF7E4FF7B20FBF739
:10537000CCFE10B300BF08213348FBF7E2FD4FF429
:1053800080512448FBF7DDFD00BF00BF4FF4804192
:105390002048FBF7D6FD4FF400511E48FBF7D1FD26
:1053A00000BF2E4800210160416010212C4800F010
:1053B000B0FC10212B4800F0ACFCFCF70FF82A4899
:1053C000007838B100F08EFB4FF4FA614FF40060C2
:1053D000FDF721FC2548807F38B1FDF75AFA40F6E9
:1053E000B8314FF48040FDF716FC4FF4FA6180208D
:1053F000FDF711FC4FF47A711020FDF70CFC42F21E
:1054000010714FF40050FDF706FC20210E482FE0EC
:1054100008010020000C0140D6000020A20000205E
:10542000A80000201F010020F800002000F609005D
:10543000EE000020C2000020CA000020C6000020AC
:10544000BE0000200C01002000100140A10000203F
:10545000080002400024014000080140004C0020E8
:10546000084C0020184C0020140100207700002078
:10547000FBF75AFDC0F10100C5B22A462021AD4814
:10548000FBF763FD04F0100088B1AB4800780128F9
:1054900007D1AA480078252805D0A84800782628F2
:1054A00001D0FFF781F864211020FDF7B4FB04F070
:1054B000800020B3A0480078012807D19F480078D9
:1054C00025281CD09D480078262818D000209C490B
:1054D0000870FEF7AAFC4FF496718020FDF79BFB45
:1054E00098480078FA2805DC96480078401C9549D1
:1054F000087004E0012000F00BF900F00EF904F050
:10550000020038B101209049087090499048007815
:10551000FEF7D0F904F48010D0B1FEF74FF98648B9
:105520000078012808D185480078252804D1FEF7A5
:10553000BFF8FDF7F7FF0BE07F480078012807D19F
:105540007E480078262803D1FDF766FFFDF763FF4C
:1055500004F4802050B100BF08217648FBF7F1FC2D
:105560004FF480517B48FBF7ECFC00BF04F40020B3
:1055700058B100BF4FF480417648FBF7E2FC4FF48E
:1055800000517448FBF7DDFC00BF04F00400A8B133
:1055900071480078401E7149087001206E490870FA
:1055A0006E4800786A4908706C480278411C674868
:1055B00000F096FB03210220FDF72DFB04F40060B0
:1055C000E0B100206649087000226648017866480C
:1055D000FDF716FF002141F20D2000F08CFA0121A9
:1055E00041F20E2000F087FA0320009008230022E9
:1055F000114601905D48007800F016FB04F48050DD
:10560000E0B14FF480514B48FBF78EFCC0F1010034
:10561000C5B22A464FF480514648FBF796FC5248E3
:1056200000F038FB4F4908704F494E480078FDF7AD
:10563000D9FC32214FF40060FDF7EDFA04F480400C
:1056400038B1FDF787FC4FF496714FF48040FDF7B9
:10565000E2FA04F4004038B1012045490870454998
:1056600045480078FDF7EFFB04F48030B0B14348C3
:105670000078401E424908700120404908704048A7
:1056800000783D4908703E480278411C394800F0D6
:1056900027FB03214FF40040FDF7BDFA04F400504E
:1056A00088B300202749087025480078322805DC97
:1056B00023480078401C2249087004E0012000F0D3
:1056C00027F800F02AF826480078B42805DC24489A
:1056D0000078401C224908700FE001202949087019
:1056E00000201F490870FDF70DFB00F0FBF94FF497
:1056F000FA614FF40060FDF78EFA42F210714FF438
:105700000050FDF788FA7CBD10B5FCF7DCF910BD40
:1057100000F0010181F3138870471B48006800F412
:10572000E0601A490843001D17490860BFF3408F25
:1057300000BFFEE700100140570100209D0000203F
:1057400028010020290100202B000020EC06002069
:105750005D000020000C01403100002060030020AB
:105760002A01002039000020E0050020A0000020D0
:105770002A000020EC0700205E00002030000020FE
:10578000E0020020140100200CED00E00000FA050A
:10579000F8B506460C46154604200090002708E0A0
:1057A00021883046FBF749F90090B81C87B2B61C37
:1057B000A41CAF4203DA9DF800000428F0D028466C
:1057C000F8BD2DE9F04FA1B00646894614460025E4
:1057D000A84604200090FAF7EEFF4FEA962A4FEA17
:1057E0008A2AC6F3090BCBF58067BC4202D84FF07A
:1057F00001080AE0E51BC5F3090018B9012000EB18
:10580000952802E0022000EB9528002505E00AEB30
:105810008520FBF70FF800906D1C4545F7D39DF8E8
:105820000000042804D04FF0FF3021B0BDE8F08F15
:105830002246494601A800F053FA04F0010010B1D5
:1058400004F1010800E0A0461FFA88F201A93046E1
:10585000FFF79EFFFAF7BCFF2046E6E710B50346C8
:10586000002003E013F8014B0C54401C9042F9DB7C
:1058700010BD0000704700EB8002910000E0491E5F
:105880000029FCD1704770B50446FA48007850B33F
:105890000025002623E004F0800020B18021F64896
:1058A000FBF74FFB03E08021F348FBF74CFB60065E
:1058B000040E6806050E2021EF48FBF742FB14207A
:1058C000FFF7D9FF4021EC48FBF721FB08B145F079
:1058D00001052021E848FBF736FB701CC6B2082EF4
:1058E000D9DB284670BD00BF0221E448FCF751FA1D
:1058F0000028F9D02146E148FCF7F8F900BF012162
:10590000DE48FCF746FA0028F9D0DC48FCF7F0F94D
:10591000C0B2E7E710B54FF47A70D949086000BF0C
:105920001021D548FBF70FFB4420FFF7ACFF002008
:10593000FFF7A9FF04461021CF48FBF702FBFCF755
:10594000C2F8CF480068401ECD490860FF2C03D044
:10595000084600680028E3D1C948006810B9002053
:10596000C849087010BD70B504460D46FFF7D2FF58
:105970001021C148FBF7E7FA4420FFF784FF04E059
:105980000020FFF780FF04F8010B2800A5F10101BA
:10599000CDB2F5D11021B848FBF7D3FA70BD70B580
:1059A00004460D46FFF7B6FF1021B348FBF7CBFACC
:1059B00003E014F8010BFFF766FF2800A5F10101D1
:1059C000CDB2F6D11021AC48FBF7BBFA70BD08B5DB
:1059D00034208DF8000002208DF801000221684675
:1059E000FFF7DDFF08BD08B534208DF80000082062
:1059F0008DF8010002216846FFF7D1FF08BD38B5D8
:105A0000044620208DF8000000208DF801008DF85C
:105A100002008DF8030004216846FFF7C0FF09214A
:105A20002046FFF7A0FF38BD2DE9FE4F04460D4686
:105A300016461F46DDE90D9ADDF8308013208DF8FB
:105A400000008DF801408DF802508DF803608DF84C
:105A500004708DF805808DF806908DF807A0082158
:105A60006846FFF79CFF08216846FFF77CFFBDE80A
:105A7000FE8F3EB5002408E0601C84B282490819FC
:105A80002946FFF78CFF601984B27F48055D002D21
:105A9000F2D100206722CDE9002060236122014677
:105AA0000290FFF7C1FF3EBD01464FF4FA5201FBE1
:105AB00002F000E0401E0028FCD1704710B54021E4
:105AC0007248FBF73EFA0A20FFF7D5FE40216F48E7
:105AD000FBF739FA10216848FBF733FA0A20FFF781
