:020000040800F2
:100000004013002001010008FD1F0008FF1F000829
:1000100003200008072000080B2000080000000053
:100020000000000000000000000000000F20000899
:10003000112000080000000013200008152000080F
:100040001B0100081B0100081B0100081B01000820
:100050001B0100081B0100081B0100081B01000810
:100060001B0100081B010008192000081B010008E3
:100070001B0100081B0100081B0100081B010008F0
:100080001B0100081B0100081B0100081B010008E0
:100090001B0100081B0100081B0100087520000857
:1000A0001B0100081B0100081B0100081B010008C0
:1000B0001B0100081B0100081B0100081B010008B0
:1000C0001B0100081B0100081B0100081B010008A0
:1000D0001B0100087720000807210008E52100081F
:1000E000172000081B0100081B010008DFF80CD0D6
:1000F00005F074FF00480047E11F0008401300208E
:100100000648804706480047FEE7FEE7FEE7FEE7B1
:10011000FEE7FEE7FEE7FEE7FEE7FEE7DF1E00087C
:10012000ED00000831490143314A1160704770B554
:10013000002100230F22C47804B32D4C246804F45A
:10014000E064C4F5E064210AC1F10403CA404478C4
:1001500004FA03F18478144021430901254C067800
:10016000A155047804F01F050124AC4005786D11F9
:10017000AD0005F1E025C5F8004109E0047804F080
:100180001F050124AC401C4D0678761145F8264029
:1001900070BD1A4A0A400243154B1B1F1A60704774
:1001A00039B1134A121D12680243114B1B1D1A600C
:1001B00006E00F4A121D126882430D4B1B1D1A6088
:1001C0007047042808D14FF0E021096941F004018B
:1001D0004FF0E022116107E04FF0E021096921F0C2
:1001E00004014FF0E0221161704700000000FA05A1
:1001F0000CED00E000E400E080E100E080FFFF1F84
:1002000010B50446FA48844208D10121401501F096
:10021000C1F80021601501F0BDF817E0F5488442EF
:1002200008D10121001501F0B5F80021201501F0D9
:10023000B1F80BE0F048844208D10121C80301F075
:10024000A9F800214FF4004001F0A4F810BD30B52A
:100250000246002000235068E84C20400D790C68CD
:1002600044EA0524204350609068E54C2040D1E9E1
:1002700002542C434D7944EA450420439060D06AEF
:1002800020F470000C7C641EE4B2234340EA035067
:10029000D06230BD00210160017141718160C16097
:1002A00001210174704721B1826842F0010282602D
:1002B00003E0826822F001028260704721B1826807
:1002C00042F48072826003E0826822F4807282606D
:1002D000704710B50023CBB21AB144681C43446088
:1002E00002E044689C43446010BD816841F008010D
:1002F00081607047014600208A6802F008020AB156
:10030000012000E000207047816841F00401816015
:100310007047014600208A6802F004020AB10120F9
:1003200000E00020704721B1826842F4A0028260A0
:1003300003E0826822F4A002826070470146002038
:100340008A6802F480020AB1012000E000207047B0
:1003500010B50A4600210023416821F46041531E74
:1003600041EA4331416010BD21B1426842F400626C
:10037000426003E0426822F4006242607047F0B5D8
:1003800004460D4600200021092D11DDE068A5F18D
:100390000A0606EB4607072606FA07F18843A5F189
:1003A0000A0606EB460603FA06F10843E0600CE095
:1003B000206905EB4507072606FA07F1884305EB98
:1003C000450603FA06F108432061072A0FDA606B3D
:1003D000561E06EB86071F2606FA07F18843561EAF
:1003E00006EB860605FA06F10843606322E00D2A53
:1003F0000FDA206BD61F06EB86071F2606FA07F1D9
:100400008843D61F06EB860605FA06F108432063EB
:1004100010E0E06AA2F10D0606EB86071F2606FA39
:1004200007F18843A2F10D0606EB860605FA06F1F0
:100430000843E062F0BD21B1826842F4801282601C
:1004400003E0826822F48012826070470146C86C23
:1004500080B2704766484C300068704721B14268EE
:1004600042F48062426003E0426822F480624260AB
:10047000704721B1426842F48052426003E0426812
:1004800022F48052426070470A460021816821F4BC
:10049000E04111438160704721B1826842F400421B
:1004A000826003E0826822F400428260704721B1DA
:1004B000826842F40212826003E0826822F402122F
:1004C00082607047014600208A6802F400120AB177
:1004D000012000E000207047F0B5044615460020DA
:1004E00000220026092911DDE068A1F10A0707EBC7
:1004F000470C072707FA0CF29043A1F10A0707EB14
:10050000470703FA07F21043E0600CE0206901EBB3
:10051000410C072707FA0CF2904301EB410703FA5D
:1005200007F210432061A06BC0F30156EF1C06F1E7
:10053000010CA7EB0C0707EB870C1F2707FA0CF23F
:100540009043EF1C06F1010CA7EB0C0707EB8707A4
:1005500001FA07F21043A063F0BD10B50A4600216E
:100560000023816B21F44011531E41EA0351816342
:1005700010BD08B5002300930090009B0B4400932E
:10058000009B1A6008BD08B502460020009000924A
:1005900001F12800009B184400900098006880B288
:1005A00008BD0A4600214168164B194011434160BD
:1005B00070474162826270470A460021416821F01B
:1005C0001F0111434160704740B109490831096872
:1005D00041F40001064A0832116007E0044908317D
:1005E000096821F40001024A0832116070470000D6
:1005F0000024014000280140003C0140FFFEF0FFC4
:10060000FDF7F1FFFFFD3FFF0246002013680B409E
:100610000BB1012000E000207047CA430260704720
:1006200070B502460020002300240B125568CEB29C
:1006300005EA060415681D4015B10CB1012000E063
:10064000002070BD00220A12D343036070470000EF
:10065000002044490860091D0860091D0860091D43
:10066000086041483F4914310860704700213D4906
:100670008279002A3AD00A46126803689A430B46E8
:100680001A600A1D126803689A430B1D1A600279EA
:1006900011440A6803681A430A60324A0832126831
:1006A00003689A432F4B08331A601A1D12680368B7
:1006B0009A432C4B0C331A604279102A0ED11A1F20
:1006C000126803681A43274B08331A601A1D126810
:1006D00003681A43234B0C331A600DE02149427919
:1006E00011440A6803681A430A6005E0027911445C
:1006F0000A6803689A430A6070470021016001712B
:100700000C2141710021817170471649103109682F
:100710000143144A10321160704701460020114A0B
:10072000143212680A400AB1012000E0002070472C
:100730000C49143108607047014600200022094B23
:100740001B6803EA0102074B14331B680B4013B10B
:100750000AB1012000E0002070470249143108600E
:100760007047000000040140FFFF0F000146002019
:10077000FE4A106800F03800084310607047FB49DB
:10078000096821F00801F94A11601146096801431E
:1007900011607047F549096821F01001F34A1160B2
:1007A00011460968014311607047F148EF494860FC
:1007B000F04848607047EE48EC494860ED484860B2
:1007C0007047EA48006940F08000E84908617047D6
:1007D000E648006940F08000E44908617047042061
:1007E000E249C96801F0010109B101200EE0DF49C9
:1007F000C96801F0040109B1022007E0DB49C968BA
:1008000001F0100109B1032000E00420704700B599
:1008100002460423FFF7E3FF034603E0FFF7DFFF91
:100820000346521E012B01D1002AF7D102B905233C
:10083000184600BD30B5044604254FF43020FFF7BC
:10084000E6FF0546042D17D1C848006940F00200B4
:10085000C649086108464461006940F040000861EB
:100860004FF43020FFF7D3FF0546C048006941F63A
:10087000FD710840BD490861284630BD10B504240B
:100880004FF43020FFF7C3FF0446042C16D1B748BD
:10089000006940F00400B54908610846006940F06D
:1008A000400008614FF43020FFF7B1FF0446AF4825
:1008B000006941F6FB710840AC490861204610BD53
:1008C00000B502460423FFF78AFF034603E0FFF763
:1008D00086FF0346521E012B01D1002AF7D102B92F
:1008E0000523184600BD10B504244FF43020FFF74F
:1008F000E7FF0446042C16D19C48006940F0040030
:100900009A4908610846006940F0400008614FF4C8
:100910003020FFF7D5FF04469448006941F6FB718B
:10092000084092490861204610BD00208F49C969DE
:1009300001F0020109B1012000E00020704730B54C
:10094000A5250424FFF7F1FF00B100254FF4302066
:10095000FFF75DFF0446042C3AD18548834988603F
:10096000844888600846006940F020000861084615
:10097000006940F0400008614FF43020FFF747FF66
:100980000446042C1BD17948006941F6DF71084008
:10099000764908610846006940F010000861764811
:1009A0000580E002FFF733FF0446052C10D06F48A6
:1009B000006941F6EF7108406C49086108E0052CB8
:1009C00006D06A48006941F6EF710840674908613E
:1009D000204630BD78B506460C4604250020009020
:1009E000E802FFF714FF0546042D24D15F48006993
:1009F00040F001005D4908613480E802FFF707FF1D
:100A00000546042D10D1B01C0090200C00990880E0
:100A1000E802FFF7FCFE05465448006941F6FE7106
:100A200008405249086106E05048006941F6FE71ED
:100A300008404E490861284678BD70B504460D4609
:100A40000426F002FFF7E3FE0646042E11D14748C4
:100A5000006940F00100454908612580F002FFF778
:100A6000D6FE06464148006941F6FE7108403F49FE
:100A70000861304670BD70B505460E460424E0029C
:100A8000FFF7C5FE0446042C17D139483749886062
:100A9000384888600846006940F0100008612E80E0
:100AA000E002FFF7B4FE0446052C06D02F4800698B
:100AB00041F6EF7108402D490861204670BD2DE9CF
:100AC000F04304464FF6FF763746B046B14604255C
:100AD000E443E6B2C4F30727C4F307484FEA1469B6
:100AE000E802FFF794FE0546042D49D120481F492E
:100AF0008860204888600846006940F0100008615E
:100B0000FF2E06D01C4808300680E802FFF77FFE63
:100B10000546042D08D1FF2F06D017480A3007805C
:100B2000E802FFF774FE0546042D0AD1B8F1FF0F65
:100B300007D011480C30A0F80080E802FFF767FEEC
:100B40000546042D0AD1B9F1FF0F07D00A480E302F
:100B5000A0F80090E802FFF75AFE0546052D0FD0D9
:100B60000248006941F6EF71084007E000200240AA
:100B700023016745AB89EFCD00F8FF1F6649086187
:100B80002846BDE8F08330B5054604244FF43020F4
:100B9000FFF73DFE0446042C41D160485E49886061
:100BA0005F4888600846006940F0200008610846F8
:100BB000006940F0400008614FF43020FFF727FE45
:100BC0000446042C22D15448006941F6DF710840E4
:100BD000514908610846006940F0100008611DB1E4
:100BE00000205049088002E0A5204E4908804FF4BB
:100BF0003020FFF70CFE0446052C10D04648006953
:100C000041F6EF7108404449086108E0052C06D020
:100C10004148006941F6DF7108403F4908612046BC
:100C200030BDF0B505460E46174604243B483A4908
:100C300088603B488860E002FFF7E9FD0446042C29
:100C400019D13548006940F010003349086147F078
:100C5000F800304328433349891C0880E002FFF73D
:100C6000D6FD0446052C06D02B48006941F6EF71ED
:100C70000840294908612046F0BD2748C06980081E
:100C800070472548006A704700202349096801F031
:100C9000200109B1012000E00020704729B11E4A5F
:100CA000126902431C4B1A6104E01B4A1269824319
:100CB000194B1A61704701460020012908D1164AD4
:100CC000D26902F001020AB1012008E0002006E02A
:100CD000114AD2680A400AB1012000E000207047A2
:100CE0000D49C860704704200B49C96801F0010133
:100CF00009B101200EE00849C96801F0040109B1F9
:100D0000022007E00449C96801F0100109B103207D
:100D100000E00420704700000020024023016745E6
:100D2000AB89EFCD00F8FF1F10B50446CC488442D4
:100D300008D10121042000F02DFB0021042000F047
:100D400029FB46E0C748844208D10121082000F071
:100D500021FB0021082000F01DFB3AE0C24884423C
:100D600008D10121102000F015FB0021102000F017
:100D700011FB2EE0BD48844208D10121202000F063
:100D800009FB0021202000F005FB22E0B848844246
:100D900008D10121402000F0FDFA0021402000F0A0
:100DA000F9FA16E0B348844208D10121802000F00E
:100DB000F1FA0021802000F0EDFA0AE0AE4884420A
:100DC00007D10121801500F0E5FA0021A01500F0FF
:100DD000E1FA10BD10B50121084600F0DBFA002150
:100DE000012000F0D7FA10BD2DE9F04102460025A0
:100DF0000026002000230024002791F803C00CF0F7
:100E00000F0591F803C00CF0100CBCF1000F03D0DB
:100E100091F802C04CEA050591F800C0BCF1000F42
:100E200031D0146800202BE04FF0010C0CFA00F3D5
:100E3000B1F800C00CEA03069E4220D183004FF0B7
:100E40000F0C0CFA03F7BC4305FA03FC4CEA04044C
:100E500091F803C0BCF1280F06D14FF0010C0CFA39
:100E600000FCC2F814C00AE091F803C0BCF1480FBE
:100E700005D14FF0010C0CFA00FCC2F810C0401C68
:100E80000828D1D31460B1F800C0BCF1FF0F34DDE5
:100E9000546800202EE000F1080C4FF0010808FA19
:100EA0000CF3B1F800C00CEA03069E4221D1830086
:100EB0004FF00F0C0CFA03F7BC4305FA03FC4CEAA5
:100EC000040491F803C0BCF1280F05D100F1080C0F
:100ED00008FA0CF8C2F8148091F803C0BCF1480F6E
:100EE00007D100F1080C4FF0010808FA0CF8C2F81D
:100EF0001080401C0828CED35460BDE8F0814FF626
:100F0000FF710180022181700421C1707047024687
:100F1000002093680B400BB1012000E000207047D7
:100F20000146886880B2704702460020D3680B40B3
:100F30000BB1012000E0002070470146C86880B274
:100F4000704701617047416170470AB1016100E07B
:100F500041617047C16070474FF480320A4382613B
:100F60008161826182698269704702460020434B39
:100F700018684FF68073184040EA021008433F4B50
:100F8000186070473E49C8617047F0B50A460023B3
:100F900000240021002500F00046B6F1004F02D1E8
:100FA000364EF16901E0354E7168C0F3034583B2F6
:100FB00000F44016B6F5401F08D121F070612F4EA5
:100FC000766826F070662D4F7E6012E000F4801681
:100FD000B6F5801F06D1032606FA05F4A14341F0B9
:100FE000706106E0460D360103FA06F6B14341F0A2
:100FF000706122B1460D360103FA06F6314300F066
:101000000046B6F1004F02D11C4EF16101E01B4ECB
:101010007160F0BD30B500228B071C0F0F2303FA5F
:1010200004F2164B08338C1053F824309343134CBE
:1010300008348D1044F8253023468C1053F82430A2
:101040008C07240F00FA04F423430C4C08348D1051
:1010500044F8253030BD0A49DC3108607047000093
:1010600000080140000C0140001001400014014044
:1010700000180140001C0140002001400000014018
:1010800000002042DF48006840F00100DD490860B0
:1010900008464068DC490840DA494860084600686C
:1010A000DA490840D74908600846006820F48020E3
:1010B00008600846406820F4FE0048604FF41F00B6
:1010C00088607047CF49096821F48031CD4A1160AA
:1010D0001146096821F480211160B0F5803F03D0EA
:1010E000B0F5802F0ED106E0C649096841F4803181
:1010F000C44A116007E0C349096841F4A021C14A0C
:10110000116000E000BF00BF704710B5014600222B
:10111000002300204A11012A02D1BA4C236806E0BC
:10112000022A02D1B74C236A01E0B64C636A01F08F
:101130001F02012494401C400CB1012000E000205B
:1011400010BD38B5002000900024002500BF3120DC
:10115000FFF7DBFF05460098401C00900098B0F5B3
:10116000A06F01D0002DF2D03120FFF7CEFF08B1E3
:10117000012400E00024204638BD01460020A14A99
:10118000106820F0F80040EAC10010607047A049E4
:1011900008607047024600209A4B586820F47C1083
:1011A00042EA01031843974B586070479849086614
:1011B000704701460020934A506820F0030008431E
:1011C000506070478F48406800F00C00704701463F
:1011D00000208C4A506820F0F000084350607047AF
:1011E00001460020874A506820F4E06008435060C0
:1011F000704701460020834A506820F4605040EA5E
:10120000C1005060704729B17E4A527A02437D4B3B
:101210005A7204E07B4A527A82437A4B5A72704780
:101220007B49D8310860704701460020754A5068F4
:1012300020F440400843506070470021714A20323A
:101240001170704A82F82010012802D004280AD1B7
:1012500004E001216B4A2032117005E00521694A42
:101260002032117000E000BF00BF7047694908607C
:1012700070476449096A0143624A116270476549CF
:1012800044390860704730B5002100220024002353
:101290005C4D6D6805F00C0121B1042905D00829C9
:1012A00023D105E05C4D056022E05B4D05601FE049
:1012B000544D6D6805F47012524D6D6805F480341C
:1012C000022505EB92421CB9544D554305600BE0D5
:1012D0004C4D6D6805F400351DB1504D554305600A
:1012E00002E04D4D5543056002E04B4D056000BFE7
:1012F00000BF444D6D6805F0F0010909484D6B5C75
:101300000568DD4045603F4D6D6805F4E061090A00
:10131000434D6B5C4568DD4085603A4D6D6805F472
:101320006051C90A3E4D6B5C4568DD40C560354D76
:101330006D6805F44041890B3A4D6B5CC568B5FB9F
:10134000F3F5056130BD29B12E4A526902432D4B98
:101350005A6104E02B4A526982432A4B5A61704712
:1013600029B1284A92690243264B9A6104E0254A32
:1013700092698243234B9A61704729B1214AD2690D
:101380000243204BDA6104E01E4AD26982431D4BBE
:10139000DA61704729B11B4AD2680243194BDA60FF
:1013A00004E0184AD2688243164BDA60704729B1CC
:1013B000144A12690243134B1A6104E0114A12697C
:1013C0008243104B1A6170471249403908607047D8
:1013D0000F49C86470470B49C87170470948406A93
:1013E00040F0807007494862704701460020054A76
:1013F00092680A400AB1012000E0002070470149CC
:1014000088727047001002400000FFF8FFFFF6FEF0
:10141000000042428004424200127A0000093D006E
:10142000000000201000002010B50446F748844258
:1014300009D101218803FFF7ADFF00214FF480405F
:10144000FFF7A8FF32E0F248844209D101214804A5
:10145000FFF7ADFF00214FF40030FFF7A8FF25E0B4
:10146000EC48844209D101218804FFF7A0FF002144
:101470004FF48020FFF79BFF18E0E748844209D132
:101480000121C804FFF793FF00214FF40020FFF76C
:101490008EFF0BE0E148844208D101210805FFF7E7
:1014A00086FF00214FF48010FFF781FF10BD2DE96A
:1014B000F04786B005460E460024A24600BFA1466E
:1014C0000027B08900B100BF2F462C8A4CF6FF7070
:1014D0000440F08804432C82AC894EF6F31004409B
:1014E000B08831890843718908430443AC81AC8AD0
:1014F0004FF6FF400440B0890443AC8201A8FFF7D7
:10150000C2FEC248874202D1DDF810A001E0DDF83A
:101510000CA0A88900F4004040B10AEBCA0000EB1F
:101520000A1031684900B0FBF1F807E00AEBCA0085
:1015300000EB0A1031688900B0FBF1F86420B8FBB9
:10154000F0F004012009642101FB1089A88900F44E
:10155000004040B1322000EBC900B0FBF1F000F0D8
:101560000700044308E0322000EB09106421B0FBBF
:10157000F1F000F00F0004432C8106B0BDE8F087C5
:101580004FF41651016000218180C18001810C213E
:10159000418100218181704710B502460020108AE8
:1015A0004FF2FF0318400B884C8823438C88234359
:1015B000CC8823431843108210BD00210180418054
:1015C0008180C180704721B1828942F400528281BA
:1015D00004E082894DF6FF731A4082817047F0B5AE
:1015E0000346002400260025002040F66A17B94271
:1015F00000D100BF1846C1F3421401F01F060127B5
:1016000007FA06F5012C01D10C3004E0022C01D1BF
:10161000103000E014301AB107682F43076002E071
:101620000768AF430760F0BD1AB1838A0B4383821A
:1016300002E0838A8B4383827047028A4FF6F073FD
:101640001A400282028A0A430282704782894FF25C
:10165000FF731A40828182890A438281704721B1D7
:10166000828942F00202828104E082894FF6FD7392
:101670001A4082817047028A4FF6DF731A40028255
:10168000028A0A430282704721B1028A42F48042F0
:10169000028204E0028A4BF6FF731A40028270470E
:1016A00002460020B1F5007F00D100BF13880B4037
:1016B0000BB1012000E00020704770B504460D46D4
:1016C000574EC5F30800A08000E0761E802120461A
:1016D000FFF7E6FF08B9002EF7D170BD10B504463C
:1016E00000BF20212046FFF7DBFF0028F9D0A088AB
:1016F000C0F3080010BD818941F00101818170476C
:10170000028BD2B20283028B42EA0122028370472B
:10171000028B02F47F420283028B0A4302837047EA
:1017200021B1828A42F02002828204E0828A4FF64E
:10173000DF731A408282704721B1828A42F0100220
:10174000828204E0828A4FF6EF731A4082827047E9
:1017500021B1828A42F00802828204E0828A4FF636
:10176000F7731A408282704721B1828942F40042A5
:10177000828103E08289C2F30E028281704721B127
:10178000828A42F40062828204E0828A4FF2FF730E
:101790001A4082827047828A4FF6FB731A40828217
:1017A000828A0A438282704721B1828A42F0020211
:1017B000828204E0828A4FF6FD731A40828270476B
:1017C00001F40072B2F5007F00D100BFCA4302806D
:1017D000704770B50246002400230025002040F623
:1017E0006A16B14200D100BFC1F3421501F01F03D8
:1017F000012606FA03F3012D02D19689334013E046
:10180000022D0FD1168A33400EE00000003801404F
:101810000044004000480040004C004000500040A0
:10182000FFFF4F00968A33400C12012606FA04F49B
:101830001688344013B10CB1012000E0002070BDC7
:1018400010B50022002340F66A14A14200D100BF67
:101850000A1201249440A3B2DC43048010BD0000AE
:1018600001684FF6FE721140016000210160416085
:101870008160C1608D49884208D18C490839496826
:1018800041F00F01894A083A51608AE087491431D2
:10189000884208D185490839496841F0F001834AF6
:1018A000083A51607DE081492831884208D17F495A
:1018B0000839496841F470617C4A083A516070E027
:1018C0007A493C31884208D178490839496841F45D
:1018D0007041764A083A516063E074495031884259
:1018E00008D172490839496841F470216F4A083AB1
:1018F000516056E06D496431884208D16B4908391E
:10190000496841F47001694A083A516049E0674901
:101910007831884208D165490839496841F07061D9
:10192000624A083A51603CE06149884206D1011F91
:10193000096841F00F01021F116032E05C49143167
:10194000884208D15A49091F096841F0F001584AF4
:10195000121F116025E056492831884208D15449A8
:10196000091F096841F47061514A121F116018E0A3
:101970004F493C31884208D14D49091F096841F45B
:1019800070414B4A121F11600BE0494950318842A7
:1019900007D14749091F096841F47021444A121FC1
:1019A0001160704710B50022026847F6F0739A4341
:1019B0000C6A8B6823430C6923434C6923438C696D
:1019C0002343CC6923434C6A23438C6A23431A4341
:1019D0000260CB6843600B6883604B68C36010BDD6
:1019E0000021016041608160C160016141618161EC
:1019F000C161016241628162704721B1026842F0B7
:101A00000102026004E002684FF6FE731A400260B1
:101A100070471AB103680B43036002E003688B430D
:101A200003607047416070470146486880B2704764
:101A300001460020002201F080531BB11C4B083BE3
:101A40001A6802E0194B083B1A6802EA01030BB15D
:101A5000012000E00020704700F0805119B11449C6
:101A6000091F086002E011490839486070470146C3
:101A70000020002201F080531BB10D4B083B1A6877
:101A800002E00A4B083B1A6802EA01030BB101208D
:101A900000E00020704700F0805119B10449091F8F
:101AA000086002E0014908394860704708000240B8
:101AB000080402400E49086070470D4948607047AD
:101AC0000B49886070474AF6AA20094908607047A8
:101AD0004CF6CC4006490860704701460020044A95
:101AE000D2680A400AB1012000E0002070470000DF
:101AF0000030004010B50446BE48844208D10121A0
:101B00008014FFF747FC0021A014FFF743FC16E008
:101B1000B948844208D101210014FFF748FC002194
:101B20002014FFF744FC0AE0B448844207D10121A5
:101B3000C013FFF73CFC0021E013FFF738FC10BD99
:101B400010B50022028802F441520B884C882343CE
:101B50008C882343CC8823430C8923434C8923431B
:101B60008C892343CC8923431A430280838B4FF211
:101B7000FF74234083830B8A038210BD2DE9F04F4D
:101B800085B005460C464FF0000902274FF00008CB
:101B90004FF0010B0026B246A88B4FF240010840DF
:101BA000A88302202884B5F81C90A068022801D1DF
:101BB00000BF38E0A08810B94FF0010B01E04FF0F2
:101BC000020B8D48854200D100E000BF6846FFF758
:101BD0005AFBDDF800A0E088B0F5007F0AD14FEA9B
:101BE0001A2000EB80004000A168B0FBF1F0401D1E
:101BF00086B20BE04FEA4B10BAFBF0F000EB80002E
:101C00004000A168B0FBF1F0401D86B20A20B6FB8F
:101C1000F0F606F00108A6EB0800C0F34F074FF6F8
:101C2000FF7000EA0828022F01DBFF2F02DD0227E8
:101C30004FF00008E08840EA080038432884A08874
:101C4000A1890843618808432188084340F4006063
:101C500040EA0909A5F81C9005B0BDE8F08F002105
:101C6000018041808180C180018141818181C18168
:101C70000721018270470021018041808180C1805D
:101C80000221816000218181704721B1028842F0E8
:101C90004002028004E002884FF6BF731A400280BF
:101CA000704721B1828B42F48062828304E0828B90
:101CB0004FF6FF331A408283704730B5002400236B
:101CC0000C110125A540ABB21AB185881D43858052
:101CD00002E085889D43858030BD1AB183880B431F
:101CE000838002E083888B438380704781817047C3
:101CF0000146888970474FF6FF62914204D00288FE
:101D000042F48072028004E002884FF6FF631A40BA
:101D10000280704721B1828842F00402828004E090
:101D200082884FF6FB731A408280704702884FF218
:101D3000FF731A40028002880A43028070470188BC
:101D400041F480510180704721B1028842F4005271
:101D5000028004E002884DF6FF731A40028070474B
:101D600002460020012901D0108B00E0908A7047C4
:101D70000146088A7047B1F5804F04D1028842F4C9
:101D80008042028004E002884BF6FF731A40028012
:101D900070470246002013890B400BB1012000E080
:101DA00000207047CA4302817047F0B50246002008
:101DB00000240023002501F00F070126BE40B4B225
:101DC0000B1101269E40B3B2968806EA03051689D8
:101DD000264016B10DB1012000E00020F0BD10B585
:101DE000002201F00F040123A3409AB2D3430381E0
:101DF00010BD00000030014000380040003C0040B1
:101E00000CB50020019000906C48006840F48030D0
:101E10006A49086000BF6948006800F4003000901B
:101E20000198401C0190009818B90198B0F5A06F76
:101E3000F1D16248006800F4003010B10120009038
:101E400001E0002000900098012843D15C48006820
:101E500040F010005A4908600846006820F003006E
:101E600008600846006840F0020008605348406877
:101E7000524948600846406848600846406840F457
:101E8000806048600846406820F47C10486008463E
:101E9000406840F4E81048600846006840F08070F0
:101EA000086000BF4548006800F000700028F9D0C5
:101EB0004248406820F003004049486008464068B6
:101EC00040F00200486000BF3C48406800F00C0051
:101ED0000828F9D10CBD10B5FFF792FF10BD10B561
:101EE0003648006840F00100344908600846406800
:101EF0003449084031494860084600683249084082
:101F00002E4908600846006820F4802008600846D2
:101F1000406820F4FE0048604FF41F008860FFF71F
:101F2000DAFF4FF000602949086010BD10B50021AC
:101F300000200022214B5B6803F00C0121B1042931
:101F400006D0082928D107E0214B224C236027E046
:101F50001F4B204C236023E0184B5B6803F4701088
:101F6000164B5B6803F48032022303EB904022B9E6
:101F7000194B4343174C23600DE0104B5B6803F48F
:101F8000003323B1144B4343124C236003E0104B46
:101F90004343104C236003E00D4B0E4C236000BF05
:101FA00000BF064B5B68C3F303130C4CE15C094BA9
:101FB0001B68CB40074C236010BD0000001002409E
:101FC000002002400000FFF8FFFFF6FE08ED00E0F1
:101FD00000127A001400002000093D0018000020C3
:101FE00000F0F8FC00200449087000F094FC01E0C7
:101FF00000F079FDFCE7000028000020704700BFDA
:10200000FEE700BFFEE700BFFEE700BFFEE7704748
:10201000704770477047704710B54FF4006000F08C
:1020200022FEA84803F049FDA648C07800F0080049
:1020300020B114214FF4006000F0EDFDA148C078FC
:1020400000F0100028B132214FF4805000F0E3FD81
:1020500009E09C48C07800F0200020B114214FF422
:10206000006000F0D8FD974803F027FD1020FEF730
:1020700074FB10BD704710B540F225519248FFF730
:10208000A8FBC8B100209149087003214FF480607B
:1020900000F0C1FD8C48FFF721FB8D498D4A127875
:1020A00088548C480078401C8A49087040F22551B9
:1020B0008548FFF7C5FB25E040F227718248FFF70E
:1020C00088FB01281ED1844802780078401C824B8E
:1020D00018708248815C7C48FFF7EFFA7E480078F0
:1020E0007F49097888420DD1002240F22771764855
:1020F000FFF775FA002078490870794908700120C7
:102100007849087010BD10B540F225517648FFF7A8
:1021100060FBC8B10020754908707348FFF7DEFA0C
:10212000C1B27348734A1278815472480078401CD7
:102130007049087040F225516B48FFF781FB1E2162
:10214000042000F068FD4CE040F227716648FFF77C
:1021500040FB38B3684802780078401C664B187022
:102160006648815C6048FFF7A8FA40F225515E4856
:10217000FFF766FB6048007861490978884230DBE8
:10218000002240F227715848FFF729FA40F22771E0
:102190005548FFF755FB012240F226615248FFF7F0
:1021A0001EFA1EE040F226614F48FFF712FBC0B155
:1021B000002240F226614C48FFF711FA40F22661F6
:1021C0004948FFF73DFB02214E48FEF7BCFE0020C8
:1021D000494908704A49087001204B490870434931
:1021E000087010BD10B540F225514848FFF7F1FACC
:1021F000D0B10020464908704448FFF76FFAC1B2D9
:102200004448454A1278815443480078401C42496A
:10221000087040F225513D48FFF712FB03214FF4AF
:10222000803000F0F8FC4CE040F227713748FFF7AF
:10223000D0FA012827D1394802780078401C374B62
:1022400018703748815C3148FFF737FA40F2255162
:102250002E48FFF7F5FA314800783249097888426C
:102260002FDB002240F227712848FFF7B8F940F22F
:1022700027712648FFF7E4FA012240F2266123483D
:10228000FFF7ADF91DE040F226612048FFF7A1FA03
:10229000B8B1002240F226611C48FFF7A0F940F2D5
:1022A00026611A48FFF7CCFA4FF400411548FEF7B3
:1022B0004AFE0020194908701A49087001201A497D
:1022C000087010BD68060020003801402C00002076
:1022D000E8030020320000203800002068050020BC
:1022E000370000202F000020004400402B00002079
:1022F000680300203100002036000020E8040020A0
:1023000035000020000801402E0000200048004059
:102310002A000020E80200203000002034000020C5
:1023200068040020330000202D00002010B5FEF7C7
:10233000A9FE4FF48030FEF7C5FEFEF702FFFE490E
:10234000087008460078012826D10020FEF73FFFDC
:102350000020FEF74EFF4FF48060FEF741FF0220A1
:10236000FEF704FA1020FEF715FA4FF4E0114FF4CF
:102370008030FEF70FFF0120FEF718FF00BF392065
:10238000FEF7C3FE0028FAD00220FEF712FF00BFBE
:10239000FEF718FF0828FBD14FF44040FEF744FF3A
:1023A00001210846FEF7DCFF10BD08B501213D20E4
:1023B000FEF7D6FF0121E148FEF7E7FD0121E048E5
:1023C000FEF7E3FD4FF48050ADF8000010208DF8CB
:1023D000030003208DF802006946DA48FEF704FD89
:1023E0002020ADF8000010208DF8030003208DF8A8
:1023F00002006946D348FEF7F7FC0120ADF8000063
:1024000048208DF803006946CF48FEF7EDFC042014
:10241000ADF800006946CB48FEF7E6FC4FF470606B
:10242000ADF800006946C948FEF7DEFC0121C84846
:10243000FEF7ABFDC748406820F02000C549486062
:102440000420ADF8000048208DF803006946C2481A
:10245000FEF7CAFC7820ADF8000048208DF8030094
:102460006946BA48FEF7C0FC0820ADF8000010200D
:102470008DF8030003208DF802006946B148FEF78D
:10248000B3FC0821AF48FEF75CFD4FF4E040ADF827
:10249000000010208DF8030003208DF8020069462B
:1024A000AA48FEF7A1FC4FF48051A848FEF749FD69
:1024B0004FF40051A548FEF744FD4FF48041A34876
:1024C000FEF73FFD0320ADF8000000208DF803006B
:1024D00069469C48FEF788FC0320ADF80000002008
:1024E0008DF8030069469948FEF77EFC1020ADF890
:1024F00000008DF8030003208DF802006946924821
:10250000FEF772FC10219048FEF71BFD1020ADF87D
:10251000000048208DF8030069468A48FEF764FCF5
:102520004020ADF8000010208DF8030003208DF846
:10253000020069468348FEF757FC0420ADF800000E
:1025400018208DF8030003208DF8020069467E48AC
:10255000FEF74AFC0820ADF8000004208DF80300C7
:1025600069467948FEF740FC0220ADF800001020D3
:102570008DF8030003208DF8020069467248FEF7CB
:1025800033FC4FF40070ADF8000018208DF8030004
:1025900003208DF8020069466B48FEF725FC4FF4D6
:1025A0008060ADF8000004208DF80300694666489D
:1025B000FEF71AFC4FF48060ADF8000018208DF88B
:1025C000030003208DF8020069465E48FEF70CFC0C
:1025D0004FF40060ADF8000004208DF80300694658
:1025E0005848FEF701FC4FF40040ADF80000102001
:1025F0008DF8030003208DF8020069465248FEF76B
:10260000F3FB08BD1CB51020FEF7A7F8042102203B
:10261000FEF700FD1020009000208DF804000C2033
:102620008DF8050001208DF806006846FEF71EF8BB
:102630001CBD08B54FF4A060FDF774FD25208DF892
:10264000000002208DF8010000208DF8020001201A
:102650008DF803006846FDF76AFD26208DF800001E
:1026600001208DF8010000208DF8020001208DF876
:1026700003006846FDF75BFD27208DF8000002206F
:102680008DF8010000208DF8020001208DF8030074
:102690006846FDF74CFD0A208DF8000000208DF8FB
:1026A00001008DF8020001208DF803006846FDF757
:1026B0003EFD00214FF00060FDF76BFD08BD00B549
:1026C00091B001210846FEF73EFE01214802FEF7C7
:1026D00047FE2248FFF7C4F821480690214807909A
:1026E000002008900420099000200A9080200B9080
:1026F00040000C9080000D9020200E9000020F9062
:102700000020109006A91548FFF74CF90020019011
:1027100001208DF808008DF809004FF46020039027
:102720000020049004208DF8140001A90C484C38B6
:10273000FDF78DFD072317E03D0000201000140079
:10274000000430000010014000080140000C01406E
:1027500000023000002004E00014014008000240A4
:102760004C2401403E00002001220A21AB48FDF725
:1027700006FE072302220821A848FDF700FE0723D2
:1027800003220B21A548FDF7FAFD072304220921A6
:10279000A248FDF7F4FD0121A048FDF78FFD0121BE
:1027A0009E48FDF780FD9D48FDF79FFD00BF9B48BB
:1027B000FDF7A0FD0028FAD19848FDF7A5FD00BF60
:1027C0009648FDF7A6FD0028FAD111B000BD00B56E
:1027D00087B001218803FEF7C3FD0020ADF8040097
:1027E000ADF806004FF40070ADF808000020ADF819
:1027F0000A0001A98A48FEF7CFFE4FF41650039055
:102800000020ADF81000ADF81200ADF81400ADF8DE
:1028100018000C20ADF8160003A98148FEF747FE0A
:1028200040F225517E48FEF7CBFF012240F22551B0
:102830007B48FEF7D4FE01217948FEF7C4FE07B0BD
:1028400000BD1FB501214804FEF797FD4FF4165057
:1028500000900020ADF80400ADF80600ADF80800C7
:10286000ADF80C000C20ADF80A0069466D48FEF783
:102870001EFE40F225516B48FEF7A2FF012240F2F6
:1028800025516848FEF7ABFE01216648FEF79BFE26
:102890001FBD1FB501218804FEF76FFD4FF41650D0
:1028A00000900020ADF80400ADF80600ADF8080077
:1028B000ADF80C000C20ADF80A0069465A48FEF746
:1028C000F6FD40F225515848FEF77AFF012240F20A
:1028D00025515548FEF783FE01215348FEF773FE4C
:1028E0001FBD10B50120FEF7C1FC00BF6120FEF73F
:1028F0000CFC0028FAD045F25550FFF7DBF8032016
:10290000FFF7DBF84FF4FA60FFF7DAF8FFF7DBF8D0
:10291000FFF7DEF810BD00B587B0012141F20500D8
:10292000FEF71EFD41480078B8B1A020ADF80400C4
:1029300010208DF8070003208DF8060001A93C48FF
:10294000FEF752FA4020ADF8040004208DF807008D
:1029500001A93748FEF748FA37E000213548FFF76C
:1029600094F9E020ADF8040018208DF8070003204A
:102970008DF8060001A92E48FEF736FA0020ADF8C2
:1029800008004FF48270ADF80A000020ADF80C008A
:10299000ADF80E000120ADF810004002ADF81200B5
:1029A0003820ADF814000020ADF816000720ADF86F
:1029B000180002A91F48FFF7C3F801211D48FFF7BF
:1029C00064F901211B48FFF7A5F9642003F0CAF858
:1029D00007B000BD10B5FFF7A9FCFFF7E6FCFFF755
:1029E00011FEFFF726FEFFF76AFEFFF7F0FEFFF786
:1029F00028FFFFF790FFFFF774FF0F484FF0E0212B
:102A00004861002088610520086100F0C6F841F2A5
:102A10008831012000F0FFF810BD000000240140C3
:102A20000038014000440040004800403C000020C5
:102A30000008014000300140FEFFFF0010B5AA4829
:102A4000006818B1A848006802F0A2FC02F0ABFED2
:102A500010BDA54909680143A34A116070472DE9DB
:102A6000F0410746012000F03CF9A048006800282A
:102A700034D09E48046800262EE00025A088B84285
:102A800002D80020A08002E0A088C01BA080A088FF
:102A900040B9E08830B1206820B12068FFF7D9FF45
:102AA000E088A080A08808B1206848B91EB98F4985
:102AB000A068086001E0A068B0602546A46801E055
:102AC0002646A4683DB1A88810B92868FFF7C1FF61
:102AD000284603F0DFFA00BF002CCED1002000F022
:102AE00000F9BDE8F08170B500240025012000F058
:102AF000F8F84FF0E02084697D48B4FBF0F47D489D
:102B00000068844208D27B480068051B7A48006848
:102B100028447949086015E076480068844211D954
:102B200040F2654060436FF07F41A1EB8010704937
:102B3000B0FBF1F06F49096845186F4800682844F8
:102B40006D490860002000F0CCF815B12846FFF769
:102B500086FF012000F0C5F86648046066480068FA
:102B60006649884209D364480068401A624908608F
:102B700063480068401C62490860002000F0B1F81A
:102B8000FFF75CFF00205849086070BD5C4A12687E
:102B90000260594A12680A60704700205349086071
:102BA00070470146514A106804E002688A4200D129
:102BB00002E080680028F8D100BF70472DE9F0419D
:102BC00007460E463846FFF7ECFF04461CB1A680C8
:102BD0002046BDE8F0810C2003F084FA0446A4B13D
:102BE0002760A6800020E080A0604048006810B9FF
:102BF0003E48046007E03D48056800E0AD68A8680D
:102C00000028FBD1AC602046E3E70020E1E708B1F3
:102C100000210160704770B504460D46012000F0A8
:102C200060F829462046FFF7C9FF0646002000F05D
:102C300058F80EB1012070BD0020FCE770B50646C3
:102C40000D46012000F04DF829463046FFF7B6FF4B
:102C5000044604B1E580002000F043F80CB10120E7
:102C600070BD0020FCE770B50546012000F039F882
:102C70002846FFF796FF044614B12046FFF7C7FF2A
:102C8000002000F02EF80CB1012070BD0020FCE700
:102C900070B505460026012000F023F82846FFF70E
:102CA00080FF044604B1A688002000F01AF83046E0
:102CB00070BD70B50025012000F013F80B480468C2
:102CC00002E0681CC5B2A468002CFAD1002000F014
:102CD00008F8284670BD044909688143024A11601A
:102CE000704780F3108870474C0000204800002097
:102CF000401901005800002054000020005C260507
:102D00005000002038B50020009002226946FE489D
:102D100002F002FE9DF80000FF2803D19DF801009B
:102D2000FF2804D02422F949F74802F0F5FD0222D9
:102D30006946F74802F0F0FD9DF80000FF2803D136
:102D40009DF80100FF2804D01822F249F04802F053
:102D5000E3FD002445E0062094FBF0F1EE4AED4847
:102D6000035D0546601C285C43EA002022F8110040
:102D7000062094FBF0F1E94A2B46A01C1B5CE01CEA
:102D8000285C43EA002022F81100062094FBF0F0B2
:102D9000114631F8100000EB80004000062194FB42
:102DA000F1F1DF4A42F82100062094FBF0F2DD4900
:102DB0002B46201D1B5C601D285C43EA002021F887
:102DC0001200062094FBF0F031F8100000EB8000B8
:102DD0004000062194FBF1F1D34A42F82100A01DE6
:102DE000C4B2182CB7DB0222D049D14802F094FDBE
:102DF000CE484078FF2803D10020CE49087003E078
:102E0000CA484078CB4908703822CB49CB4802F0F9
:102E100083FD38BDF0B502460B46FF24FF25002692
:102E200000BF0BE012F8017B87EA0401C44F7F5C0E
:102E300087EA0504C34F7D5C771CFEB29E42F1DB3E
:102E400044EA0520F0BD70B505460C4629462046EB
:102E5000FFF7E0FFD0B9A078102816DCBA48007858
:102E6000012812D12078C0F1FE00C6B2072E08DC7E
:102E7000A27806EB4601B54B03EB4100E11C02F0E2
:102E80008DFF0020B049087070BD00BF1022AF490F
:102E9000AF4802F083FF00BFF6E72DE9F041064698
:102EA0000F4690461D46022E1AD1002406E008EB7C
:102EB0000400385CA7490855601CC4B2AC42F6DB7C
:102EC000A54805700221A548FEF73BF80120A4495A
:102ED0000870012240F22771A248FEF780FB1AE039
:102EE000012E16D1002406E008EB0400385C9E4950
:102EF0000855601CC4B2AC42F6DB9C48057000204B
:102F00009B490870012240F227719A48FEF767FB3F
:102F100001E0BDE8F08100BFFBE72DE9F047814605
:102F20000F4615461E46089C84F800906770280AD4
:102F3000A070E570300A2071667106212046FFF707
:102F400069FF804684F806804FEA1820E071082067
:102F5000BDE8F08738B588480078002835D16B483F
:102F6000807FFB2830DB6948807FFE282CDC83488B
:102F70000090664890F822300022032180480078B3
:102F8000FFF7CBFF0446234600227C490320FFF7CE
:102F900084FF7C480078401C7A4908705B4890F8B0
:102FA00020000978884205DD75480078401E744984
:102FB000087005E0FE207249087000207149087011
:102FC00001206149087000BF00BF00BF6A48007857
:102FD000401C6949087008460078012801DB002080
:102FE000087038BD2DE9F04107460C462078664947
:102FF000097888427ED139462046FFF70BFF00282A
:10300000F8D16078032843D1E078A17840EA01261E
:103010006079217940EA01205C49088020785C4988
:10302000087003204870594800784006000E8870E8
:1030300008468278574800EB46015548C01C02F00C
:10304000ADFE52480088032202EB400081B2504896
:10305000FFF7E0FE05464D480088032202EB4000E2
:103060004B4A1554290A49480088042202EB4000C3
:10307000474A115445480078052202EB4000C1B28E
:1030800000232C480278424802F0F1FDBDE8F081AF
:103090006078062819D1A07850B9E078032807DCB9
:1030A0002079617940EA0120E1783B4A22F8110059
:1030B0003748216801606168416000231D4802783B
:1030C0000821334802F0D3FDE0E7607810281AD1D8
:1030D0002F4821680160A18881800621FFF79AFEB0
:1030E00005462B498D71280AC871002311480278C2
:1030F000082100E084E0264802F0B9FDE0780428C9
:103100004CDB01204BE07AE000C001087700002092
:1031100000C401085F000020DE000020E60000205F
:10312000F4080020EE000020F80000201501002027
:1031300000C80108A0000020C40C002000C1010844
:10314000506200085061000826010020240C002075
:10315000184C0020E8040020350000200008014041
:103160002E000020004400406805002037000020A9
:103170002F000020003801402301002074070020A8
:1031800024010020250100209D0000209E00002039
:1031900074080020084C0020004C00200020E1783A
:1031A000102901DA012100E00021084060B1A27974
:1031B000E11DFC4802F0F2FD1822FA49FA4802F03B
:1031C0005EFBFFF79FFD61E7E078102801DB01203F
:1031D00000E00020E178222901DA012100E000214D
:1031E000084060B1A279E11DF04802F0D7FD242229
:1031F000EE49EF4802F043FBFFF784FD46E700BFCE
:103200002078F02862D1607810285FD1E0782228F9
:103210005CD139462046FFF7FDFD002855D1E07905
:10322000412811D0E34821680160A18881800621EE
:10323000FFF7F0FD0546DF498D71280AC8710823A4
:1032400000220220FFF729FEDB480078FF280DD07E
:10325000D948007850B1D8480078E179884208D13F
:10326000E079402805DC607AFF2802D0207AD24934
:103270000870607AFF280AD1E079412804D0CE484E
:103280000078E179884202D1A07ACB4948700222C5
:10329000C949CA4802F0F3FAFFF734FDC84800787C
:1032A00090B1607AFF280FD1E079412804D0C2485C
:1032B0000078E179884207D102F072FC4FF4FA619C
:1032C0004FF40060FFF7A7FC00BFDFE6B748007EC1
:1032D00020285BD12178BB4800782038814255D125
:1032E00039462046FFF796FDE8BB607803284CD1AD
:1032F000A078C8BBE078B8BB2079A8BBE078A178FB
:1033000040EA01256079217940EA0120AE49088030
:10331000AC4800782038AD49087003204870AA48AE
:1033200000784006000E887008468278A84800EBB6
:103330004501A648C01C02F031FDA34800880322C5
:1033400002EB400081B2A148FFF764FD06469E48AB
:103350000088032202EB40009C4A1654310A9A4826
:103360000088042201E011E00FE002EB4000974AE0
:10337000115495480078052202EB4000C1B20023A9
:1033800094480278914802F072FC00BF00BF7DE6CD
:1033900010B50346002000BF02E01A54441CE0B2FE
:1033A0008842FADB10BD70B58B488088002872D047
:1033B0008A4800880A287FDD87498988884A928858
:1033C000881A02F041FD21F00041054602F066FD39
:1033D00084B28148808882498988401A002803DDA8
:1033E00001208049087002E002207E4908707A4876
:1033F000808800EBC0000A2190FBF1F0A04204DAC3
:10340000794800887949088036E073488088B4EBB1
:10341000600F04DD76480088744908802CE06E480F
:103420008088B4EB600F0ADC6B488088B4EBA00F97
:1034300005DD70480088401D6C4908801CE0664826
:103440008088B4EBA00F0CDC634880880A2190FBD5
:10345000F1F0A04205DA68480088C01C6349088082
:103460000AE05D4880880A2190FBF1F0A04203DB6E
:10347000624800885D4908805A48007801280BD1CD
:1034800000BF08215E48FDF75EFD4FF480515D48A6
:10349000FDF757FD0FE00FE05248007802280AD1EF
:1034A00000BF08215648FDF74CFD4FF480515548A8
:1034B000FDF749FD00BF11E003204A49087000BF35
:1034C00008214F48FDF73DFD4FF480514D48FDF771
:1034D0003AFD00BF4FF4FA70444908804348018820
:1034E0004FF48020FFF797FB70BD70B53A484088D5
:1034F000002856D0394800880A2852DD36494988C4
:10350000374A5288881A02F09FFC21F00041054694
:1035100002F0C4FC84B23048408831494988401ADE
:10352000002803DD01203849087002E002203649F6
:1035300008702948408800EBC0000A2190FBF1F098
:10354000A04204DA28480088304908806BE022480D
:103550004088B4EB600F04DD254800882B490880C3
:1035600061E01D484088B4EB600F09DC1A484088D0
:10357000B4EBA00F04DD1F4800882449088052E006
:1035800015484088B4EBA00F42DC134840880A215C
:1035900090FBF1F0A0423BDA174800881B490880F5
:1035A00041E05FE05F00002000C4010877000020D8
:1035B00000C00108740600201501002000C80108A1
:1035C000140100209D0000209E00002074080020AF
:1035D000184C0020A0000020480100203E010020DF
:1035E0003601002056010020600100205201002019
:1035F000580100205A0100205C0100205E010020DB
:1036000000100140000C0140550100205001002035
:10361000FE4840880A2190FBF1F0A04203DBFC4801
:103620000088FC490880FC48007801280AD100BFC6
:103630008103FA48FDF787FC4FF40051F748FDF786
:1036400080FC0EE0F448007802280AD100BF410354
:10365000F248FDF776FC4FF40051F048FDF773FC9B
:1036600000BF12E00320EC49087000BF4FF4804116
:10367000EA48FDF766FC4FF40051E848FDF763FCAB
:1036800000BF4FF4FA70E3490880E24801884FF424
:103690000020FFF7C0FA70BD70B5DC480088002834
:1036A00070D0DF4800880A287DDDD8490988DD4AC6
:1036B0001288881A02F0C8FB21F00041054602F08A
:1036C000EDFB84B2D1480088D6490988401A002809
:1036D00003DD0120D449087002E00220D2490870BD
:1036E000CA48008800EBC0000A2190FBF1F0A0421C
:1036F00004DACE480088CE49088034E0C348008808
:10370000B4EB600F04DDCB480088C94908802AE08B
:10371000BE480088B4EB600F09DCBC480088B4EBFD
:10372000A00F04DDC4480088C14908801BE0B748E9
:103730000088B4EBA00F0BDCB44800880A2190FB92
:10374000F1F0A04204DABD480088B94908800AE0D7
:10375000AE4800880A2190FBF1F0A04203DBAC48A0
:103760000088B3490880B048007801280BD100BF19
:103770000821B348FDF7E7FB4FF48051A748FDF758
:10378000E0FB0FE00FE0A848007802280AD100BF54
:103790000821AB48FDF7D5FB4FF480519F48FDF75A
:1037A000D2FB00BF11E003209F49087000BF082131
:1037B000A348FDF7C6FB4FF480519848FDF7C3FBC3
:1037C00000BF4FF4FA709A490880994801884FF475
:1037D0008020FFF720FA70BD9148008814283FDB55
:1037E0008F48008800EB80004000964909884843D4
:1037F00094490988944AB2F9022002EB8202C1EB93
:10380000420190FBF1F0814908808548008800EB77
:10381000800040008B49498848438A4949888A4A40
:10382000B2F9042002EB8202C1EB420190FBF1F0FD
:10383000764948807A48008800EB80004000814942
:10384000898848437F4989887F4AB2F9062002EB7C
:103850008202C1EB420190FBF1F06C49888004E0E8
:1038600000206A490880488088807848008868B1CC
:10387000764800884EF2BC31692202FB00104FF4FA
:103880007A7190FBF1F06749088002E000206549F9
:1038900008806E48408868B16C4840884EF2BC3160
:1038A000692202FB00104FF47A7190FBF1F05D4940
:1038B000488002E000205B4948806448808868B105
:1038C000624880884EF2BC31692202FB00104FF43E
:1038D0007A7190FBF1F05349888002E00020514951
:1038E000888070472DE9F04781460C46207858497A
:1038F000097888427ED149462046FFF78BFA002896
:10390000F8D16078032843D1E078A17840EA012615
:103910006079217940EA01204E4908804C480078BE
:103920004D490870032048704A4800784006000E50
:10393000887008468278494800EB46014648C01C1A
:1039400002F02CFA43480088032202EB400081B2C7
:103950004148FFF75FFA05463E480088032202EB24
:1039600040003D4A1554290A3A480088042202EBD7
:103970004000394A115437480078052101EB4000D6
:10398000C3B2002234490220FFF787FABDE8F0876E
:103990006078062818D1A07850B9E078032807DCB1
:1039A0002079617940EA0120E1782D4A22F811005E
:1039B00029482168016061684160082300220146AE
:1039C0000220FFF76AFAE1E7607810287ED12248EA
:1039D00021680160A18881800621FFF71BFA054656
:1039E0001D498D71280AC871082300220220FFF7A3
:1039F00054FA00E0F2E0E07804283FDBE078102899
:103A00003CDAA279E11D17482EE0000048010020B1
:103A10005E0100205001002055010020000C0140F3
:103A20003E010020360100205401002060010020EA
:103A30004E010020580100205A0100205C010020A6
:103A40000010014042010020C40C00202C01002085
:103A50009D000020B400002074060020084C0020C7
:103A6000004C00205F00002002F098F91822FE4967
:103A7000FE4801F004FFFFF745F987E7E0781028DA
:103A80000FDBE07822280CDAA279E11DF84802F079
:103A900085F92422F649F74801F0F1FEFFF732F9E3
:103AA00074E7E07828283DDBE07844283ADA012002
:103AB000F1490870A279E1782839F04B03EB8100D5
:103AC000E11D02F06BF9E178283900E085E0EB4A6E
:103AD00052F82100EA4902F085F9074602F0C5F9DB
:103AE000C0F30721E0782838012202EB4000E54AC4
:103AF0001154E1782839E14A52F82100E04902F0F6
:103B000071F9074602F0B1F9C1B2E0782838DD4A10
:103B100002F810103822DB49DB4801F0B0FEFFF755
:103B2000F1F833E7E078642857D16079092854D157
:103B30000120D1490870E079217A40EA0120D34977
:103B40000880607AA17A40EA0120D0494880E07A72
:103B5000217B40EA0120CD498880607BA17B40EA3F
:103B60000120CB4908800988CA4A1288881A02F0C5
:103B70006BF921F0004107460022C74B02F0A8F97B
:103B800003D2C4480088C2490880C1480088C1499E
:103B90000880E07B217C40EA0120C0490880607CED
:103BA000A17C40EA0120BD494880E07C217D40EABB
:103BB0000120BA498880607DB9490870A07DB94963
:103BC0000870E07DB8490870207EB84908701E2151
:103BD0004FF48010FFF71FF8D8E600BF2078F028D8
:103BE00062D1607810285FD1E07822285CD1494604
:103BF0002046FFF70FF9002855D1E079412811D070
:103C0000AB4821680160A18881800621FFF702F995
:103C10000546A7498D71280AC87108230022022091
:103C2000FFF73BF9A3480078FF280DD0A1480078A2
:103C300050B1A0480078E179884208D1E079402865
:103C400005DC607AFF2802D0207A9A490870607AF1
:103C5000FF280AD1E079412804D096480078E1791C
:103C6000884202D1A07A9349487002229149924831
:103C700001F005FEFFF746F89048007890B1607AB1
:103C8000FF280FD1E079412804D08A480078E179F3
:103C9000884207D101F084FF4FF4FA614FF40060CD
:103CA000FEF7B9FF00BF71E67148007E202854D1AD
:103CB000217883480078203881424ED149462046F9
:103CC000FFF7A8F8F0BB6078032844D1E078A1782A
:103CD00040EA01256079217940EA0120794908808C
:103CE000774800782038724908700320487075487A
:103CF00000784006000E887008468278724800EB13
:103D000045016B48C01C02F049F86E480088032248
:103D100002EB400081B26648FFF77CF8064669482E
:103D20000088032202EB4000614A1654310A6548BC
:103D30000088042202EB40005D4A1154614800787B
:103D4000052100E008E001EB4000C3B20022584921
:103D50000220FFF7A2F800BF18E600BF16E6F0B594
:103D600004461D46002604EBC40000EB0410574F28
:103D700007EBC00020F8152000230BE004EBC40083
:103D800000EB0410514F07EBC00030F8130006445D
:103D9000581CC3B28B42F1DBB6FBF1F082B2104685
:103DA000F0BD30B503460C4600210AE003EBC3002A
:103DB00000EB0310454D05EBC00020F81120481C16
:103DC000C1B2A142F2DB104630BD2DE9F041B2B0E4
:103DD00005460B461446002700210FE0DFF8F0C02F
:103DE0003CF81500984200DA1846A04200DD204653
:103DF0002DF8110001F1010C0CF0FF016429EDDB3D
:103E000000211CE001F1010C0CF0FF0211E03DF873
:103E100011C03DF81280C44507DB3DF811603DF844
:103E200012C02DF811C02DF8126002F1010C0CF037
:103E3000FF02642AEBDB01F1010C0CF0FF016429A5
:103E4000E0DB282106E03DF811C0674401F1010CD8
:103E50000CF0FF013C29F6DB4FF0140CB7FBFCFC27
:103E60001FFA8CF032B035E05F00002000C401087A
:103E70007700002000C0010840010020540C002001
:103E80000000C842FC0C002000C101082C010020E9
:103E90003E010020340100200000244042010020A7
:103EA000570100206201002063010020640100200E
:103EB000740600201501002000C80108140100202C
:103EC0009D000020B4000020184C002004090020B0
:103ED0003E000020BDE8F081F0B5FE48007820B13A
:103EE00001287DD002287CD1E4E2FB48007800283C
:103EF00078D1F94840780028FAD1002440F21952CC
:103F00004FF483712046FFF760FF0546F348005DDC
:103F100040B92A4664212046FFF743FF05460120A9
:103F2000EE490855EE48035DEE48015D2A462046FD
:103F3000FFF715FF05460120E8490855E848005DF0
:103F4000401CE74908550846005DE649095D88427E
:103F500002DB0020E2490855E3480580012440F2D5
:103F600019524FF483712046FFF72FFF0546DB48B7
:103F7000005D40B92A4664212046FFF712FF05463E
:103F80000120D6490855D648035DD648015D2A462A
:103F90002046FFF7E4FE05460120D0490855D048E9
:103FA000005D401CCE4908550846005DCD49095DBD
:103FB000884202DB0020CA490855CC480580CC481D
:103FC0000088C9490988884203DAC7480088C84977
:103FD0000880C7484088C5490988884207DA02E056
:103FE000E8E066E23DE0C1480088C1494880C14838
:103FF0000088B0F57F4F08DABE480088BC490988C0
:10400000884202DA0020BC490880BA484088B0F5EE
:104010007F4F08DAB7480088B5494988884202DAF4
:104020000020B5494880B0480078B4490870AE48CF
:104030000088000A4870AE4800788870AC48008854
:10404000000AC870A94800780871A8480088000ACA
:104050004871A74880788871A5484088000AC871CF
:10406000A7E0002440F29C5200212046FFF7ADFE5D
:1040700005469A48005D40B92A4664212046FFF76C
:1040800090FE05460120954908559548035D9548E1
:10409000015D2A462046FFF762FE054601208F4952
:1040A00008558F48005D401C8D4908550846005D45
:1040B0008C49095D884202DB0020894908558A48FD
:1040C00005800088642802DA002087490880884833
:1040D000008885490988884203DA83480088844932
:1040E0000880814800888149088081484088098883
:1040F000884203DA7D4800887D49488080480078FE
:1041000048B900207D49087048708870C8700871EF
:1041100048718871C8717A480078012822D17548A1
:104120000088B0F57F4F09DA724800887049098825
:10413000884203DA08207049088048806A4800787D
:104140006E49087068480088000A4870684800781E
:10415000887067480088000AC8700020087148719C
:104160008871C87166480078022822D16148408869
:10417000B0F57F4F09DA5F4840885D494988884239
:1041800003DA08205C490880488000205B490870F9
:1041900048708870C8705548007808715348008886
:1041A000000A487152488078887151484088000A56
:1041B000C8710FE24848807800287CD14648C07812
:1041C0000028FAD1022440F219524FF4837120469C
:1041D000FFF7FBFD05464148005D40B92A466421D2
:1041E0002046FFF7DEFD054601203C4908553C48C6
:1041F000035D3C48015D2A462046FFF7B0FD0546B9
:104200000120364908553648005D401C34490855A0
:104210000846005D3349095D884202DB00203049D1
:10422000085538480580032440F219524FF4837131
:104230002046FFF7CAFD05462848005D40B92A46DA
:1042400064212046FFF7ADFD0546012023490855AE
:104250002348035D2348015D2A462046FFF77FFD82
:10426000054601201D4908551D48005D401C1C499C
:1042700008550846005D1B49095D884202DB0020A5
:104280001749085520480580194880881D49098824
:10429000884203DA1B480088154988801448C08882
:1042A00019490988884203DA174800881049C880EC
:1042B0001048808800E054E0B0F57F4F08DA0D48E0
:1042C00080880B498988884202DA00200A49888060
:1042D00008481BE09C0000200C0100201F0100206A
:1042E0001B01002017010020A4000020A6000020D0
:1042F000A8000020DE000020004C0020084C002018
:10430000A1000020B0000020B2000020C088B0F55D
:104310007F4F08DAFE48C088FE49C988884202DA21
:104320000020FD49C880FD480078FD490872FB481F
:104330000088000A4872F74800798872F54880883A
:10434000000AC872F74800780873F6480088000A27
:104350004873F04880798873EE48C088000AC873B3
:10436000A7E0022440F29C5200212046FFF72DFDD9
:104370000546ED48005D40B92A4664212046FFF716
:1043800010FD05460120E8490855E848035DE84866
:10439000015D2A462046FFF7E2FC05460120E2497E
:1043A0000855E248005D401CE04908550846005D9C
:1043B000DF49095D884202DB0020DC490855D74807
:1043C00005800088642802DA0020D4490880D1489A
:1043D0008088D2490988884203DAD0480088CD49CC
:1043E0008880CE480088CF490880CA48C08809889C
:1043F000884203DACB480088C649C880CD48007897
:1044000048B90020C649087248728872C872087399
:1044100048738873C873C7480078012822D1BC4804
:104420008088B0F57F4F09DAB9488088B949898812
:10443000884203DA0820B8498880C880B7480078E5
:10444000B7490872B5480088000A4872B148007937
:104450008872B0488088000AC872002008734873C8
:104460008873C873B3480078022822D1A848C0884E
:10447000B0F57F4F09DAA648C088A649C9888842A6
:1044800003DA0820A4498880C8800020A449087263
:1044900048728872C872A34800780873A1480088DF
:1044A000000A48739B48807988739A48C088000A3C
:1044B000C8738FE00020A0490870A048807FFE28C4
:1044C0007ED100207EE09D4A92F82220002A1DDD48
:1044D000994A12780F2A19DA00EB4002984B03EB45
:1044E00042025378944A16781278521C924F3A70CE
:1044F000944A935500EB4002914B13F812303A4620
:1045000016781278521C3A708E4A93558B4A92F85C
:104510002220012A29DD894A92F82220032A24DC5C
:10452000854A12780F2A20DA00EB4002844B03EB15
:104530004202D27800EB4003814E06EB43039B78A6
:1045400042EA032202F5C87291B27B4A16781278C9
:10455000521C794F3A707B4A91550E0A3A461378AD
:104560001278521C3A70774AD654744A92F8222034
:10457000022A23DD714A92F82220032A1EDC6E4AA9
:1045800012780F2A1ADA00EB40026D4B03EB42025D
:104590005379694A16781278521C674F3A70694A03
:1045A000935500EB4002664B03EB420213793A4607
:1045B00016781278521C3A70624A9355421C00E0F9
:1045C00007E0D0B25D4A92F8202082423FF77BAFED
:1045D00000E000BF00BF5C480078022803DB002039
:1045E0005949087004E058480078401C5649087042
:1045F000F0BD10B50024FDE3474830F814000C2846
:104600007ED2DFE810F00C004300EE003F02A6036C
:10461000C20322042304240470047D00A0050020AA
:104620004A4908554A48005D30BB1CB90821494831
:10463000FCF787FC012C03D121034748FCF781FCE0
:10464000022C03D161034448FCF77BFC032C04D10A
:104650004FF400514048FCF774FC404830F8140017
:1046600030B11E203E49085500203C4921F8140075
:1046700001203749085508E03948005D012804DB6E
:104680003748005D401E3649085561E300202F4938
:1046900008553348005D00286AD1324850F824009C
:1046A00030B1304850F82400401E2E4941F8240013
:1046B0002C4850F8240048BB1CB908212548FCF7B9
:1046C00042FC012C03D121032348FCF73CFC022CC3
:1046D00003D161032048FCF736FC032C04D14FF4CE
:1046E00000511D48FCF72FFC1F4850F8240070B102
:1046F0001D4850F824001D4988423CD81A4800E063
:10470000F0E350F82400401E174932E04DE032E05B
:10471000DE000020A8000020004C0020B000002097
:10472000084C0020B20000201F0100201B010020C7
:1047300017010020A20000202701002077000020A0
:10474000240C0020184C00209C0000200C010020AC
:10475000BA00002000100140000C0140CE000020F3
:10476000B6000020F4080020F800002000F6090040
:104770002DE041F82400F94850F82400A8B90020A1
:10478000F74921F81400F74830F8140000EB8000D6
:104790004000F24941F82400F34830F8140000EBDF
:1047A00080004000F14941F82400F14830F814003D
:1047B000012809D00120EE4921F814000020ED491C
:1047C00021F81400EC4908550020EC490855EC4844
:1047D000005D012804DBEA48005D401EE8490855F9
:1047E00053E70120E7490855002C6CD1E648005DED
:1047F000022868D0E5480078002874D1DB49601CA5
:1048000051F8200000285FD100BF0821E048FCF7E4
:1048100098FB4FF48051DF48FCF795FB00BF012067
:10482000DA4948700020D8490855DB48007802284A
:1048300004D00020CF494880CF4948700220D64993
:104840000870C649601C51F8200070B1601C51F816
:104850002000D249884208D8C049601C51F8200085
:10486000401E0A46611C42F82100BC49601C51F8F8
:10487000200000285DD1C54948700220C249085572
:10488000B849601C31F8100000EB80004100B34AC9
:10489000601C42F82010B44931F8100000EB800091
:1048A0004100B24A601C42F8201000BF0821B848FD
:1048B000FCF747FB4FF48051B648FCF742FB00BFC2
:1048C0000020B549087034E0A849601C51F8200068
:1048D00078B3601C51F82000401E0A46611C42F863
:1048E000210026E0FFE70020A84908700120A64922
:1048F00008559C4830F8140000EB800040009749B0
:1049000041F82400984830F8140000EB8000400083
:10491000964941F8240000BF08219D48FCF711FB8F
:104920004FF480519B48FCF70CFB00BF00209A49D4
:104930000870022C6CD19448005D022868D093481E
:104940008078002874D18949601C51F82000002823
:104950005FD100BF61038F48FCF7F3FA21038D4854
:10496000FCF7F1FA00BF01208849C8700020864991
:1049700008558B480078022804D000207D49C88063
:104980007D49C8700220864908707449601C51F83E
:10499000200070B1601C51F820008049884208D87E
:1049A0006E49601C51F82000401E0A46611C42F806
:1049B00021006A49601C51F8200048BB002073495F
:1049C000C8700220704908556649601C31F8100013
:1049D00000EB80004100614A601C42F820106249EF
:1049E00031F8100000EB80004100604A601C42F882
:1049F000201000BF4FF480416648FCF7A2FA4FF444
:104A000000516448FCF79DFA00BF0020644908701B
:104A100035E05649601C51F8200080B3601C51F805
:104A20002000401E0A46611C42F8210027E0FFE7F3
:104A3000002056498870012053490855494830F8EC
:104A4000140000EB80004000444941F8240046482F
:104A500030F8140000EB80004000444941F8240085
:104A600000BF4FF480414B48FCF76BFA4FF4005104
:104A70004848FCF766FA00BF002049490870601CEE
:104A8000C4B202E601203F490855002C65D13E48DA
:104A9000005D012861D03D484078E8BB334850F8BC
:104AA0002400D0BB00BF08213948FCF74CFA4FF472
:104AB00080513848FCF745FA00BF0120334908709F
:104AC00000203149085534480078012804D00020DE
:104AD000284908802849087001202F4908701F487C
:104AE00050F8240060B11D4850F824002B4988423A
:104AF00006D81A4850F82400401E184941F82400EE
:104B0000164850F8240040BB0020204908700120BE
:104B10001D490855134801E050E043E030F8140007
:104B200000EB800040000D4941F824000E4830F8A9
:104B3000140000EB800040000C4941F8240000BF45
:104B400008211348FCF7FDF94FF480511148FCF798
:104B5000F8F900BF00201049087058E0F800002064
:104B6000004C0020EE000020E6000020F4080020A9
:104B7000CE000020A80000201F010020BA00002065
:104B8000B60000200C0100200801002010010020C8
:104B900000100140000C0140A100002000F60900B7
:104BA000A2000020FE4850F8240080B3FC4850F8D2
:104BB0002400401EFA4941F8240028E00020F94969
:104BC00048700220F8490855F849601C31F8100077
:104BD00000EB80004100F64A601C42F82010F549C5
:104BE00031F8100000EB80004100ED4A601C42F8F3
:104BF000201000BF0821F048FCF7A3F94FF48051C2
:104C0000EE48FCF79EF900BF0020ED490870022C29
:104C100065D1E548005D012861D0E248C078E0BB7D
:104C2000DF4850F82400C8BB00BF6103E348FCF72D
:104C30008AF92103E148FCF784F900BF0120D94932
:104C400088700020D8490855DE480078012804D033
:104C50000020DD498880DD4988700120D94908702D
:104C6000D34850F8240060B1D14850F82400D84906
:104C7000884206D8CE4850F82400401ECC4941F85E
:104C80002400CB4850F8240048BB0020C549887058
:104C90000120C5490855C54801E02DE020E030F865
:104CA000140000EB80004000C14941F82400C148D5
:104CB00030F8140000EB80004000B94941F82400AE
:104CC00000BF4FF48041BD48FCF73BF94FF4005161
:104CD000BA48FCF736F900BF0020BA49087035E041
:104CE000AF4850F8240088B3AD4850F82400401E67
:104CF000AB4941F8240029E00020AA49C8700220ED
:104D0000A9490855A949601C31F8100000EB800042
:104D10004100A74A601C42F82010A64931F8100053
:104D200000EB800041009E4A601C42F8201000BF4A
:104D30004FF48041A148FCF704F94FF400519F481B
:104D4000FCF7FFF800BF00209E490870601CC4B249
:104D50000DE300209F4908551CB908219648FCF72F
:104D6000F0F8012C03D121039448FCF7EAF8022C57
:104D700003D161039148FCF7E4F8032C04D14FF40C
:104D800000518E48FCF7DDF8F1E20020914908550A
:104D9000834850F8240060B1814850F82400401E38
:104DA0007F4941F824000020874921F814008749F1
:104DB00008557B4850F82400E8BB1CB908217E4800
:104DC000FCF7C1F8012C03D121037C48FCF7BBF8A8
:104DD000022C03D161037948FCF7B5F8032C04D108
:104DE0004FF400517548FCF7AEF8714850F82400B4
:104DF00070B100E0BEE26E4850F824007449884269
:104E000006D86B4850F82400401E694941F8240038
:104E1000674850F8240070B904206F4921F8140045
:104E2000624830F8140000EB80004000604941F80F
:104E30002400604800E007E030F8140000EB800038
:104E40004000574941F8240091E290E28FE20120AE
:104E5000604908556148005DB8BB6CB900BF0821C6
:104E60005548FCF76EF84FF480515448FCF769F848
:104E700000BF002052490870022C0CD100BF610312
:104E80004E48FCF75EF821034C48FCF75AF800BF87
:104E900000204C490870504830F81400504931F84F
:104EA0001410884208D01E204E4908554A4830F850
:104EB00014004B4921F814000120484908550020EE
:104EC000494908554949085509E0FFE74548005D4B
:104ED000012804DB4348005D401E42490855601C20
:104EE000C4B244E242E201203A4908553C4830F855
:104EF00014000B2824D16CB900BF08212E48FCF700
:104F000020F84FF480512D48FCF71BF800BF00201B
:104F10002B490870022C0CD100BF61032748FCF715
:104F200010F821032548FCF70CF800BF00202549A4
:104F3000087032202B4908550920294921F814000E
:104F40002848005D00287DD12848005D18B126481A
:104F5000005D022876D10CBB1348005D01287BD090
:104F600000BF08211448FBF7EEFF4FF480511348AF
:104F7000FBF7E7FF00BF1A4830F81400092803D0F8
:104F80000920174921F814000D480078012804D0A1
:104F900000200D4908800D49087029E05CE0000000
:104FA000F40800201001002008010020EE0000207D
:104FB000F8000020E600002000100140000C014035
:104FC000A1000020A2000020A80000201F01002056
:104FD00000F609000C010020004C0020C200002057
:104FE000D6000020BE000020CA000020C60000201D
:104FF0000120FE490870FE4850F8240060B1FC48CA
:1050000050F82400FB49884206D8F94850F824009B
:10501000401EF74941F82400F54850F82400D8B95B
:1050200000BF0821F448FBF78CFF4FF48051F34890
:10503000FBF787FF00BF0020EC4908700120F04912
:10504000085500E066E0EF4830F8140000EB8000FF
:105050004000E74941F82400022C52D1E848005DA5
:1050600001284ED000BF6103E448FBF76CFF210329
:10507000E248FBF766FF00BFE34830F81400092858
:1050800003D00920E04921F81400E0480078012805
:1050900004D00020DE498880DE4988700120DB4989
:1050A0000870D34850F8240060B1D14850F824006B
:1050B000D049884206D8CE4850F82400401ECC493A
:1050C00041F82400CA4850F82400D0B900BF4FF47A
:1050D0008041CA48FBF735FF4FF40051C748FBF742
:1050E00030FF00BF0020C94908700120C44908559D
:1050F000C44830F8140000EB80004000BC4941F87F
:1051000024000020C44908550220C44908551E2027
:10511000C3490855C348005D012804DBC148005D50
:10512000401EC0490855BD48005D022808D0BC4853
:10513000005D012804DBBA48005D401EB8490855EF
:10514000601CC4B213E10120B7490855AE4830F8DD
:105150001400092824D16CB900BF0821A648FBF728
:10516000F0FE4FF48051A548FBF7EBFE00BF002096
:105170009E490870022C0CD100BF61039F48FBF7C9
:10518000E0FE21039D48FBF7DCFE00BF00209F49A5
:1051900008703220A34908550B209B4921F81400C0
:1051A000A048005D00287DD19D48005D18B19B4856
:1051B000005D012876D1ECBB9148005D022856D0F5
:1051C00000BF08218C48FBF7BCFE4FF480518B4890
:1051D000FBF7B9FE00BF8C4830F814000B2803D051
:1051E0000B20894921F8140080480078022804D057
:1051F0000020874948808749487002207B49087011
:105200007B49601C51F8200070B1601C51F82000EF
:105210007849884208D87649601C51F82000401E21
:105220000A46611C42F821007149601C51F82000B7
:1052300000B900E01BE000BF08216F48FBF781FECA
:105240004FF480516D48FBF77CFE00BF002067499A
:10525000087002206A4908556A49601C31F810003C
:1052600000EB80004100624A601C42F82010022CD2
:105270005AD16348005D022856D000BF61035F48E1
:10528000FBF75FFE21035D48FBF75DFE00BF5E4854
:1052900030F814000B2803D00B205B4921F81400D0
:1052A0005A4800E049E00078022804D0002058491C
:1052B000C8805849C8700220544908704C49601C85
:1052C00051F8200070B1601C51F820004949884213
:1052D00008D84749601C51F82000401E0A46611C4E
:1052E00042F821004249601C51F82000E0B900BF9B
:1052F0004FF480414148FBF724FE4FF400513F48F2
:10530000FBF71FFE00BF00204049087002203C4907
:1053100008553C49601C31F8100000EB800041004A
:10532000334A601C42F8201000203B4908550120F8
:105330003A4908551E203A4908553A48005D012867
:1053400004DB3848005D401E364908553348005D8F
:10535000012808D03248005D012804DB3048005D98
:10536000401E2F490855601CC4B200E000BF00BFBA
:10537000601CC4B2032C7FF73FA910BD10B50121FA
:105380002A48FCF73AFB01212948FAF7CCFF10BD67
:105390007CB5044604F0010000287DD00221254898
:1053A000FBF7D1FD20211448FBF7CDFDFDF7AAFC4A
:1053B000FFF7E4FF7B20FBF7A8FEE8B300BF08215E
:1053C0000D48FBF7BEFD4FF480510C48FBF7B9FDCB
:1053D00000BF00BF4FF480410848FBF7B2FD4FF417
:1053E00000510648FBF7ADFD00BF26E0A1000020FC
:1053F000F800002000F6090000100140000C0140F8
:1054000008010020EE000020D6000020A2000020AD
:10541000A80000201F010020C2000020CA000020B8
:10542000C6000020BE0000200C0100200800024041
:1054300000240140000801400BE0E6480021016023
:1054400041601021E44800F0C2FC1021E34800F064
:10545000BEFCFBF7C3FFE248007838B100F0A0FBC8
:105460004FF4FA614FF40060FDF7D5FBDD48807F13
:1054700038B1FDF70EFA40F6B8314FF48040FDF731
:10548000CAFB4FF4FA618020FDF7C5FB4FF47A7137
:105490001020FDF7C0FB00E005E042F210714FF470
:1054A0000050FDF7B8FB2021CF48FBF73DFDC0F1D0
:1054B0000100C5B22A462021CB48FBF746FD04F087
:1054C000100088B1C9480078012807D1C848007881
:1054D000252805D0C6480078262801D0FFF789F88E
:1054E00064211020FDF797FB04F0800020B3BF4833
:1054F0000078012807D1BE48007825281CD0BC4878
:105500000078262818D00020BA490870FEF7E4FC7D
:105510004FF496718020FDF77EFBB7480078FA289B
:1055200005DCB5480078401CB349087004E0012050
:1055300000F03EF900F041F904F0020038B101201A
:10554000AE490870AE49AF480078FEF7CBF904F4D5
:10555000801000284BD0FEF73FF90020A5490870C5
:10556000A2480078012828D1A1480078252824D114
:10557000A5480078012802D1FEF78EF80AE000BFA6
:1055800008219948FBF7DDFC4FF480519F48FBF759
:10559000DAFC00BF9E480078012802D1FDF7A5FF84
:1055A00025E000BF4FF480419848FBF7CAFC4FF458
:1055B00000519648FBF7C7FC19E08C480078012899
:1055C00015D18B480078262811D1924800780128FF
:1055D00002D1FDF7E8FE0AE000BF08218248FBF790
:1055E000B0FC4FF480518948FBF7ADFC00BF04F4D8
:1055F000802050B100BF08217B48FBF7A2FC4FF48C
:1056000080518248FBF79DFC00BF04F4002058B194
:1056100000BF4FF480417D48FBF793FC4FF40051ED
:105620007A48FBF78EFC00BF04F00400A8B17A486A
:105630000078401E79490870012077490870774842
:1056400000787049087075480278411C6C4800F079
:10565000A5FB03210220FDF7DEFA04F40060E0B1AF
:1056600000206F49087000226E4801786E48FDF7EF
:105670008FFE002141F20D2000F09BFA012141F242
:105680000E2000F096FA0320009008230022114615
:1056900001906648007800F025FB04F48050E0B1EA
:1056A0004FF480515048FBF73FFCC0F10100C5B2F8
:1056B0002A464FF480514C48FBF747FC5A4800F00B
:1056C00047FB58490870584956480078FDF78AFC4E
:1056D00032214FF40060FDF79EFA04F4804038B1A7
:1056E000FDF738FC4FF496714FF48040FDF793FAC4
:1056F00004F4004038B101204D4908704D494E482E
:105700000078FDF7A0FB04F48030B0B14B4800787E
:10571000401E4B49087001204849087048480078ED
:105720004549087046480278411C424800F036FB63
:1057300003214FF40040FDF76EFA04F4005088B3E3
:1057400000202D4908702B480078322805DC2948B4
:105750000078401C2749087004E0012000F028F878
:1057600000F02BF82E480078B42805DC2C4800788F
:10577000401C2B4908700FE00120194908700020D7
:1057800027490870FDF7BEFA00F00AFA4FF4FA61F3
:105790004FF40060FDF73FFA42F210714FF40050F1
:1057A000FDF739FA7CBD10B5FCF78DF910BD7047D7
:1057B00000F0010181F3138870472248006800F46B
:1057C000E06021490843001D1E490860BFF3408F77
:1057D00000BFFEE7004C0020084C0020184C0020C1
:1057E0001401002077000020001001405701002024
:1057F0009D00002028010020290100202B0000200E
:10580000F40600205D00002062010020000C014031
:1058100063010020640100203100002068030020A3
:105820002A01002039000020E8050020A000002007
:105830002A000020F40700205E0000203000002035
:10584000E80200200CED00E00000FA05F8B506467D
:105850000C46154604200090002708E021883046B9
:10586000FBF7EBF80090B81C87B2B61CA41CAF4243
:1058700003DA9DF800000428F0D02846F8BD2DE991
:10588000F04FA1B00646894614460025A8460420DC
:105890000090FAF790FF4FEA962A4FEA8A2AC6F359
:1058A000090BCBF58067BC4202D84FF001080AE033
:1058B000E51BC5F3090018B9012000EB952802E0AB
:1058C000022000EB9528002505E00AEB8520FAF779
:1058D000B1FF00906D1C4545F7D39DF800000428EA
:1058E00004D04FF0FF3021B0BDE8F08F224649468A
:1058F00001A800F053FA04F0010010B104F101080E
:1059000000E0A0461FFA88F201A93046FFF79EFF8B
:10591000FAF75EFF2046E6E710B50346002003E0F5
:1059200013F8014B0C54401C9042F9DB10BD0000F1
:10593000704700EB8002910000E0491E0029FCD175
:10594000704770B50446FA48007850B30025002629
:1059500023E004F0800020B18021F648FBF7F1FA43
:1059600003E08021F348FBF7EEFA6006040E6806B8
:10597000050E2021EF48FBF7E4FA1420FFF7D9FFCA
:105980004021EC48FBF7C3FA08B145F0010520219E
:10599000E848FBF7D8FA701CC6B2082ED9DB2846B7
:1059A00070BD00BF0221E448FCF7F3F90028F9D0EC
:1059B0002146E148FCF79AF900BF0121DE48FCF7D7
:1059C000E8F90028F9D0DC48FCF792F9C0B2E7E723
:1059D00010B54FF47A70D949086000BF1021D5483E
:1059E000FBF7B1FA4420FFF7ACFF0020FFF7A9FF57
:1059F00004461021CF48FBF7A4FAFCF764F8CF481F
:105A00000068401ECD490860FF2C03D0084600689E
:105A10000028E3D1C948006810B90020C8490870BF
:105A200010BD70B504460D46FFF7D2FF1021C148E6
:105A3000FBF789FA4420FFF784FF04E00020FFF71A
:105A400080FF04F8010B2800A5F10101CDB2F5D1CA
:105A50001021B848FBF775FA70BD70B504460D46C5
:105A6000FFF7B6FF1021B348FBF76DFA03E014F817
:105A7000010BFFF766FF2800A5F10101CDB2F6D1B9
:105A80001021AC48FBF75DFA70BD08B534208DF8E5
:105A9000000002208DF8010002216846FFF7DDFFBB
:105AA00008BD08B534208DF8000008208DF80100ED
:105AB00002216846FFF7D1FF08BD38B50446202013
:105AC0008DF8000000208DF801008DF802008DF89F
:105AD000030004216846FFF7C0FF09212046FFF7B5
