:020000040800F2
:10000000A0490020450100085D2E00085F2E000871
:10001000632E0008672E00086B2E00080000000009
:100020000000000000000000000000006F2E00082B
:10003000712E000800000000732E0008752E0008C5
:100040005F0100085F0100085F0100085F01000810
:100050005F0100085F010008772E0008972E000856
:100060005F0100085F010008C52E00085F0100085D
:10007000CB3000085F010008612F00085F01000815
:100080005F010008153000085F0100085F010008EB
:100090005F0100085F0100085F010008C12E000831
:1000A0005F0100085F0100085F0100085F010008B0
:1000B0006F3300085F0100085F0100085F0100085E
:1000C0005F0100085F0100085F0100085F01000890
:1000D0005F010008AD2F000863300008212F0008E1
:1000E000C32E00085F0100085F0100085F010008DF
:1000F0005F0100085F0100085F0100085F01000860
:100100005F0100085F010008813400085F010008FA
:1001100079310008DF3100085F0100085F01000845
:100120005F0100085F0100085F0100082931000835
:10013000DFF80CD012F050FC00480047412E0008B8
:10014000A04900200648804706480047FEE7FEE732
:10015000FEE7FEE7FEE7FEE7FEE7FEE7FEE7FEE777
:100160003F2D00083101000831490143314A116037
:10017000704770B5002100230F22C47804B32D4CC2
:10018000246804F4E064C4F5E064210AC1F10403C6
:10019000CA40447804FA03F18478144021430901E9
:1001A000254C0678A155047804F01F050124AC40C5
:1001B00005786D11AD0005F1E025C5F8004109E0B5
:1001C000047804F01F050124AC401C4D067876111C
:1001D00045F8264070BD1A4A0A400243154B1B1FC2
:1001E0001A60704739B1134A121D12680243114B4D
:1001F0001B1D1A6006E00F4A121D126882430D4B48
:100200001B1D1A607047042808D14FF0E0210969CE
:1002100041F004014FF0E022116107E04FF0E021CE
:10022000096921F004014FF0E022116170470000DC
:100230000000FA050CED00E000E400E080E100E0E1
:1002400080FFFF1F10B50446FA48844208D10121FF
:10025000401501F0C1F80021601501F0BDF817E06C
:10026000F548844208D10121001501F0B5F80021BC
:10027000201501F0B1F80BE0F048844208D10121CB
:10028000C80301F0A9F800214FF4004001F0A4F8E0
:1002900010BD30B50246002000235068E84C2040D5
:1002A0000D790C6844EA0524204350609068E54CC1
:1002B0002040D1E902542C434D7944EA45042043BF
:1002C0009060D06A20F470000C7C641EE4B223437A
:1002D00040EA0350D06230BD0021016001714171DC
:1002E0008160C16001210174704721B1826842F0D0
:1002F0000102826003E0826822F00102826070479E
:1003000021B1826842F48072826003E0826822F444
:1003100080728260704710B50023CBB21AB1446876
:100320001C43446002E044689C43446010BD816803
:1003300041F0080181607047014600208A6802F0A0
:1003400008020AB1012000E000207047816841F0F6
:10035000040181607047014600208A6802F00402AF
:100360000AB1012000E00020704721B1826842F408
:10037000A002826003E0826822F4A00282607047DB
:10038000014600208A6802F480020AB1012000E0E0
:100390000020704710B50A4600210023416821F46F
:1003A0006041531E41EA4331416010BD21B14268B2
:1003B00042F40062426003E0426822F4006242605C
:1003C0007047F0B504460D4600200021092D11DDCF
:1003D000E068A5F10A0606EB4607072606FA07F1CC
:1003E0008843A5F10A0606EB460603FA06F1084320
:1003F000E0600CE0206905EB4507072606FA07F1E7
:10040000884305EB450603FA06F108432061072AF5
:100410000FDA606B561E06EB86071F2606FA07F1F9
:100420008843561E06EB860605FA06F1084360630C
:1004300022E00D2A0FDA206BD61F06EB86071F2657
:1004400006FA07F18843D61F06EB860605FA06F181
:100450000843206310E0E06AA2F10D0606EB860770
:100460001F2606FA07F18843A2F10D0606EB860661
:1004700005FA06F10843E062F0BD21B1826842F45A
:100480008012826003E0826822F4801282607047EA
:100490000146C86C80B2704766484C3000687047AF
:1004A00021B1426842F48062426003E0426822F473
:1004B00080624260704721B1426842F480524260DB
:1004C00003E0426822F48052426070470A460021ED
:1004D000816821F4E04111438160704721B1826855
:1004E00042F40042826003E0826822F400428260AB
:1004F000704721B1826842F40212826003E0826890
:1005000022F4021282607047014600208A6802F4D9
:1005100000120AB1012000E000207047F0B5044647
:100520001546002000220026092911DDE068A1F10E
:100530000A0707EB470C072707FA0CF29043A1F1D3
:100540000A0707EB470703FA07F21043E0600CE0E5
:10055000206901EB410C072707FA0CF2904301EBED
:10056000410703FA07F210432061A06BC0F3015664
:10057000EF1C06F1010CA7EB0C0707EB870C1F27FC
:1005800007FA0CF29043EF1C06F1010CA7EB0C07E5
:1005900007EB870701FA07F21043A063F0BD10B51F
:1005A0000A4600210023816B21F44011531E41EAC9
:1005B0000351816310BD08B5002300930090009B98
:1005C0000B440093009B1A6008BD08B5024600204A
:1005D0000090009201F12800009B184400900098C0
:1005E000006880B208BD0A4600214168164B1940D8
:1005F0001143416070474162826270470A460021A0
:10060000416821F01F0111434160704740B1094921
:100610000831096841F40001064A0832116007E018
:1006200004490831096821F40001024A08321160C6
:10063000704700000024014000280140003C0140B8
:10064000FFFEF0FFFDF7F1FFFFFD3FFF0246002038
:1006500013680B400BB1012000E000207047CA4333
:100660000260704770B502460020002300240B1280
:100670005568CEB205EA060415681D4015B10CB1E7
:10068000012000E0002070BD00220A12D343036065
:1006900070470000002044490860091D0860091DDA
:1006A0000860091D086041483F49143108607047DF
:1006B00000213D498279002A3AD00A46126803682F
:1006C0009A430B461A600A1D126803689A430B1D71
:1006D0001A60027911440A6803681A430A60324AB0
:1006E0000832126803689A432F4B08331A601A1DA8
:1006F000126803689A432C4B0C331A604279102A13
:100700000ED11A1F126803681A43274B08331A6068
:100710001A1D126803681A43234B0C331A600DE04C
:100720002149427911440A6803681A430A6005E0C6
:10073000027911440A6803689A430A6070470021ED
:10074000016001710C2141710021817170471649CE
:10075000103109680143144A103211607047014694
:100760000020114A143212680A400AB1012000E048
:10077000002070470C491431086070470146002082
:100780000022094B1B6803EA0102074B14331B6864
:100790000B4013B10AB1012000E00020704702496C
:1007A000143108607047000000040140FFFF0F0093
:1007B00001460020FE4A106800F03800084310602F
:1007C0007047FB49096821F00801F94A1160114698
:1007D0000968014311607047F549096821F010016B
:1007E000F34A116011460968014311607047F148EE
:1007F000EF494860F04848607047EE48EC4948606F
:10080000ED4848607047EA48006940F08000E849D8
:1008100008617047E648006940F08000E4490861DB
:1008200070470420E249C96801F0010109B10120C3
:100830000EE0DF49C96801F0040109B1022007E0B8
:10084000DB49C96801F0100109B1032000E0042070
:10085000704700B502460423FFF7E3FF034603E0B9
:10086000FFF7DFFF0346521E012B01D1002AF7D10B
:1008700002B90523184600BD30B5044604254FF4DF
:100880003020FFF7E6FF0546042D17D1C848006960
:1008900040F00200C649086108464461006940F022
:1008A000400008614FF43020FFF7D3FF0546C048F1
:1008B000006941F6FD710840BD490861284630BD18
:1008C00010B504244FF43020FFF7C3FF0446042C76
:1008D00016D1B748006940F00400B54908610846E0
:1008E000006940F0400008614FF43020FFF7B1FF8D
:1008F0000446AF48006941F6FB710840AC49086105
:10090000204610BD00B502460423FFF78AFF0346C8
:1009100003E0FFF786FF0346521E012B01D1002A98
:10092000F7D102B90523184600BD10B504244FF4D1
:100930003020FFF7E7FF0446042C16D19C480069DD
:1009400040F004009A4908610846006940F0400000
:1009500008614FF43020FFF7D5FF04469448006942
:1009600041F6FB71084092490861204610BD002005
:100970008F49C96901F0020109B1012000E000209E
:10098000704730B5A5250424FFF7F1FF00B100251D
:100990004FF43020FFF75DFF0446042C3AD1854820
:1009A00083498860844888600846006940F02000D8
:1009B00008610846006940F0400008614FF43020AB
:1009C000FFF747FF0446042C1BD17948006941F624
:1009D000DF710840764908610846006940F0100060
:1009E000086176480580E002FFF733FF0446052CD6
:1009F00010D06F48006941F6EF7108406C490861FA
:100A000008E0052C06D06A48006941F6EF710840FD
:100A100067490861204630BD78B506460C46042576
:100A200000200090E802FFF714FF0546042D24D1B2
:100A30005F48006940F001005D4908613480E802C8
:100A4000FFF707FF0546042D10D1B01C0090200CC5
:100A500000990880E802FFF7FCFE0546544800694B
:100A600041F6FE7108405249086106E050480069AD
:100A700041F6FE7108404E490861284678BD70B5C0
:100A800004460D460426F002FFF7E3FE0646042E58
:100A900011D14748006940F00100454908612580AF
:100AA000F002FFF7D6FE06464148006941F6FE71A6
:100AB00008403F490861304670BD70B505460E4696
:100AC0000424E002FFF7C5FE0446042C17D1394880
:100AD00037498860384888600846006940F010004F
:100AE00008612E80E002FFF7B4FE0446052C06D014
:100AF0002F48006941F6EF7108402D4908612046F2
:100B000070BD2DE9F04304464FF6FF763746B046F8
:100B1000B1460425E443E6B2C4F30727C4F307480B
:100B20004FEA1469E802FFF794FE0546042D49D107
:100B300020481F498860204888600846006940F0C6
:100B400010000861FF2E06D01C4808300680E8021D
:100B5000FFF77FFE0546042D08D1FF2F06D017486A
:100B60000A300780E802FFF774FE0546042D0AD11B
:100B7000B8F1FF0F07D011480C30A0F80080E80250
:100B8000FFF767FE0546042D0AD1B9F1FF0F07D024
:100B90000A480E30A0F80090E802FFF75AFE05461A
:100BA000052D0FD00248006941F6EF71084007E0BB
:100BB0000020024023016745AB89EFCD00F8FF1FFD
:100BC000664908612846BDE8F08330B5054604242F
:100BD0004FF43020FFF73DFE0446042C41D160481D
:100BE0005E4988605F4888600846006940F02000E0
:100BF00008610846006940F0400008614FF4302069
:100C0000FFF727FE0446042C22D15448006941F620
:100C1000DF710840514908610846006940F0100042
:100C200008611DB100205049088002E0A5204E490E
:100C300008804FF43020FFF70CFE0446052C10D03E
:100C40004648006941F6EF7108404449086108E0F0
:100C5000052C06D04148006941F6DF7108403F4944
:100C60000861204630BDF0B505460E4617460424FF
:100C70003B483A4988603B488860E002FFF7E9FD5D
:100C80000446042C19D13548006940F0100033495E
:100C9000086147F0F800304328433349891C088035
:100CA000E002FFF7D6FD0446052C06D02B4800696C
:100CB00041F6EF710840294908612046F0BD2748F8
:100CC000C069800870472548006A704700202349A2
:100CD000096801F0200109B1012000E000207047FF
:100CE00029B11E4A126902431C4B1A6104E01B4AD7
:100CF00012698243194B1A6170470146002001298D
:100D000008D1164AD26902F001020AB1012008E0B6
:100D1000002006E0114AD2680A400AB1012000E032
:100D2000002070470D49C860704704200B49C9680E
:100D300001F0010109B101200EE00849C96801F084
:100D4000040109B1022007E00449C96801F010015B
:100D500009B1032000E00420704700000020024099
:100D600023016745AB89EFCD00F8FF1F10B504469E
:100D7000CC48844208D10121042000F02DFB002141
:100D8000042000F029FB46E0C748844208D1012135
:100D9000082000F021FB0021082000F01DFB3AE0B4
:100DA000C248844208D10121102000F015FB002127
:100DB000102000F011FB2EE0BD48844208D1012133
:100DC000202000F009FB0021202000F005FB22E09C
:100DD000B848844208D10121402000F0FDFA0021EA
:100DE000402000F0F9FA16E0B348844208D101210E
:100DF000802000F0F1FA0021802000F0EDFA0AE0F6
:100E0000AE48844207D10121801500F0E5FA0021A7
:100E1000A01500F0E1FA10BD10B50121084600F060
:100E2000DBFA0021012000F0D7FA10BD2DE9F041D6
:100E3000024600250026002000230024002791F808
:100E400003C00CF00F0591F803C00CF0100CBCF1BE
:100E5000000F03D091F802C04CEA050591F800C0DC
:100E6000BCF1000F31D0146800202BE04FF0010CD2
:100E70000CFA00F3B1F800C00CEA03069E4220D140
:100E800083004FF00F0C0CFA03F7BC4305FA03FC88
:100E90004CEA040491F803C0BCF1280F06D14FF0CE
:100EA000010C0CFA00FCC2F814C00AE091F803C06F
:100EB000BCF1480F05D14FF0010C0CFA00FCC2F850
:100EC00010C0401C0828D1D31460B1F800C0BCF198
:100ED000FF0F34DD546800202EE000F1080C4FF0C5
:100EE000010808FA0CF3B1F800C00CEA03069E42B0
:100EF00021D183004FF00F0C0CFA03F7BC4305FA25
:100F000003FC4CEA040491F803C0BCF1280F05D19E
:100F100000F1080C08FA0CF8C2F8148091F803C02C
:100F2000BCF1480F07D100F1080C4FF0010808FA96
:100F30000CF8C2F81080401C0828CED35460BDE8DD
:100F4000F0814FF6FF710180022181700421C17090
:100F500070470246002093680B400BB1012000E06F
:100F6000002070470146886880B270470246002022
:100F7000D3680B400BB1012000E000207047014610
:100F8000C86880B2704701617047416170470AB11B
:100F9000016100E041617047C16070474FF48032E9
:100FA0000A43826181618261826982697047024677
:100FB0000020434B18684FF68073184040EA021037
:100FC00008433F4B186070473E49C8617047F0B511
:100FD0000A46002300240021002500F00046B6F157
:100FE000004F02D1364EF16901E0354E7168C0F311
:100FF000034583B200F44016B6F5401F08D121F036
:1010000070612F4E766826F070662D4F7E6012E07C
:1010100000F48016B6F5801F06D1032606FA05F403
:10102000A14341F0706106E0460D360103FA06F671
:10103000B14341F0706122B1460D360103FA06F664
:10104000314300F00046B6F1004F02D11C4EF16171
:1010500001E01B4E7160F0BD30B500228B071C0F04
:101060000F2303FA04F2164B08338C1053F8243084
:101070009343134C08348D1044F8253023468C10CC
:1010800053F824308C07240F00FA04F423430C4C4B
:1010900008348D1044F8253030BD0A49DC31086031
:1010A0007047000000080140000C014000100140A2
:1010B0000014014000180140001C014000200140C4
:1010C0000000014000002042DF48006840F00100BD
:1010D000DD49086008464068DC490840DA49486054
:1010E00008460068DA490840D749086008460068A1
:1010F00020F4802008600846406820F4FE00486024
:101100004FF41F0088607047CF49096821F480318F
:10111000CD4A11601146096821F480211160B0F5B3
:10112000803F03D0B0F5802F0ED106E0C649096894
:1011300041F48031C44A116007E0C349096841F4B1
:10114000A021C14A116000E000BF00BF704710B588
:1011500001460022002300204A11012A02D1BA4C84
:10116000236806E0022A02D1B74C236A01E0B64C9C
:10117000636A01F01F02012494401C400CB101205D
:1011800000E0002010BD38B50020009000240025AC
:1011900000BF3120FFF7DBFF05460098401C0090A0
:1011A0000098B0F5A06F01D0002DF2D03120FFF7EC
:1011B000CEFF08B1012400E00024204638BD0146DE
:1011C0000020A14A106820F0F80040EAC100106039
:1011D0007047A04908607047024600209A4B586843
:1011E00020F47C1042EA01031843974B5860704783
:1011F00098490866704701460020934A506820F0DD
:1012000003000843506070478F48406800F00C00AE
:101210007047014600208C4A506820F0F0000843D7
:101220005060704701460020874A506820F4E06013
:1012300008435060704701460020834A506820F4FC
:10124000605040EAC1005060704729B17E4A527A2E
:1012500002437D4B5A7204E07B4A527A82437A4BB6
:101260005A7270477B49D8310860704701460020A8
:10127000754A506820F44040084350607047002190
:10128000714A20321170704A82F82010012802D071
:1012900004280AD104E001216B4A2032117005E0D4
:1012A0000521694A2032117000E000BF00BF70477D
:1012B0006949086070476449096A0143624A1162DA
:1012C0007047654944390860704730B500210022F5
:1012D000002400235C4D6D6805F00C0121B1042948
:1012E00005D0082923D105E05C4D056022E05B4D67
:1012F00005601FE0544D6D6805F47012524D6D6825
:1013000005F48034022505EB92421CB9544D554337
:1013100005600BE04C4D6D6805F400351DB1504D76
:101320005543056002E04D4D5543056002E04B4DCD
:10133000056000BF00BF444D6D6805F0F00109096C
:10134000484D6B5C0568DD4045603F4D6D6805F4B8
:10135000E061090A434D6B5C4568DD4085603A4DAC
:101360006D6805F46051C90A3E4D6B5C4568DD400F
:10137000C560354D6D6805F44041890B3A4D6B5C95
:10138000C568B5FBF3F5056130BD29B12E4A526938
:1013900002432D4B5A6104E02B4A526982432A4B87
:1013A0005A61704729B1284A92690243264B9A61D3
:1013B00004E0254A92698243234B9A61704729B120
:1013C000214AD2690243204BDA6104E01E4AD26905
:1013D00082431D4BDA61704729B11B4AD268024330
:1013E000194BDA6004E0184AD2688243164BDA607F
:1013F000704729B1144A12690243134B1A6104E081
:10140000114A12698243104B1A61704712494039E0
:10141000086070470F49C86470470B49C87170472E
:101420000948406A40F080700749486270470146A9
:101430000020054A92680A400AB1012000E000201D
:101440007047014988727047001002400000FFF8A1
:10145000FFFFF6FE000042428004424200127A0082
:1014600000093D00000000201000002010B50446D7
:10147000FE48844208D10121C014FFF7ADFF0021CE
:10148000E014FFF7A9FFC4E0B4F1804F08D10121B7
:101490000846FFF7AEFF00210120FFF7AAFFB8E0E2
:1014A000F348844208D101210220FFF7A2FF002166
:1014B0000220FFF79EFFACE0EE48844208D10121F4
:1014C0000420FFF796FF00210420FFF792FFA0E021
:1014D000E948844208D101210820FFF78AFF002152
:1014E0000820FFF786FF94E0E448844208D10121F8
:1014F0001020FFF77EFF00211020FFF77AFF88E021
:10150000DF48844208D101212020FFF772FF00212B
:101510002020FFF76EFF7CE0DA48844208D10121E9
:101520004014FFF759FF00216014FFF755FF70E0EA
:10153000D548844209D10121C804FFF74DFF00219D
:101540004FF40020FFF748FF63E0D048844209D100
:1015500001210805FFF740FF00214FF48010FFF73D
:101560003BFF56E0CA48844209D101214805FFF7F4
:1015700033FF00214FF40010FFF72EFF49E0C5486C
:10158000844208D101214020FFF733FF0021402091
:10159000FFF72FFF3DE0C048844208D101218020A1
:1015A000FFF727FF00218020FFF723FF31E0BB4832
:1015B000844208D101218015FFF71BFF0021A015EF
:1015C000FFF717FF25E0B648844209D1012108043E
:1015D000FFF702FF00214FF48030FFF7FDFE18E017
:1015E000B048844209D101214804FFF7F5FE0021EB
:1015F0004FF40030FFF7F0FE0BE0AB48844208D117
:1016000001218804FFF7E8FE00214FF48020FFF756
:10161000E3FE10BD00220288944B98420ED0994BF5
:1016200098420BD0B0F1804F08D0914B984205D032
:10163000904B984202D0904B984204D14FF68F7352
:101640001A404B881A438D4B984207D08C4B9842D6
:1016500004D04FF6FF431A40CB881A4302808B8890
:1016600083850B880385814B98420BD0854B98422C
:1016700008D08B4B984205D08A4B984202D08A4BB7
:10168000984201D10B7A038601238382704770B59B
:10169000002400220023058C4FF6FE763540058499
:1016A000028C8388048B4FF68F752C40B51E2C401E
:1016B0000D882C43751E2A400D892A434D882A43E4
:1016C0006A4DA8420BD06F4DA84208D0744DA84275
:1016D00005D0744DA84202D0734DA84213D14FF6E5
:1016E000F7752A404D892A434FF6FB752A408D88AD
:1016F0002A434FF6FF652B404FF6FF552B408D894F
:101700002B43CD892B4383800483CD888586028437
:1017100070BD70B5002400220023058C4FF6EF76D3
:1017200035400584028C8388048B48F6FF752C4075
:101730004FF6FF452C400D884FF6FF7606EA05254B
:101740002C434FF6DF752A400D8906EA05152A431A
:101750004D8806EA05152A43444DA84202D0494D5A
:10176000A8421DD14FF67F752A404D894FF6FF766E
:1017700006EA05152A434FF6BF752A408D8806EA0A
:1017800005152A434FF6FF352B404FF2FF752B40CE
:101790008D8906EA85052B43CD8906EA85052B430D
:1017A00083800483CD880587028470BD70B50024D2
:1017B00000220023058C4FF6FF6635400584028C1D
:1017C0008388848B4FF68F752C404FF6FC752C4028
:1017D0000D882C434FF6FF552A400D894FF6FF76B2
:1017E00006EA05252A434D8806EA05252A431F4DAA
:1017F000A84202D0234DA8421DD14FF2FF752A40C6
:101800004D894FF6FF7606EA05252A434FF6FF3548
:101810002A408D8806EA05252A434EF6FF752B409F
:101820004DF6FF752B408D8906EA05152B43CD89B2
:1018300006EA05152B4383808483CD88858702843F
:1018400070BD70B5002200230024058C4EF6FF7693
:1018500035400584038C8488828B48F6FF752A40C6
:101860004FF6FF452A400D8820E00000002C014083
:101870000004004000080040000C00400010004040
:101880000014004000340140004C01400050014071
:101890000054014000180040001C0040002000409F
:1018A0000040014000440140004801404FF6FF76EF
:1018B00006EA05252A434DF6FF752B400D8906EAF9
:1018C00005352B434D8806EA05352B43FA4DA842D2
:1018D00002D0FA4DA84208D14BF6FF752C408D89F5
:1018E0004FF6FF7606EA85152C4384808283CD88E7
:1018F000A0F84050038470BD828B4FF2FF331A4032
:101900008283828B4FF6FF7303EA01231A4382839B
:101910007047F0B50C461546002200210026078CC2
:101920004EF6FF7C07EA0C070784828B018C4FF68A
:10193000FF7707EA043640F6FF473A404FF6FF7755
:1019400007EA05273A434FF6FF7707EA03373A439A
:10195000D94FB8420ED0D94FB8420BD0B0F1804F1A
:1019600008D0D74FB84205D0D64FB84202D0D64F94
:10197000B84206D14DF6FF77394046F480573943D7
:1019800005E047F6FF57394044F4805739438283D6
:101990000184F0BD828B4FF6F3731A408283828BF1
:1019A0000A4382837047F0B50C4615460022002199
:1019B0000026078C4FF6FF6C07EA0C070784828B22
:1019C000018C4FF6FF7707EA04264FF60C773A4072
:1019D0004FF6FF7707EA03172F433A43B64FB84253
:1019E0000ED0B64FB8420BD0B0F1804F08D0B44FF4
:1019F000B84205D0B34FB84202D0B34FB84206D177
:101A00004FF6FF57394046F48077394305E04FF2EF
:101A1000FF57394044F48077394382830184F0BD15
:101A2000028B4FF2FF331A400283028B4FF6FF7393
:101A300003EA01231A4302837047F0B50C461546AA
:101A4000002200210026078C4FF6EF7C07EA0C07E6
:101A50000784028B018C4FF6FF7707EA041640F6E5
:101A6000FF473A404FF6FF7707EA03373A434FF60E
:101A7000FF7707EA05273A438F4FB8420ED08F4FC2
:101A8000B8420BD0B0F1804F08D08D4FB84205D08E
:101A90008C4FB84202D08C4FB84206D14FF6DF7758
:101AA000394046F01007394305E04FF65F7739407B
:101AB00044F01007394302830184F0BD028B4FF6D6
:101AC000F3731A400283028B0A4302837047F0B516
:101AD0000C46154600220021068C4FF6FE773E404C
:101AE0000684028B018C4FF60C7632407E1C06EA8F
:101AF00003162E433243704EB0420ED06F4EB042AA
:101B00000BD0B0F1804F08D06D4EB04205D06D4E75
:101B1000B04202D06C4EB04206D14FF6FD76314055
:101B200044F00106314305E04FF6F576314044F0CC
:101B30000106314302830184F0BD70B505460C46B1
:101B40005D4885420ED05D4885420BD0B5F1804F8F
:101B500008D05B48854205D05A48854202D05A4891
:101B6000854200D100E000BF208850B92389A288B7
:101B700061882846FFF7ABFFE1882846FFF79EFF04
:101B800025E0208804280AD12389A2886188284674
:101B9000FFF753FFE1882846FFF742FF17E0208850
:101BA00008280AD12389A28861882846FFF7FBFE0E
:101BB000E1882846FFF7EEFE09E02389A2886188C4
:101BC0002846FFF7A6FEE1882846FFF795FE70BD80
:101BD0002DE9F04105460C4600260127608808B92A
:101BE000022600E00026A088012801D1022700E09B
:101BF00001272088A0B92389A28861882846FFF799
:101C000066FFE1882846FFF759FF23893A463146A7
:101C10002846FFF712FFE1882846FFF701FF13E08F
:101C20002389A28861882846FFF707FFE1882846B4
:101C3000FFF7F6FE23893A4631462846FFF747FF6D
:101C4000E1882846FFF73AFFBDE8F0810A884B8813
:101C50001A438B881A43CB881A430B891A434B8942
:101C60001A438B891A43A0F8442070474FF6FF713E
:101C7000818000210180C180418001727047002174
:101C8000018041808180C180018141818181C18148
:101C90007047002101804180012181800021C180A5
:101CA000018170470021018041808180C1800181D4
:101CB0004181818170470000002C014000340140C7
:101CC0000004004000080040000C004021B10288E0
:101CD00042F00102028004E002884FF6FE731A40CF
:101CE0000280704731B1B0F8442042F40042A0F8BD
:101CF000442005E0B0F84420C2F30E02A0F84420CE
:101D000070471AB183890B43838102E083898B4337
:101D1000838170478182704741EA0203A0F848300E
:101D200070471AB183890B43838102E083898B4317
:101D30008381704701894FF6F87211400181704725
:101D40000A46002101894FF68F7319401143018122
:101D5000704730B504460D4629462046FFF7F0FF90
:101D6000208940F00700208130BD2DE9F041044674
:101D70000D4616461F46602D06D13B4601223146D0
:101D80002046FFF75AFE05E03B4601223146204639
:101D9000FFF79DFE29462046FFF7D2FF208940F03D
:101DA00007002081BDE8F08130B50C460021018993
:101DB000C9B24FF6FF7505EA0325154325432943AC
:101DC000018130BD2DE9F04105460E461746984683
:101DD000002443463A4631462846FFF7E5FF2C8962
:101DE0004FF6F870044044F007044FF68F7004403B
:101DF00044F070042C81BDE8F081F0B504460D4636
:101E000016461F463B46324629462046FFF7CCFF82
:101E1000208940F480402081F0BD01858282704796
:101E20000A46002101884FF68F7319401143018043
:101E30007047F0B50C4615461E46002100220023CF
:101E40000189028B038C4FF6F877394021434FF616
:101E5000FC473A4040F201173A434FF6DD773B40EA
:101E60004FF6FF7707EA06172F433B4301810283B2
:101E70000384F0BD0A460021018B4FF68F73194091
:101E80001143018370470A460021018B48F6FF7316
:101E900019404FF6FF7303EA022319430183704789
:101EA0000A460021818B4FF68F73194011438183BD
:101EB00070470A460021818B48F6FF7319404FF6A0
:101EC000FF7303EA022319438183704721B102881B
:101ED00042F08002028004E002884FF67F731A40CD
:101EE0000280704721B1828842F00402828004E0BF
:101EF00082884FF6FB731A408280704721B1828836
:101F000042F00802828004E082884FF6F7731A409C
:101F10008280704721B1828842F00102828004E011
:101F200082884FF6FE731A40828070470A4600216D
:101F3000018B4FF6F77319401143018370470A462E
:101F40000021018B4FF2FF7319404FF6FF7303EA34
:101F500002231943018370470A460021818B4FF603
:101F6000F77319401143818370470A460021818B22
:101F70004FF2FF7319404FF6FF7303EA0223194330
:101F8000818370470A460021018B4FF6FB7319408D
:101F90001143018370470A460021018B4FF6FF333E
:101FA00019404FF6FF7303EA022319430183704778
:101FB0000A460021818B4FF6FB7319401143818340
:101FC00070470A460021818B4FF6FF3319404FF6C8
:101FD000FF7303EA02231943818370470A460021F5
:101FE000018B4FF67F7319401143018370470A46F6
:101FF0000021018BC1F30E014FF6FF7303EA0223A8
:102000001943018370470A460021818B4FF67F7385
:1020100019401143818370470A460021818BC1F327
:102020000E014FF6FF7303EA0223194381837047C1
:102030000A460021018C4FF6FD73194011430184BB
:1020400070470A460021018C4FF6F773194011437F
:10205000018470470A460021018C4FF6DF73194056
:102060004FF6FF7303EA02131943018470470A46CF
:102070000021018C4FF67F7319404FF6FF7303EA7E
:1020800002131943018470470A460021018C4FF660
:10209000FF5319404FF6FF7303EA022319430184EB
:1020A00070470A460021018C4FF2FF7319404FF62A
:1020B000FF7303EA02231943018470470A46002193
:1020C000018C4DF6FF7319404FF6FF7303EA02339C
:1020D00019430184704730B5002301248C40A3B21A
:1020E000048C9C430484048C02FA01F5ADB22C43A9
:1020F000048430BD30B5002304248C40A3B2048C8A
:102100009C430484048C02FA01F5ADB22C43048490
:1021100030BD70B503460020002418461830012554
:102120008D40ACB21D8CA5431D8409B1082909D18D
:1021300000EB6100056825F0700505600568154332
:1021400005600EE00D1FC5F34E052844056825F413
:10215000E045056005684FF6FF7606EA022635433E
:10216000056070BD21B1028842F00202028004E0E5
:1021700002884FF6FD731A400280704721B1028831
:1021800042F00402028004E002884FF6FB731A401A
:102190000280704721B1828842F08002828004E090
:1021A00082884FF67F731A408280704702884FF60C
:1021B000F7731A40028002880A43028070478288BF
:1021C0004FF68F731A40828082880A43828070475C
:1021D00002894FF6F8731A40028102890A4302818C
:1021E000704702894FF67F731A40028102890A43C1
:1021F000028170478184704781857047818670476E
:102200000187704781877047A0F8401070470288A7
:102210004FF6FF431A40028002880A43028070474B
:102220000146888E70470146088F70470146888FA7
:1022300070470146B1F8400070470146888C7047EE
:102240000146088D704702460020138A0B400BB1EF
:10225000012000E000207047CA430282704730B579
:102260000246002000230024158A05EA010395890F
:1022700005EA010413B10CB1012000E0002030BDDB
:10228000CA4302827047000010B50446F7488442F2
:1022900009D101218803FFF79FF800214FF4804006
:1022A000FFF79AF832E0F248844209D1012148044C
:1022B000FFF79FF800214FF40030FFF79AF825E070
:1022C000EC48844209D101218804FFF792F80021EB
:1022D0004FF48020FFF78DF818E0E748844209D1D9
:1022E0000121C804FFF785F800214FF40020FFF713
:1022F00080F80BE0E148844208D101210805FFF78E
:1023000078F800214FF48010FFF773F810BD2DE925
:10231000F04786B005460E460024A24600BFA146FF
:102320000027B08900B100BF2F462C8A4CF6FF7001
:102330000440F08804432C82AC894EF6F31004402C
:10234000B08831890843718908430443AC81AC8A61
:102350004FF6FF400440B0890443AC8201A8FEF769
:10236000B4FFC248874202D1DDF810A001E0DDF8D9
:102370000CA0A88900F4004040B10AEBCA0000EBB1
:102380000A1031684900B0FBF1F807E00AEBCA0017
:1023900000EB0A1031688900B0FBF1F86420B8FB4B
:1023A000F0F004012009642101FB1089A88900F4E0
:1023B000004040B1322000EBC900B0FBF1F000F06A
:1023C0000700044308E0322000EB09106421B0FB51
:1023D000F1F000F00F0004432C8106B0BDE8F08757
:1023E0004FF41651016000218180C18001810C21D0
:1023F000418100218181704710B502460020108A7A
:102400004FF2FF0318400B884C8823438C882343EA
:10241000CC8823431843108210BD002101804180E5
:102420008180C180704721B1828942F4005282814B
:1024300004E082894DF6FF731A4082817047F0B53F
:102440000346002400260025002040F66A17B94202
:1024500000D100BF1846C1F3421401F01F06012746
:1024600007FA06F5012C01D10C3004E0022C01D151
:10247000103000E014301AB107682F43076002E003
:102480000768AF430760F0BD1AB1838A0B438382AC
:1024900002E0838A8B4383827047028A4FF6F0738F
:1024A0001A400282028A0A430282704782894FF2EE
:1024B000FF731A40828182890A438281704721B169
:1024C000828942F00202828104E082894FF6FD7324
:1024D0001A4082817047028A4FF6DF731A400282E7
:1024E000028A0A430282704721B1028A42F4804282
:1024F000028204E0028A4BF6FF731A4002827047A0
:1025000002460020B1F5007F00D100BF13880B40C8
:102510000BB1012000E00020704770B504460D4665
:10252000574EC5F30800A08000E0761E80212046AB
:10253000FFF7E6FF08B9002EF7D170BD10B50446CD
:1025400000BF20212046FFF7DBFF0028F9D0A0883C
:10255000C0F3080010BD818941F0010181817047FD
:10256000028BD2B20283028B42EA012202837047BD
:10257000028B02F47F420283028B0A43028370477C
:1025800021B1828A42F02002828204E0828A4FF6E0
:10259000DF731A408282704721B1828A42F01002B2
:1025A000828204E0828A4FF6EF731A40828270477B
:1025B00021B1828A42F00802828204E0828A4FF6C8
:1025C000F7731A408282704721B1828942F4004237
:1025D000828103E08289C2F30E028281704721B1B9
:1025E000828A42F40062828204E0828A4FF2FF73A0
:1025F0001A4082827047828A4FF6FB731A408282A9
:10260000828A0A438282704721B1828A42F00202A2
:10261000828204E0828A4FF6FD731A4082827047FC
:1026200001F40072B2F5007F00D100BFCA430280FE
:10263000704770B50246002400230025002040F6B4
:102640006A16B14200D100BFC1F3421501F01F0369
:10265000012606FA03F3012D02D19689334013E0D7
:10266000022D0FD1168A33400EE0000000380140E1
:102670000044004000480040004C00400050004032
:10268000FFFF4F00968A33400C12012606FA04F42D
:102690001688344013B10CB1012000E0002070BD59
:1026A00010B50022002340F66A14A14200D100BFF9
:1026B0000A1201249440A3B2DC43048010BD000040
:1026C00001684FF6FE721140016000210160416017
:1026D0008160C1608D49884208D18C4908394968B8
:1026E00041F00F01894A083A51608AE08749143164
:1026F000884208D185490839496841F0F001834A88
:10270000083A51607DE081492831884208D17F49EB
:102710000839496841F470617C4A083A516070E0B8
:102720007A493C31884208D178490839496841F4EE
:102730007041764A083A516063E0744950318842EA
:1027400008D172490839496841F470216F4A083A42
:10275000516056E06D496431884208D16B490839AF
:10276000496841F47001694A083A516049E0674993
:102770007831884208D165490839496841F070616B
:10278000624A083A51603CE06149884206D1011F23
:10279000096841F00F01021F116032E05C491431F9
:1027A000884208D15A49091F096841F0F001584A86
:1027B000121F116025E056492831884208D154493A
:1027C000091F096841F47061514A121F116018E035
:1027D0004F493C31884208D14D49091F096841F4ED
:1027E00070414B4A121F11600BE049495031884239
:1027F00007D14749091F096841F47021444A121F53
:102800001160704710B50022026847F6F0739A43D2
:102810000C6A8B6823430C6923434C6923438C69FE
:102820002343CC6923434C6A23438C6A23431A43D2
:102830000260CB6843600B6883604B68C36010BD67
:102840000021016041608160C1600161416181617D
:10285000C161016241628162704721B1026842F048
:102860000102026004E002684FF6FE731A40026043
:1028700070471AB103680B43036002E003688B439F
:1028800003607047416070470146486880B27047F6
:1028900001460020002201F080531BB11C4B083B75
:1028A0001A6802E0194B083B1A6802EA01030BB1EF
:1028B000012000E00020704700F0805119B1144958
:1028C000091F086002E01149083948607047014655
:1028D0000020002201F080531BB10D4B083B1A6809
:1028E00002E00A4B083B1A6802EA01030BB101201F
:1028F00000E00020704700F0805119B10449091F21
:10290000086002E001490839486070470800024049
:10291000080402400E49086070470D49486070473E
:102920000B49886070474AF6AA2009490860704739
:102930004CF6CC4006490860704701460020044A26
:10294000D2680A400AB1012000E000207047000070
:102950000030004010B50446BE48844208D1012131
:102960008014FEF739FD0021A014FEF735FD16E0B6
:10297000B948844208D101210014FEF73AFD002134
:102980002014FEF736FD0AE0B448844207D1012145
:10299000C013FEF72EFD0021E013FEF72AFD10BD47
:1029A00010B50022028802F441520B884C88234360
:1029B0008C882343CC8823430C8923434C892343AD
:1029C0008C892343CC8923431A430280838B4FF2A3
:1029D000FF74234083830B8A038210BD2DE9F04FDF
:1029E00085B005460C464FF0000902274FF000085D
:1029F0004FF0010B0026B246A88B4FF24001084071
:102A0000A88302202884B5F81C90A068022801D170
:102A100000BF38E0A08810B94FF0010B01E04FF083
:102A2000020B8D48854200D100E000BF6846FEF7EA
:102A30004CFCDDF800A0E088B0F5007F0AD14FEA39
:102A40001A2000EB80004000A168B0FBF1F0401DAF
:102A500086B20BE04FEA4B10BAFBF0F000EB8000BF
:102A60004000A168B0FBF1F0401D86B20A20B6FB21
:102A7000F0F606F00108A6EB0800C0F34F074FF68A
:102A8000FF7000EA0828022F01DBFF2F02DD02277A
:102A90004FF00008E08840EA080038432884A08806
:102AA000A1890843618808432188084340F40060F5
:102AB00040EA0909A5F81C9005B0BDE8F08F002197
:102AC000018041808180C180018141818181C181FA
:102AD0000721018270470021018041808180C180EF
:102AE0000221816000218181704721B1028842F07A
:102AF0004002028004E002884FF6BF731A40028051
:102B0000704721B1828B42F48062828304E0828B21
:102B10004FF6FF331A408283704730B500240023FC
:102B20000C110125A540ABB21AB185881D438580E3
:102B300002E085889D43858030BD1AB183880B43B0
:102B4000838002E083888B43838070478181704754
:102B50000146888970474FF6FF62914204D002888F
:102B600042F48072028004E002884FF6FF631A404C
:102B70000280704721B1828842F00402828004E022
:102B800082884FF6FB731A408280704702884FF2AA
:102B9000FF731A40028002880A430280704701884E
:102BA00041F480510180704721B1028842F4005203
:102BB000028004E002884DF6FF731A4002807047DD
:102BC00002460020012901D0108B00E0908A704756
:102BD0000146088A7047B1F5804F04D1028842F45B
:102BE0008042028004E002884BF6FF731A400280A4
:102BF00070470246002013890B400BB1012000E012
:102C000000207047CA4302817047F0B50246002099
:102C100000240023002501F00F070126BE40B4B2B6
:102C20000B1101269E40B3B2968806EA0305168969
:102C3000264016B10DB1012000E00020F0BD10B516
:102C4000002201F00F040123A3409AB2D343038171
:102C500010BD00000030014000380040003C004042
:102C60000CB50020019000906C48006840F4803062
:102C70006A49086000BF6948006800F400300090AD
:102C80000198401C0190009818B90198B0F5A06F08
:102C9000F1D16248006800F4003010B101200090CA
:102CA00001E0002000900098012843D15C480068B2
:102CB00040F010005A4908600846006820F0030000
:102CC00008600846006840F0020008605348406809
:102CD000524948600846406848600846406840F4E9
:102CE000806048600846406820F47C1048600846D0
:102CF000406840F4E81048600846006840F0807082
:102D0000086000BF4548006800F000700028F9D056
:102D10004248406820F00300404948600846406847
:102D200040F00200486000BF3C48406800F00C00E2
:102D30000828F9D10CBD10B5FFF792FF10BD10B5F2
:102D40003648006840F00100344908600846406891
:102D50003449084031494860084600683249084013
:102D60002E4908600846006820F480200860084664
:102D7000406820F4FE0048604FF41F008860FFF7B1
:102D8000DAFF4FF000602949086010BD10B500213E
:102D900000200022214B5B6803F00C0121B10429C3
:102DA00006D0082928D107E0214B224C236027E0D8
:102DB0001F4B204C236023E0184B5B6803F470101A
:102DC000164B5B6803F48032022303EB904022B978
:102DD000194B4343174C23600DE0104B5B6803F421
:102DE000003323B1144B4343124C236003E0104BD8
:102DF0004343104C236003E00D4B0E4C236000BF97
:102E000000BF064B5B68C3F303130C4CE15C094B3A
:102E10001B68CB40074C236010BD0000001002402F
:102E2000002002400000FFF8FFFFF6FE08ED00E082
:102E300000127A001400002000093D001800002054
:102E400001F02DFC00200449087000F098FF01E01B
:102E500001F0E5FCFCE7000028000020704700BFFF
:102E6000FEE700BFFEE700BFFEE700BFFEE77047DA
:102E700070477047704710B5FD48FE49097830F833
:102E80001100401CFA49FB4A127821F81200012077
:102E9000FDF785FC10BD10B5F748F649097830F804
:102EA0001100401CF449F34A127821F81200F3484B
:102EB0000078401CF14908700220FDF770FC10BD3D
:102EC0007047704710B54FF4802001F070FDEC485A
:102ED0000DF017FBEA48C07800F0080020B114217B
:102EE0004FF4802001F03BFDE548C07800F0100071
:102EF00028B132214FF4002001F031FD09E0E04813
:102F0000C07800F0200020B114214FF4802001F09F
:102F100026FDDB480DF0F5FA1020FDF740FC10BD52
:102F200010B540F22551D748FFF783FBB8B1002018
:102F3000D5490870D348FFF701FBC1B2D3480278E6
:102F40000078401CD14B1870D148815440F2255173
:102F5000CC48FFF7A5FB1E21402001F000FD10BD6D
:102F600010B54FF40050FFF7B2FCF0B100BF4021A4
:102F7000C848FFF7C5FA0028F9D04FF48050FFF792
:102F80009BFCC4480088C348001D008800228021A3
:102F9000C048FFF779FA0021BF48FFF75EFC002028
:102FA000BE4908700120BE49087010BD10B540F23E
:102FB0002441B848FFF73DFB58B30021B648143010
:102FC000FFF74BFC4FF48030FFF776FCB24814302B
:102FD000FFF75AFC4042B34908704FF48070AE4985
:102FE0004439C865AF480278AF49B0480FF0C1F81E
:102FF000A8480088A748001D00880121A648143071
:10300000FFF72BFC0020A64908700321022001F0E5
:10301000A6FC10BD10B54FF00070FFF758FCF8B1DA
:1030200000BF4021A248FFF76BFA0028F9D04FF00B
:103030008070FFF741FC9E4800889D48001D008875
:10304000002280219A48FFF71FFA002192483C3065
:10305000FFF703FC0020974908700120964908708B
:1030600010BD10B540F224419148FFF7E2FA58B381
:10307000002189482830FFF7F0FB4FF48010FFF75C
:103080001BFC85482830FFF7FFFB40428B49087046
:103090004FF480708049443908678848027888492D
:1030A00088480FF066F8824800888148001D008833
:1030B000012179482830FFF7D0FB00207E490870B5
:1030C0000321082001F04BFC10BD10B52020FFF7B4
:1030D000FEFB40B300BF40216A48FFF711FA002809
:1030E000F9D01020FFF7E8FB664800886548001D0E
:1030F0000088002280216348FFF7C6F90021664856
:103100002838FFF7AAFB00206F49087001205E49AC
:10311000087040F225515B48FFF7C2FA4FF4806116
:103120006A48FDF732FF10BD10B56948FFF7CFFBC5
:1031300008B300BF40216748FFF7E2F90028F9D043
:103140006548FFF7B9FB634800886248001D0088A6
:10315000002280215F48FFF797F900215F48FFF7C1
:103160007CFB00205E49087001205E490870410226
:103170005D48FDF70AFF10BD10B540F224415548E7
:10318000FFF757FA50B3002154482838FFF765FB82
:103190005648FFF791FB51482838FFF775FBC0F1FF
:1031A00080005349087080204C49243908605048F9
:1031B0000278504950480EF0DCFF464800884548E8
:1031C000001D0088012145482838FFF746FB0020F4
:1031D000444908700321802001F0C1FB10BD10B5E7
:1031E00040F225514548FFF724FAD0B10020444968
:1031F00008704248FFF7A2F9C1B24248424A127829
:10320000815441480078401C3F49087040F22551E4
:103210003A48FFF745FA1E214FF4806001F09FFB0A
:10322000A4E040F227713548FFF703FAF0B13748C0
:1032300002780078401C354B18703548815C2F4867
:10324000FFF76BF940F225512C48FFF729FA2F4878
:10325000007830490978884267DB002240F2277104
:103260002648FFF7ECF840F2277155E05EE00000D9
:10327000C8E900202E04002042EA00205A00002065
:10328000D40E002000480040370000203900002004
:10329000540A00200038014044000240330000205E
:1032A000320000203400002054080020490F002084
:1032B000004400402E0000202D0000202F000020A0
:1032C00054060020C91000203800002000140140DE
:1032D00000000210004C00400000011058040240A1
:1032E0003D0000203C000020000C014000010010C7
:1032F0003E000020540B0020C91300200050004065
:1033000041000020540D0020430000204400002014
:10331000D40D002045000020A848FFF7C1F9012284
:1033200040F22661A548FFF78AF81FE040F22661C7
:10333000A248FFF77EF9C8B1002240F226619F48FB
:10334000FFF77DF840F226619C48FFF7A9F94FF49A
:1033500080719B48FDF719FE00209A4908709A4930
:1033600008700120994908709949087010BD10B57E
:1033700001218807FEF773FF00286AD0954800787E
:10338000401C944908709448007B072803D10846E4
:1033900000783C280FDC9048C07B072803D18D487B
:1033A00000783C2807DC8C48007E072806D1894835
:1033B00000783C2802DD0020864908708648007BA2
:1033C000212805D18348007884490978884213DC94
:1033D0008148C07B212805D17E4800787F49097843
:1033E000884209DC7C48007E212808D17948007891
:1033F0007A490978884202DD002076490870002069
:103400007749744A127821F812007649714A127885
:1034100021F8120074496F4A127821F8120073489B
:103420000078B42802DB00207049087070480078EA
:1034300070496E4A127888546C480078401C6B4979
:10344000087000206A49087001218807FEF718FFFC
:1034500015E002214807FEF702FF01280FD10221E3
:103460008007FEF70DFF5F485A49097830F81100D0
:10347000401C81B25B48574A127820F8121010BDE8
:1034800010B55548C07B12287ED104215A48FEF75A
:10349000E6FE012875D104215748FEF7F1FE002011
:1034A0005649087056480078D0B9534820300088F3
:1034B00040F020005049203108804F48FEF7B3FE0D
:1034C000504908800120504908704D4908704F4804
:1034D0000078401C4D49087000204D49087050E0AC
:1034E0004748007801284CD149480078401C484999
:1034F00008700020454908703F48FEF794FE454992
:103500000880084600883F49098888420ADD41480A
:1035100000883C490988401A3F49086001203A491F
:1035200008700CE0374800884FF6FF71081A3949D7
:103530000988084438490860012033490870374831
:10354000007837490978884202DB00203349087047
:103550003148006849F2966188420FD22E480068CF
:1035600080280BD32C4800682E492C4A127841F849
:1035700022002A480078401C284908700020204971
:10358000087001211C4800E017E0FEF768FEA0B1BA
:1035900001211948FEF774FE1B480078401C1A49A7
:1035A00008701A480078052801DD00BFFEE71848BA
:1035B0000078052801DD00BFFEE710BD0050004087
:1035C000000C014044000020450000204200002083
:1035D000410000202E040020900000203E06002024
:1035E000C8E900204EE9002042EA002059000020EE
:1035F0005A00002036E80020000C00403004002073
:1036000054000020500000205700002055000020EA
:1036100056000020520000204C00002058000020DE
:103620002F040020BCEA002010B5FDF74DFD4FF43B
:103630008030FDF769FDFDF7A6FDFD4908700846DD
:103640000078012826D10020FDF7E3FD0020FDF7DA
:10365000F2FD4FF48060FDF7E5FD0220FDF7A8F8CC
:103660001020FDF7B9F84FF4E0114FF48030FDF76A
:10367000B3FD0120FDF7BCFD00BF3920FDF767FD5C
:103680000028FAD00220FDF7B6FD00BFFDF7BCFD13
:103690000828FBD14FF44040FDF7E8FD10BD08B508
:1036A00001217D20FDF77EFE01210820FDF78FFC22
:1036B0000121E048FDF78BFC0120ADF8000010204F
:1036C0008DF8030003208DF802006946DA48FDF703
:1036D000ADFB0121D848FDF758FC4020ADF80000B3
:1036E00010208DF8030003208DF802006946D248AF
:1036F000FDF79CFB0121D148FDF747FC4FF48040CA
:10370000ADF8000010208DF8030003208DF80200B2
:103710006946CB48FDF78AFB4FF48041C848FDF766
:1037200034FC4FF40050ADF8000010208DF8030079
:1037300003208DF802006946C148FDF777FB4FF47E
:103740000051BF48FDF721FC4FF40040ADF80000E8
:1037500010208DF8030003208DF802006946B84858
:10376000FDF764FB4FF40041B548FDF70EFC4FF444
:103770000070ADF8000018208DF8030003208DF8CC
:1037800002006946AF48FDF751FB4FF48060ADF889
:10379000000004208DF803006946AA48FDF746FBA7
:1037A0002020ADF8000018208DF8030003208DF8CC
:1037B00002006946A248FDF739FB4020ADF8000041
:1037C00004208DF8030069469D48FDF72FFB10206B
:1037D000ADF8000018208DF8030003208DF80200DA
:1037E00069469748FDF722FB10219548FDF7CDFB70
:1037F0000820ADF8000004208DF8030069469048C9
:10380000FDF714FB8020ADF8000018208DF80300B0
:1038100003208DF8020069468948FDF707FB8021E7
:103820008748FDF7B0FB4FF48070ADF8000018201A
:103830008DF8030003208DF8020069468048FDF7EB
:10384000F5FA4FF40070ADF8000004208DF8030085
:1038500069467B48FDF7EAFA4FF48060ADF8000056
:1038600010208DF8030003208DF80200694674488B
:10387000FDF7DCFA4FF48060ADF8000018208DF8F9
:10388000030003208DF8020069466F48FDF7CEFA69
:103890004FF40060ADF8000004208DF80300694685
:1038A0006948FDF7C3FA4FF40070ADF8000010202E
:1038B0008DF8030003208DF8020069465F48FDF78C
:1038C000B5FA4FF48050ADF8000018208DF80300D1
:1038D00003208DF8020069465B48FDF7A7FA042033
:1038E000ADF800008DF8030069465548FDF79EFAD3
:1038F0004FF48070ADF8000010208DF80300032015
:103900008DF8020069464D48FDF790FA4020ADF869
:10391000000010208DF8030003208DF80200694696
:103920004648FDF783FA40214448FDF72EFB7C20F2
:10393000ADF8000048208DF8030069463E48FDF7C9
:1039400075FA1020ADF800008DF8030003208DF803
:10395000020069463B48FDF769FA10213948FDF736
:1039600012FB1020ADF8000048208DF803006946D6
:103970003548FDF75BFA8020ADF8000010208DF887
:10398000030003208DF8020069462C48FDF74EFA2B
:103990000620ADF8000000208DF8030069462A4893
:1039A000FDF744FA0820ADF8000010208DF8030060
:1039B00003208DF8020069462348FDF737FA0120FD
:1039C000ADF8000004208DF8030003208DF80200FC
:1039D00069461D48FDF72AFA0320ADF800000420CF
:1039E0008DF8030003208DF8020069461548FDF7A5
:1039F0001DFA8020ADF8000010208DF80300032090
:103A00008DF8020069460C48FDF710FA08BD08B5AC
:103A100001211020FDF7C6FC0120ADF800000420B4
:103A20008DF8030069460848FDF700FA08BD00005C
:103A30005D0000203000140000180140000C01401F
:103A400000140140000801400010014008B50121A8
:103A50001020FDF7A7FC0120ADF8000010208DF824
:103A6000030003208DF802006946FE48FDF7DEF9E9
:103A700008BD08B501210820FDF794FC4FF4005063
:103A8000ADF8000010208DF8030003208DF802002F
:103A90006946F548FDF7CAF908BD1CB51020FCF7CA
:103AA0007EFE04210220FDF7D7FA102000900020AE
:103AB0008DF804000C208DF8050001208DF806001B
:103AC0006846FCF7F5FD1CBD08B54FF4A060FCF797
:103AD0004BFB25208DF8000001208DF801008DF8AA
:103AE00002008DF803006846FCF743FB26208DF8A2
:103AF000000001208DF801008DF802008DF8030010
:103B00006846FCF736FB27208DF8000001208DF871
:103B100001008DF802008DF803006846FCF729FBD0
:103B200034208DF8000002208DF8010001208DF86E
:103B300002008DF803006846FCF71BFB35208DF86A
:103B4000000001208DF801008DF802008DF80300BF
:103B50006846FCF70EFB0A208DF8000003208DF864
:103B6000010001208DF802008DF803006846FCF783
:103B700000FB11208DF8000001208DF801000220CB
:103B80008DF8020001208DF803006846FCF7F1FA79
:103B90001C208DF8000001208DF801008DF8020036
:103BA0008DF803006846FCF7E4FA32208DF8000037
:103BB00000208DF801008DF8020001208DF803002F
:103BC0006846FCF7D6FA00214FF00060FCF703FBD3
:103BD00008BD00B591B001210846FDF7D6FB0121D3
:103BE0004802FDF7DFFBA148FEF76AFDA0480690FA
:103BF000A0480790002008900220099000200A9019
:103C000080200B9040000C9080000D9020200E90A2
:103C100000020F900020109006A99448FEF7F2FDD4
:103C20000020019001208DF808008DF809004FF464
:103C3000602003900020049002208DF8140001A958
:103C40008B484C38FCF725FB072301220B218848C1
:103C50004C38FCF7B6FB072302220C2184484C3871
:103C6000FCF7AFFB012182484C38FCF749FB0121EE
:103C70007F484C38FCF739FB7D484C38FCF757FB44
:103C800000BF7B484C38FCF757FB0028F9D1784837
:103C90004C38FCF75BFB00BF75484C38FCF75BFB0E
:103CA0000028F9D111B000BD1FB501210805FDF7AD
:103CB00086FB4FF4165000900020ADF80400ADF8DC
:103CC0000600ADF808006C48C07E0D280DD14FF4F9
:103CD000166000904FF48050ADF804000020ADF85D
:103CE00006004FF48060ADF808006348C07E0E28DF
:103CF00007D06148C07E102803D05F48C07E1128DD
:103D000009D14FF4166000900020ADF80400ADF822
:103D10000600ADF808000020ADF80C000C20ADF84E
:103D20000A0069465548FEF7F2FA40F22551534819
:103D3000FEF776FC012240F225515048FEF77FFB4A
:103D400001214E48FEF76FFB1FBD10B50120FDF7A6
:103D5000AFFA00BF6120FDF7FAF90028FAD045F26A
:103D60005550FEF7D7FD0320FEF7D7FD40F6B830DB
:103D7000FEF7D6FDFEF7D7FDFEF7DAFD10BD00B564
:103D800087B0012141F20500FDF70CFB3C480078AB
:103D9000B8B1A020ADF8040010208DF80700032072
:103DA0008DF8060001A93748FDF740F84020ADF82E
:103DB000040004208DF8070001A93248FDF736F809
:103DC00037E000213048FEF790FEE020ADF8040017
:103DD00018208DF8070003208DF8060001A9294856
:103DE000FDF724F80020ADF808004FF48270ADF81C
:103DF0000A000020ADF80C00ADF80E000120ADF86F
:103E000010004002ADF812003820ADF81400002078
:103E1000ADF816000720ADF8180002A91A48FEF701
:103E2000BFFD01211848FEF760FE01211648FEF78C
:103E3000A1FE64200CF0BAFB07B000BD00B587B04E
:103E400001210520FDF7AEFA01218803FDF7AAFA4A
:103E50004FF48060FCF788F90E208DF818000120DF
:103E600014E0000000100140000C01400800024076
:103E70004C2401405E0000209000002000500040D3
:103E80005C00002000080140003001408DF819005E
:103E90008DF81A008DF81B0006A8FCF76AF925209A
:103EA0008DF8180001208DF819008DF81A008DF892
:103EB0001B0006A8FCF75DF948208DF817004FF4A9
:103EC0008060ADF8140005A9FE48FCF7AFFF0320A1
:103ED0008DF8160018208DF817004FF40070ADF81B
:103EE000140005A9F748FCF7A1FF4FF41650019004
:103EF0000020ADF80800ADF80A00ADF80C00F2485B
:103F00000078032809D14FF4E13001900020ADF88A
:103F10000800ADF80A00ADF80C000020ADF8100064
:103F20000C20ADF80E0001A9E848FEF7F0F90122D7
:103F300040F22441E548FEF782FA0121E348FEF70A
:103F400072FA01228021E148FEF79EFA0122402107
:103F5000DE48FEF799FA07B000BD00B58BB001212D
:103F60000846FDF712FA0021D948FEF776FCD8483A
:103F7000FEF7A6FBD548001D0090D6480190102002
:103F80000290000103900020049080200590002002
:103F90000690079008904FF44050099000200A9036
:103FA0006946CB48FEF72EFC4FF48050FEF784FCA8
:103FB0000021C748FEF751FC01220221C448FEF748
:103FC00058FC0021C2481430FEF747FCC0481430AA
:103FD000FEF776FBBD48001D0090BF480190002011
:103FE00002904FF480700390002004908020059090
:103FF00000200690079008904FF440500990002050
:104000000A906946B2481430FEF7FCFB4FF480304A
:10401000FEF752FC0121AE481430FEF71EFC0BB037
:1040200000BD00B587B001212120FDF7BBF90121BA
:104030004804FDF7C4F94FF48060FCF795F81120AF
:104040008DF8180002208DF819008DF81A00012053
:104050008DF81B0006A8FCF78CF826208DF81800B8
:1040600001208DF819008DF81A008DF81B0006A8A4
:10407000FCF77FF848208DF817004020ADF81400B9
:1040800005A99648FCF7D2FE03208DF816001820EB
:104090008DF817002020ADF8140005A98F48FCF713
:1040A000C5FE0020ADF80800ADF80A00ADF80C0020
:1040B0004FF44070ADF810000C20ADF80E004FF436
:1040C000E130019001A98648FEF721F9012240F272
:1040D00024418348FEF7B3F901218148FEF7A3F993
:1040E000012280217E48FEF7CFF9012240217C4841
:1040F000FEF7CAF907B000BD00B58BB00121084634
:10410000FDF743F9002172483C30FEF7A6FB7048EA
:104110003C30FEF7D5FA7248001D009071480190BE
:104120001020029000010390002004908020059050
:1041300000200690079008904FF44050099000200E
:104140000A90694662483C30FEF75CFB4FF0807095
:10415000FEF7B2FB00215E483C30FEF77EFB0122F9
:1041600002215B483C30FEF784FB00215848283090
:10417000FEF773FB56482830FEF7A2FA5848001D98
:10418000009059480190002002904FF480700390F5
:104190000020049080200590002006900790089051
:1041A0004FF44050099000200A9069464848283052
:1041B000FEF728FB4FF48010FEF77EFB01214448F8
:1041C0002830FEF74AFB0BB000BD00B587B00121D7
:1041D0002020FDF7E7F801218804FDF7F0F84FF4FF
:1041E0008060FBF7C1FF0C208DF8180000208DF8CF
:1041F000190001208DF81A008DF81B0006A8FBF7A6
:10420000B8FF27208DF8180001208DF819008DF8CF
:104210001A008DF81B0006A8FBF7ABFF48208DF8AD
:1042200017004FF40070ADF8140005A92B48FCF7F7
:10423000FDFD03208DF8160018208DF817004FF4AF
:104240008070ADF8140005A92448FCF7EFFD0020AC
:10425000ADF80800ADF80A00ADF80C00ADF810009C
:104260000C20ADF80E004FF41650019001A91F4824
:10427000FEF74DF840F225511C48FEF7D1F9012216
:1042800040F225511948FEF7DAF801211748FEF7E8
:10429000CAF8002280211548FEF7F6F807B000BDE5
:1042A00000B58BB001210846FDF76FF800210848E2
:1042B0002838FEF7D2FA06482838FEF701FA0B48EC
:1042C000001D15E00008014090000020003801406A
:1042D000440002405409002054080020001401400A
:1042E00000440040540700205406002000480040CD
:1042F0000090FE4801901020029080200390002042
:1043000004908020059000200690079008904FF4BC
:104310004050099000200A906946F548FEF772FA6D
:104320001020FEF7C9FA0021F148FEF796FA0122A3
:104330000221EF48FEF79DFA0BB000BD00B587B033
:104340000121C804FDF73BF801210220FDF71DF80B
:1043500001211120FDF726F84FF48060ADF814001C
:1043600018208DF8170003208DF8160005A9E148E4
:10437000FCF75CFD4FF40060ADF8140004208DF8EC
:10438000170003208DF8160005A9DA48FCF74EFD4A
:104390004FF48060FBF7E8FE34208DF8180003200E
:1043A0008DF8190001208DF81A008DF81B0006A861
:1043B000FBF7DFFE3B208DF8180003208DF8190075
:1043C00001208DF81A008DF81B0006A8FBF7D1FE1E
:1043D0004FF4E13001900020ADF80800ADF80A007C
:1043E000ADF80C00ADF810000C20ADF80E0001A9DE
:1043F000C148FDF78CFF012240F22441BE48FEF780
:104400001EF80121BC48FEF70EF800228021BA48B0
:10441000FEF73AF801224021B748FEF735F807B019
:1044200000BD00B58BB0B448001D0090B3480190AA
:10443000102002908020039000200490802005909E
:1044400000200690079008904FF40050099000203B
:104450000A906946AA48FEF7D5F9AA48FEF72CFA51
:104460000021A748FEF7F9F901220221A448FEF72E
:1044700000FAA148001D0090A3480190002002907E
:10448000802003900020049080200590002006905A
:10449000079008904FF40050099000200A90694658
:1044A00097482838FEF7AEF99848FEF705FA01213B
:1044B00093482838FEF7D1F9012202219048283884
:1044C000FEF7D7F90BB000BD00B587B00121084653
:1044D000FCF775FF4FF08040FCF7C8FF41F61F4026
:1044E000ADF810000020ADF8120042F20F70ADF8E8
:1044F00014000020ADF8160004A94FF08040FDF72D
:1045000089F80220ADF806000020ADF80A0001206D
:10451000ADF80800ADF80C000020ADF8040001A9CA
:104520004FF08040FDF709FB002202214807FDF70C
:10453000E8FB002201218807FDF7E3FB07B000BD7F
:1045400000B587B001210820FCF739FF7048FCF75F
:104550008DFF4720ADF810000020ADF812004FF697
:10456000FF70ADF814000020ADF8160004A96848EB
:10457000FDF750F80A20ADF806000020ADF80A005B
:104580000120ADF808000020ADF80C000420ADF8C3
:10459000040001A95E48FDF7D0FA002204215C481E
:1045A000FDF7AFFB002201215948FDF7AAFB07B038
:1045B00000BD3EB504460220FCF7F1F807208DF857
:1045C000080001208DF8090000208DF80A000CB1C8
:1045D000012000E000208DF80B0002A8FBF7C9FDC8
:1045E0000220FCF7DCF801210020FCF735FD022059
:1045F000009000208DF804000C208DF805000CB10F
:10460000012000E000208DF806006846FCF750F815
:104610003EBD3EB504460120FCF7C1F806208DF8EA
:10462000080001208DF8090000208DF80A000CB167
:10463000012000E000208DF80B0002A8FBF799FD97
:104640000120FCF7ACF800210220FCF705FD012059
:10465000009000208DF804000C208DF805000CB1AE
:10466000012000E000208DF806006846FCF720F8E5
:104670003EBD08B5002000900222694625480AF098
:1046800093FF9DF80000FF2808D09DF80100FF2847
:1046900004D0DD2220491F480AF086FF08BD10B56E
:1046A000FEF7C2FFFEF7FBFFFFF7F7F9FFF70CFA83
:1046B000FFF7DFFFFFF7F8FAFFF761FBFFF745FBB6
:1046C000FFF787FA01211548FCF75FFC40211448E9
:1046D000FCF75BFC13484FF0E02148610020886143
:1046E0000520086100F0F5F81EE00000D40A002063
:1046F0001C00024000100140004C0040540C0020FF
:104700005804024000000110540B0020000100106A
:10471000000C004000B00708900000200018014085
:10472000000C0140FEFFFF00FFF70AFFFFF7CCFE81
:10473000FFF784FBFFF711FCFFF773FCFFF7DCFCCE
:10474000FFF743FDFFF7ACFDFFF7F8FDFFF769FE4C
:104750004FF480610548FCF718FC4FF400710448E1
:10476000FCF713FC012000F010F810BD001401400C
:10477000000C014010B5AE48006818B1AC480068A4
:104780000AF0FCF90AF04EFE10BDA9490968014380
:10479000A74A116070472DE9F0410746012000F05B
:1047A00044F9A4480068002834D0A24804680026D0
:1047B0002EE00025A088B84202D80020A08002E0A8
:1047C000A088C01BA080A08840B9E08830B12068D4
:1047D00020B12068FFF7D9FFE088A080A08808B149
:1047E000206848B91EB99349A068086001E0A06834
:1047F000B0602546A46801E02646A4683DB1A888BB
:1048000010B92868FFF7C1FF28460EF033FA00BF41
:10481000002CCED1002000F008F9BDE8F08170B581
:1048200000240025012000F000F94FF0E020846909
:104830008148B4FBF0F481480068844208D27F4884
:104840000068051B7E48006828447D49086015E023
:104850007A480068844211D940F2654060436FF0A5
:104860007F41A1EB80107449B0FBF1F073490968F6
:10487000451873480068284471490860002000F01A
:10488000D4F815B12846FFF786FF012000F0CDF8D7
:104890006A4804606A4800686A49884209D36848DF
:1048A0000068401A6649086067480068401C66490D
:1048B0000860002000F0B9F8FFF75CFF00205C49B9
:1048C000086070BD604A126802605D4A12680A6042
:1048D000704700205749086070470146554A1068E4
:1048E00004E002688A4200D102E080680028F8D122
:1048F00000BF70472DE9F04107460E463846FFF7E6
:10490000ECFF04461CB1A6802046BDE8F0810C20D7
:104910000EF0D8F90446A4B12760A6800020E080FC
:10492000A0604448006810B94248046007E041486C
:10493000056800E0AD68A8680028FBD1AC6020469F
:10494000E3E70020E1E700EB8002910000E0491E70
:104950000029FCD1704708B100210160704770B593
:1049600004460D46012000F060F829462046FFF776
:10497000C1FF0646002000F058F80EB1012070BDBE
:104980000020FCE770B506460D46012000F04DF80A
:1049900029463046FFF7AEFF044604B1E58000200B
:1049A00000F043F80CB1012070BD0020FCE770B5A9
:1049B0000546012000F039F82846FFF78EFF04462F
:1049C00014B12046FFF7C7FF002000F02EF80CB10D
:1049D000012070BD0020FCE770B5054600260120CF
:1049E00000F023F82846FFF778FF044604B1A688B4
:1049F000002000F01AF8304670BD70B50025012087
:104A000000F013F80B48046802E0681CC5B2A46803
:104A1000002CFAD1002000F008F8284670BD0449A7
:104A200009688143024A1160704780F3108870471B
:104A3000680000206400002040190100740000207C
:104A400070000020005C26056C0000200246FF205C
:104A5000F74B1870F74B18700020F74B187019E0DF
:104A600012F8010BF24B1B785840F44B1880F448B5
:104A70001B88C05CEF4B1B785840ED4B1870F14819
:104A8000EE4B1B88C05CEB4B1870EB480078401C69
:104A9000E94B1870E84800788842E1DBE448007888
:104AA000E44B1B7840EA032070472DE9F8430746A2
:104AB0000C4639462046FFF7C9FF002876D1E24868
:104AC000C07E0D2826D12078012821D160780328C6
:104AD0001ED1DE49D4F803200A60C9780906DB4AF2
:104AE000927841EA0241D94A527841EA0221D74AF2
:104AF000127841EA02000009D44A1070010A51708C
:104B000011460978D24A1173D0494978517300BFD0
:104B1000BDE8F883CC48C07E22287CD120780128CB
:104B20007DD1607803287AD10025E07800062179CC
:104B300040EA0140617940EA0120A17940EA01059B
:104B4000C44928460DF0B9FB06460DF03BFDC249AD
:104B5000C24A127821F81200C148007838BB0846D2
:104B6000BE49097810F81100B9490873BA48BB4921
:104B7000097830F811000012B5494873B648B749B2
:104B8000097800EB4101B7480988C180B348007833
:104B9000401CB249087008460078052805DD012050
:104BA000AF4908700020AD490870B1E715E2FFE792
:104BB000AB480078012830D100210091002009E0A5
:104BC000A54931F81010BDF80020114489B20091B8
:104BD000411CC8B20628F3DBBDF80010062291FB89
:104BE000F2F189B20091BDF80010994A1173BDF835
:104BF0000010091251739B49BDF80020CA809749E3
:104C00000978491C954A117011460978052901DD7A
:104C1000002111707CE703E001E000BF00BF77E7EF
:104C20008948C07E21287BD12078012877D16078FF
:104C3000032874D10021E0780006227940EA02407E
:104C4000627940EA0220A27940EA02010A20B1FB1F
:104C5000F0F0814A814B1B7822F8130080480078DD
:104C600030BB10467D4A127810F81200784A107353
:104C700079487A4A127830F812000012744A507358
:104C80007548764A127800EB420276481288C28054
:104C900072480078401C714A107010460078052850
:104CA00005DD01206E4A107000206C4A10702FE75D
:104CB0006B480078012830D100220092002009E0E2
:104CC000654A32F81020BDF800301A4492B20092C2
:104CD000421CD0B20628F3DBBDF80020062392FB6D
:104CE000F3F292B20092BDF80020594B1A73BDF84E
:104CF000002012125A735B4ABDF80030D380574A25
:104D00001278521C554B1A701A461278052A01DD8A
:104D100000221A70FCE603E001E000BF00BFF7E6E6
:104D20004948C07E0E2807D04748C07E102803D0CF
:104D30004548C07E112824D12078012820D16078F0
:104D400003281DD14149D4F803200A6009780906D7
:104D50003E4A527841EA02413C4A927841EA0221B5
:104D60003A4AD27841EA0200384A1070010A51707A
:104D700011460978364A117334494978517300BF96
:104D8000C6E63148C07E162841D12078012830D1AE
:104D9000607803282DD12D48D4F803100160B4F8B1
:104DA00007108180007830490870284840784870A2
:104DB000264800798DF80300244840798DF80200D8
:104DC000224880788DF801002048C0788DF80000D6
:104DD000264800990160014608681E490DF06DFAE9
:104DE00006460DF0EFFB85B2280A1F498870CD708A
:104DF00000BF2078022809D16078032806D11C481A
:104E0000D4F803100160B4F80710818080E60E48E2
:104E1000C07E19282ED12078012807D16078032878
:104E200004D120790A490873E078487370E60000DD
:104E300085000020860000208400002088000020DB
:104E4000343801083437010890000020D3030020D3
:104E500026E800200000C8428E4300203C060020C7
:104E60003D060020FE420020E0030020E403002075
:104E7000DA030020FC48C07E1D280FD12078C0F145
:104E8000FE00C5B2072D08DCA27805EB4501F74B03
:104E900003EB4100E11C0DF06CF939E6F248C07EED
:104EA0001E280ED12078401EC5B2072D08DCA2783E
:104EB00005EB4501ED4B03EB4100E11C0DF059F909
:104EC00026E6E948C07E1F2870D1207804283BD010
:104ED00004DC012807D002287BD12FE0082845D028
:104EE0000A2876D148E0E078E149C87020798870D6
:104EF00060794870A0790870DE48007801280CD1EC
:104F00000868DD490DF0D9F980460DF05BFB85B2EC
:104F1000DA490D70280A48700FE0D648007860B969
:104F2000D3490868D6490DF0C8F980460DF04AFB10
:104F300085B2D2498D70280AC8704BE02079CF49DC
:104F40000871E078487145E0E0780006217940EA90
:104F50000140617940EA0120A17908430A2190FBD0
:104F6000F1F6C6498E71300AC87133E02079C34921
:104F70000872E07848722DE06079BD49C870A07968
:104F80008870E078487020790870BA480078012865
:104F90000ED10868B8490DF090F980460DF012FB6B
:104FA00085B2B6498D72280AC87211E014E010E08B
:104FB000B048007860B9AE490868B1490DF07DF994
:104FC00080460DF0FFFA85B2AC490D73280A48738C
:104FD00000E000BF00BF9BE500BF00BF98E52DE9E2
:104FE000F04105460E4617461C46032D14D1F11913
:104FF0002246A4480DF0BDF8A34804704FF4806128
:10500000A248FBF7C0FF0120A1490870012240F22D
:105010002771A048FDF713FA052D14D1F119224686
:105020009D480DF0A6F89D4804704FF480719C488F
:10503000FBF7A9FF01209B490870012240F227716C
:105040009948FDF7FCF9012D0FD1F1192246974837
:105050000DF08FF8964804700020964908700122E0
:1050600040F227719448FDF7EAF9022D0FD1F119AA
:10507000224692480DF07DF8914804700020914935
:105080000870012240F227718F48FDF7D8F9042DEE
:1050900013D1F11922468D480DF06BF88C4804703D
:1050A000E9017F48FBF76FFF00208A490870012261
:1050B00040F227718848FDF7C2F9BDE8F0812DE97B
:1050C000F04180460F4615461E46069C84F8008037
:1050D0006770280AA070E570300A20716671062199
:1050E0002046FFF7B3FC7D49088008460078A07190
:1050F00008460088000AE0710820BDE8F08138B554
:105100005948C07E0D2806D1082300227449052085
:10511000FFF765FF38BD5448C07E0E2807D05248BF
:10512000C07E102803D05048C07E112806D1082325
:1051300000226C490520FFF752FFEBE74A48C07E8A
:10514000222806D10823002267490520FFF747FFE0
:10515000E0E74548C07E212806D1082300226349A4
:105160000520FFF73CFFD5E73F48C07E162820D139
:105170005F48007828B9082300225E490520FFF720
:105180002EFF5B480078012805D1082300225A49E8
:105190000520FFF724FF56480078012803DB002094
:1051A0005349087004E052480078401C5049087088
:1051B000B0E72D48C07E192806D1082300224F49A8
:1051C0000520FFF70CFFA5E72748C07E1D2827D143
:1051D0004B4800902448437F00220321494800782F
:1051E000FFF76DFF04462346002245490520FFF7DF
:1051F000F6FE20480078401C1E4908701A48007FBF
:105200000978884205DD3F480078401E3D49087016
:1052100005E0FE203B49087000201649087079E738
:105220001148C07E1E2879D135480123062203216A
:10523000009035480078FFF742FF044623460022DD
:105240002F490520FFF7CBFE0A480078401C09498A
:1052500008700548007F0978884258DD2A480078A0
:10526000401C2949087058E090000020061C0020CE
:10527000E8030020EE0300200000C842F61B0020D7
:1052800000002041D40A00203B000020001401400F
:105290003800002000480040D40D002045000020C8
:1052A000000C014042000020005000405409002042
:1052B0003600002033000020003801405407002051
:1052C000310000202E00002000440040540C00203B
:1052D000400000203D000020004C00408E000020D7
:1052E000373901083F3901085F390108673901087A
:1052F000D9030020573901084F39010847390108FF
:1053000049160020EC030020ED03002006E00120F8
:10531000F74908700020F7490870FBE6F648C07EA0
:105320001F287DD1F248007804284ED004DC0128E3
:1053300007D0022875D132E008285CD00A28F9D1BC
:1053400072E0EC48007868B9EC480223002203219F
:105350000090E7480078FFF7B2FE04460120E549D7
:10536000087015E0E3480078012811D1E3480223D2
:10537000182203210090DE480078FFF7A0FE0446C3
:105380000020DC490870DA480078401CD8490870D1
:1053900023460022D9490520FFF721FE71E0D748B6
:1053A0000123002203210090D1480078FFF787FEF7
:1053B000044623460022D1490520FFF710FECC48C1
:1053C0000078801CCA4908705BE0CC4802230022A8
:1053D00003210090C6480078FFF771FE044623467B
:1053E0000022C6490520FFF7FAFDC1480078001DDC
:1053F000BF49087045E0C148012300220321009005
:10540000BB480078FFF75BFE044623460022BB49F9
:105410000520FFF7E4FDB6480078801CB44901E0A0
:1054200031E02DE008702CE0B248007868B9B3484C
:105430000223002203210090AD480078FFF73FFED1
:1054400004460120AB49087013E0AA4800780128FF
:105450000FD1AA480223042203210090A448007817
:10546000FFF72DFE04460020A24908700120A04944
:10547000087023460022A1490520FFF7B0FD00E097
:1054800000BF00BF46E600BF44E610B50446012059
:105490009B4908709B488464012280219A48FCF74C
:1054A000F3FF012197484430FDF7D7F910BD10B53F
:1054B000024602200CE00A2391FBF3F403FB1413D1
:1054C000303313540A2391FBF3F3D9B2431E58B27D
:1054D0000028F0DA10BDF0B504461546002604EBAE
:1054E000C40000EB0410894F07EB800020F8135034
:1054F00001B9012100220BE004EBC40000EB041011
:10550000824F07EB800030F812000644501CC2B2F4
:105510008A42F1DBB6FBF1F085B22846F0BD30B52A
:1055200003460C4600210AE003EBC30000EB031026
:10553000764D05EB800020F81120481CC1B2A14235
:10554000F2DB104630BD2DE9F041B2B007460B4604
:105550001446002600210CE06D4830F817509D429B
:1055600000DA1D46A54200DD25462DF81150481CE5
:10557000C1B26429F0DB002116E0481CC2B20FE082
:105580003DF811003DF81280404507DB3DF811C0A1
:105590003DF812002DF811002DF812C0501CC2B2B7
:1055A000642AEDDB481CC1B26429E6DB282104E053
:1055B0003DF811000644481CC1B23C29F8DB142018
:1055C000B6FBF0F6B0B232B0BDE8F081FEB551489E
:1055D0000078062881F0DA80DFE810F00600650127
:1055E000DE036A041605120600204B490870424883
:1055F000007B01282DD14048C07B122829D00AF019
:105600002DF946490880084600884FF6FF71884208
:1056100014D042480278404801780078401C3E4B44
:1056200018703F4842543D480088020A18460178E5
:105630000078401C18703A48425408E03648007818
:10564000401C3549087008460078401C087001F07D
:105650009EB82948007B05282CD12748C07B1228FA
:1056600028D00AF044F92D490880084600884FF6F2
:10567000FF71884214D029480178274802780078C1
:10568000401C254B18702648815424480088020A83
:10569000184601780078401C18702148425408E0F0
:1056A0001D480078401C1C49087008460078401CC2
:1056B0000870CCE71048007B062835D119480068EF
:1056C0001649088008460278134801780078401C83
:1056D000114B18701248425410480088020A1846AC
:1056E00001780078401C18700D484254AFE7000064
:1056F000ED030020EE03002090000020491600205A
:10570000330000200000024000380140CA1A002087
:105710005E000020B1030020B2030020BC03002083
:1057200026E8002000012242FE48007B072838D1ED
:105730000021FD4A1180FD490978491CC8B209E0E1
:10574000FB4931F81010F84A12881144F64A1180CA
:10575000411CC8B23C28F3DD002009E0F44931F8CF
:105760001010F14A12881144EF4A1180411CC8B24E
:10577000EE4909788842F1DBEB490B78ED490A786C
:105780000978491CEB4C2170EB498B54E649098898
:105790000A0A21460B780978491C2170E649CA5447
:1057A00055E7E048007B082809D1E2480078401C12
:1057B000E049087008460078401C087047E7D9485F
:1057C000007B0A2830D1D748C07B12282CD00AF0A1
:1057D0003CF9D5490880084600884FF6FF71884299
:1057E00018D0D1480278D34801780078401CD14BBA
:1057F0001870D1484254CC480088010A18460278F3
:105800000078401C1870CC488154C7480088CB49A8
:10581000088008E0C7480078401CC6490870084660
:105820000078401C087012E7BE48007B1C2839D164
:105830000AF0A1F8BC490880084600884FF6E851F4
:1058400048434FF6FF7190FBF1F0B74908800846D6
:10585000008842F2283188421ADDB348008842F6B7
:10586000F821884214DAB0480278B248017800780A
:10587000401CB04B1870B0484254AB480088010A35
:10588000184602780078401C1870AB48815408E034
:10589000A8480078401CA749087008460078401CBA
:1058A0000870D4E600BF9F48C07B022839D10AF0B7
:1058B00064FA9D490880084600884DF61611884212
:1058C00002DB084698490880974801789948027891
:1058D0000078401C974B1870974881549248008874
:1058E000020A184601780078401C18709248425409
:1058F0000AF028FA8C490880084601788D48027819
:105900000078401C8B4B18708B4881548648008867
:10591000020A184601780078401C187086484254E4
:1059200095E68048C07B0A2847D10AF08FFA7E4965
:105930000880084600884FF6FF7188422BD07A48CD
:1059400001787C4802780078401C7A4B18707A48BD
:10595000815475480088020A184601780078401C76
:1059600018707548425476480178184602780078D5
:10597000401C18707048815471480088010A18460C
:1059800002780078401C18706B4881546648008883
:105990006C49088010E067480078401C6549087031
:1059A00008460078401C087008460078401C0870C3
:1059B00008460078401C087049E65A48C07B0C280D
:1059C0007ED10AF096FA5849088008460088B0F55A
:1059D000704F7BDC5348007C00EBC00101EB0010F2
:1059E00051490988A1EB80004F4908804D48407C0F
:1059F00000EBC00101EB00104B49098801EB80006E
:105A000049490880084602784A4801780078401CD5
:105A1000484B18704848425443480088010A1846C9
:105A200002780078401C187043488154444802783A
:105A3000184601780078401C18703F48425440488E
:105A40000088010A184602780078401C18703A480D
:105A50008154354800883B4908800846008842F256
:105A60007A3188422EDB3748008842F64A31884234
:105A700028DC35480088401C3349088031480088BC
:105A80003249314A128821F812002F480088242810
:105A90002DDD0021002005E02C4A32F810201144B1
:105AA000421CD0B2284A12889042F5DB264A12885E
:105AB000B1FBF2F2214B1A800022234B1A8016E030
:105AC00016E003E000202049088010E01948007823
:105AD000401C1849087008460078401C08700846A9
